{
	"contracts/StorageContractA.sol": {
		"StorageContractA": {
			"abi": [
				{
					"stateMutability": "payable",
					"type": "fallback"
				},
				{
					"inputs": [],
					"name": "getImplementation",
					"outputs": [
						{
							"internalType": "address",
							"name": "_implementation",
							"type": "address"
						}
					],
					"stateMutability": "view",
					"type": "function"
				},
				{
					"inputs": [
						{
							"internalType": "address",
							"name": "_implementation",
							"type": "address"
						}
					],
					"name": "setImplementation",
					"outputs": [],
					"stateMutability": "nonpayable",
					"type": "function"
				},
				{
					"inputs": [
						{
							"internalType": "string",
							"name": "value",
							"type": "string"
						}
					],
					"name": "setStringAValue1",
					"outputs": [],
					"stateMutability": "nonpayable",
					"type": "function"
				},
				{
					"inputs": [],
					"name": "stringAvalue1",
					"outputs": [
						{
							"internalType": "string",
							"name": "",
							"type": "string"
						}
					],
					"stateMutability": "view",
					"type": "function"
				},
				{
					"inputs": [],
					"name": "stringAvalue2",
					"outputs": [
						{
							"internalType": "string",
							"name": "",
							"type": "string"
						}
					],
					"stateMutability": "view",
					"type": "function"
				},
				{
					"inputs": [],
					"name": "stringAvalue3",
					"outputs": [
						{
							"internalType": "string",
							"name": "",
							"type": "string"
						}
					],
					"stateMutability": "view",
					"type": "function"
				}
			],
			"devdoc": {
				"kind": "dev",
				"methods": {},
				"version": 1
			},
			"evm": {
				"assembly": "    /* \"contracts/StorageContractA.sol\":64:1252  contract StorageContractA { ... */\n  mstore(0x40, 0x80)\n    /* \"contracts/StorageContractA.sol\":190:241  string public stringAvalue1 = \"string value of A 1\" */\n  mload(0x40)\n  dup1\n  0x40\n  add\n  0x40\n  mstore\n  dup1\n  0x13\n  dup2\n  mstore\n  0x20\n  add\n  0x737472696e672076616c7565206f662041203100000000000000000000000000\n  dup2\n  mstore\n  pop\n  0x00\n  swap1\n  dup2\n  tag_1\n  swap2\n  swap1\n  tag_2\n  jump\t// in\ntag_1:\n  pop\n    /* \"contracts/StorageContractA.sol\":247:298  string public stringAvalue2 = \"string value of A 2\" */\n  mload(0x40)\n  dup1\n  0x40\n  add\n  0x40\n  mstore\n  dup1\n  0x13\n  dup2\n  mstore\n  0x20\n  add\n  0x737472696e672076616c7565206f662041203200000000000000000000000000\n  dup2\n  mstore\n  pop\n  0x01\n  swap1\n  dup2\n  tag_3\n  swap2\n  swap1\n  tag_2\n  jump\t// in\ntag_3:\n  pop\n    /* \"contracts/StorageContractA.sol\":304:355  string public stringAvalue3 = \"string value of A 3\" */\n  mload(0x40)\n  dup1\n  0x40\n  add\n  0x40\n  mstore\n  dup1\n  0x13\n  dup2\n  mstore\n  0x20\n  add\n  0x737472696e672076616c7565206f662041203300000000000000000000000000\n  dup2\n  mstore\n  pop\n  0x02\n  swap1\n  dup2\n  tag_4\n  swap2\n  swap1\n  tag_2\n  jump\t// in\ntag_4:\n  pop\n    /* \"contracts/StorageContractA.sol\":64:1252  contract StorageContractA { ... */\n  callvalue\n  dup1\n  iszero\n  tag_5\n  jumpi\n  0x00\n  dup1\n  revert\ntag_5:\n  pop\n  jump(tag_6)\n    /* \"#utility.yul\":7:106   */\ntag_7:\n    /* \"#utility.yul\":59:65   */\n  0x00\n    /* \"#utility.yul\":93:98   */\n  dup2\n    /* \"#utility.yul\":87:99   */\n  mload\n    /* \"#utility.yul\":77:99   */\n  swap1\n  pop\n    /* \"#utility.yul\":7:106   */\n  swap2\n  swap1\n  pop\n  jump\t// out\n    /* \"#utility.yul\":112:292   */\ntag_8:\n    /* \"#utility.yul\":160:237   */\n  0x4e487b7100000000000000000000000000000000000000000000000000000000\n    /* \"#utility.yul\":157:158   */\n  0x00\n    /* \"#utility.yul\":150:238   */\n  mstore\n    /* \"#utility.yul\":257:261   */\n  0x41\n    /* \"#utility.yul\":254:255   */\n  0x04\n    /* \"#utility.yul\":247:262   */\n  mstore\n    /* \"#utility.yul\":281:285   */\n  0x24\n    /* \"#utility.yul\":278:279   */\n  0x00\n    /* \"#utility.yul\":271:286   */\n  revert\n    /* \"#utility.yul\":298:478   */\ntag_9:\n    /* \"#utility.yul\":346:423   */\n  0x4e487b7100000000000000000000000000000000000000000000000000000000\n    /* \"#utility.yul\":343:344   */\n  0x00\n    /* \"#utility.yul\":336:424   */\n  mstore\n    /* \"#utility.yul\":443:447   */\n  0x22\n    /* \"#utility.yul\":440:441   */\n  0x04\n    /* \"#utility.yul\":433:448   */\n  mstore\n    /* \"#utility.yul\":467:471   */\n  0x24\n    /* \"#utility.yul\":464:465   */\n  0x00\n    /* \"#utility.yul\":457:472   */\n  revert\n    /* \"#utility.yul\":484:804   */\ntag_10:\n    /* \"#utility.yul\":528:534   */\n  0x00\n    /* \"#utility.yul\":565:566   */\n  0x02\n    /* \"#utility.yul\":559:563   */\n  dup3\n    /* \"#utility.yul\":555:567   */\n  div\n    /* \"#utility.yul\":545:567   */\n  swap1\n  pop\n    /* \"#utility.yul\":612:613   */\n  0x01\n    /* \"#utility.yul\":606:610   */\n  dup3\n    /* \"#utility.yul\":602:614   */\n  and\n    /* \"#utility.yul\":633:651   */\n  dup1\n    /* \"#utility.yul\":623:704   */\n  tag_32\n  jumpi\n    /* \"#utility.yul\":689:693   */\n  0x7f\n    /* \"#utility.yul\":681:687   */\n  dup3\n    /* \"#utility.yul\":677:694   */\n  and\n    /* \"#utility.yul\":667:694   */\n  swap2\n  pop\n    /* \"#utility.yul\":623:704   */\ntag_32:\n    /* \"#utility.yul\":751:753   */\n  0x20\n    /* \"#utility.yul\":743:749   */\n  dup3\n    /* \"#utility.yul\":740:754   */\n  lt\n    /* \"#utility.yul\":720:738   */\n  dup2\n    /* \"#utility.yul\":717:755   */\n  sub\n    /* \"#utility.yul\":714:798   */\n  tag_33\n  jumpi\n    /* \"#utility.yul\":770:788   */\n  tag_34\n  tag_9\n  jump\t// in\ntag_34:\n    /* \"#utility.yul\":714:798   */\ntag_33:\n    /* \"#utility.yul\":535:804   */\n  pop\n    /* \"#utility.yul\":484:804   */\n  swap2\n  swap1\n  pop\n  jump\t// out\n    /* \"#utility.yul\":810:951   */\ntag_11:\n    /* \"#utility.yul\":859:863   */\n  0x00\n    /* \"#utility.yul\":882:885   */\n  dup2\n    /* \"#utility.yul\":874:885   */\n  swap1\n  pop\n    /* \"#utility.yul\":905:908   */\n  dup2\n    /* \"#utility.yul\":902:903   */\n  0x00\n    /* \"#utility.yul\":895:909   */\n  mstore\n    /* \"#utility.yul\":939:943   */\n  0x20\n    /* \"#utility.yul\":936:937   */\n  0x00\n    /* \"#utility.yul\":926:944   */\n  keccak256\n    /* \"#utility.yul\":918:944   */\n  swap1\n  pop\n    /* \"#utility.yul\":810:951   */\n  swap2\n  swap1\n  pop\n  jump\t// out\n    /* \"#utility.yul\":957:1050   */\ntag_12:\n    /* \"#utility.yul\":994:1000   */\n  0x00\n    /* \"#utility.yul\":1041:1043   */\n  0x20\n    /* \"#utility.yul\":1036:1038   */\n  0x1f\n    /* \"#utility.yul\":1029:1034   */\n  dup4\n    /* \"#utility.yul\":1025:1039   */\n  add\n    /* \"#utility.yul\":1021:1044   */\n  div\n    /* \"#utility.yul\":1011:1044   */\n  swap1\n  pop\n    /* \"#utility.yul\":957:1050   */\n  swap2\n  swap1\n  pop\n  jump\t// out\n    /* \"#utility.yul\":1056:1163   */\ntag_13:\n    /* \"#utility.yul\":1100:1108   */\n  0x00\n    /* \"#utility.yul\":1150:1155   */\n  dup3\n    /* \"#utility.yul\":1144:1148   */\n  dup3\n    /* \"#utility.yul\":1140:1156   */\n  shl\n    /* \"#utility.yul\":1119:1156   */\n  swap1\n  pop\n    /* \"#utility.yul\":1056:1163   */\n  swap3\n  swap2\n  pop\n  pop\n  jump\t// out\n    /* \"#utility.yul\":1169:1562   */\ntag_14:\n    /* \"#utility.yul\":1238:1244   */\n  0x00\n    /* \"#utility.yul\":1288:1289   */\n  0x08\n    /* \"#utility.yul\":1276:1286   */\n  dup4\n    /* \"#utility.yul\":1272:1290   */\n  mul\n    /* \"#utility.yul\":1311:1408   */\n  tag_39\n    /* \"#utility.yul\":1341:1407   */\n  0xffffffffffffffffffffffffffffffffffffffffffffffffffffffffffffffff\n    /* \"#utility.yul\":1330:1339   */\n  dup3\n    /* \"#utility.yul\":1311:1408   */\n  tag_13\n  jump\t// in\ntag_39:\n    /* \"#utility.yul\":1429:1468   */\n  tag_40\n    /* \"#utility.yul\":1459:1467   */\n  dup7\n    /* \"#utility.yul\":1448:1457   */\n  dup4\n    /* \"#utility.yul\":1429:1468   */\n  tag_13\n  jump\t// in\ntag_40:\n    /* \"#utility.yul\":1417:1468   */\n  swap6\n  pop\n    /* \"#utility.yul\":1501:1505   */\n  dup1\n    /* \"#utility.yul\":1497:1506   */\n  not\n    /* \"#utility.yul\":1490:1495   */\n  dup5\n    /* \"#utility.yul\":1486:1507   */\n  and\n    /* \"#utility.yul\":1477:1507   */\n  swap4\n  pop\n    /* \"#utility.yul\":1550:1554   */\n  dup1\n    /* \"#utility.yul\":1540:1548   */\n  dup7\n    /* \"#utility.yul\":1536:1555   */\n  and\n    /* \"#utility.yul\":1529:1534   */\n  dup5\n    /* \"#utility.yul\":1526:1556   */\n  or\n    /* \"#utility.yul\":1516:1556   */\n  swap3\n  pop\n    /* \"#utility.yul\":1245:1562   */\n  pop\n  pop\n    /* \"#utility.yul\":1169:1562   */\n  swap4\n  swap3\n  pop\n  pop\n  pop\n  jump\t// out\n    /* \"#utility.yul\":1568:1645   */\ntag_15:\n    /* \"#utility.yul\":1605:1612   */\n  0x00\n    /* \"#utility.yul\":1634:1639   */\n  dup2\n    /* \"#utility.yul\":1623:1639   */\n  swap1\n  pop\n    /* \"#utility.yul\":1568:1645   */\n  swap2\n  swap1\n  pop\n  jump\t// out\n    /* \"#utility.yul\":1651:1711   */\ntag_16:\n    /* \"#utility.yul\":1679:1682   */\n  0x00\n    /* \"#utility.yul\":1700:1705   */\n  dup2\n    /* \"#utility.yul\":1693:1705   */\n  swap1\n  pop\n    /* \"#utility.yul\":1651:1711   */\n  swap2\n  swap1\n  pop\n  jump\t// out\n    /* \"#utility.yul\":1717:1859   */\ntag_17:\n    /* \"#utility.yul\":1767:1776   */\n  0x00\n    /* \"#utility.yul\":1800:1853   */\n  tag_44\n    /* \"#utility.yul\":1818:1852   */\n  tag_45\n    /* \"#utility.yul\":1827:1851   */\n  tag_46\n    /* \"#utility.yul\":1845:1850   */\n  dup5\n    /* \"#utility.yul\":1827:1851   */\n  tag_15\n  jump\t// in\ntag_46:\n    /* \"#utility.yul\":1818:1852   */\n  tag_16\n  jump\t// in\ntag_45:\n    /* \"#utility.yul\":1800:1853   */\n  tag_15\n  jump\t// in\ntag_44:\n    /* \"#utility.yul\":1787:1853   */\n  swap1\n  pop\n    /* \"#utility.yul\":1717:1859   */\n  swap2\n  swap1\n  pop\n  jump\t// out\n    /* \"#utility.yul\":1865:1940   */\ntag_18:\n    /* \"#utility.yul\":1908:1911   */\n  0x00\n    /* \"#utility.yul\":1929:1934   */\n  dup2\n    /* \"#utility.yul\":1922:1934   */\n  swap1\n  pop\n    /* \"#utility.yul\":1865:1940   */\n  swap2\n  swap1\n  pop\n  jump\t// out\n    /* \"#utility.yul\":1946:2215   */\ntag_19:\n    /* \"#utility.yul\":2056:2095   */\n  tag_49\n    /* \"#utility.yul\":2087:2094   */\n  dup4\n    /* \"#utility.yul\":2056:2095   */\n  tag_17\n  jump\t// in\ntag_49:\n    /* \"#utility.yul\":2117:2208   */\n  tag_50\n    /* \"#utility.yul\":2166:2207   */\n  tag_51\n    /* \"#utility.yul\":2190:2206   */\n  dup3\n    /* \"#utility.yul\":2166:2207   */\n  tag_18\n  jump\t// in\ntag_51:\n    /* \"#utility.yul\":2158:2164   */\n  dup5\n    /* \"#utility.yul\":2151:2155   */\n  dup5\n    /* \"#utility.yul\":2145:2156   */\n  sload\n    /* \"#utility.yul\":2117:2208   */\n  tag_14\n  jump\t// in\ntag_50:\n    /* \"#utility.yul\":2111:2115   */\n  dup3\n    /* \"#utility.yul\":2104:2209   */\n  sstore\n    /* \"#utility.yul\":2022:2215   */\n  pop\n    /* \"#utility.yul\":1946:2215   */\n  pop\n  pop\n  pop\n  jump\t// out\n    /* \"#utility.yul\":2221:2294   */\ntag_20:\n    /* \"#utility.yul\":2266:2269   */\n  0x00\n    /* \"#utility.yul\":2221:2294   */\n  swap1\n  jump\t// out\n    /* \"#utility.yul\":2300:2489   */\ntag_21:\n    /* \"#utility.yul\":2377:2409   */\n  tag_54\n  tag_20\n  jump\t// in\ntag_54:\n    /* \"#utility.yul\":2418:2483   */\n  tag_55\n    /* \"#utility.yul\":2476:2482   */\n  dup2\n    /* \"#utility.yul\":2468:2474   */\n  dup5\n    /* \"#utility.yul\":2462:2466   */\n  dup5\n    /* \"#utility.yul\":2418:2483   */\n  tag_19\n  jump\t// in\ntag_55:\n    /* \"#utility.yul\":2353:2489   */\n  pop\n    /* \"#utility.yul\":2300:2489   */\n  pop\n  pop\n  jump\t// out\n    /* \"#utility.yul\":2495:2681   */\ntag_22:\n    /* \"#utility.yul\":2555:2675   */\ntag_57:\n    /* \"#utility.yul\":2572:2575   */\n  dup2\n    /* \"#utility.yul\":2565:2570   */\n  dup2\n    /* \"#utility.yul\":2562:2576   */\n  lt\n    /* \"#utility.yul\":2555:2675   */\n  iszero\n  tag_59\n  jumpi\n    /* \"#utility.yul\":2626:2665   */\n  tag_60\n    /* \"#utility.yul\":2663:2664   */\n  0x00\n    /* \"#utility.yul\":2656:2661   */\n  dup3\n    /* \"#utility.yul\":2626:2665   */\n  tag_21\n  jump\t// in\ntag_60:\n    /* \"#utility.yul\":2599:2600   */\n  0x01\n    /* \"#utility.yul\":2592:2597   */\n  dup2\n    /* \"#utility.yul\":2588:2601   */\n  add\n    /* \"#utility.yul\":2579:2601   */\n  swap1\n  pop\n    /* \"#utility.yul\":2555:2675   */\n  jump(tag_57)\ntag_59:\n    /* \"#utility.yul\":2495:2681   */\n  pop\n  pop\n  jump\t// out\n    /* \"#utility.yul\":2687:3230   */\ntag_23:\n    /* \"#utility.yul\":2788:2790   */\n  0x1f\n    /* \"#utility.yul\":2783:2786   */\n  dup3\n    /* \"#utility.yul\":2780:2791   */\n  gt\n    /* \"#utility.yul\":2777:3223   */\n  iszero\n  tag_62\n  jumpi\n    /* \"#utility.yul\":2822:2860   */\n  tag_63\n    /* \"#utility.yul\":2854:2859   */\n  dup2\n    /* \"#utility.yul\":2822:2860   */\n  tag_11\n  jump\t// in\ntag_63:\n    /* \"#utility.yul\":2906:2935   */\n  tag_64\n    /* \"#utility.yul\":2924:2934   */\n  dup5\n    /* \"#utility.yul\":2906:2935   */\n  tag_12\n  jump\t// in\ntag_64:\n    /* \"#utility.yul\":2896:2904   */\n  dup2\n    /* \"#utility.yul\":2892:2936   */\n  add\n    /* \"#utility.yul\":3089:3091   */\n  0x20\n    /* \"#utility.yul\":3077:3087   */\n  dup6\n    /* \"#utility.yul\":3074:3092   */\n  lt\n    /* \"#utility.yul\":3071:3120   */\n  iszero\n  tag_65\n  jumpi\n    /* \"#utility.yul\":3110:3118   */\n  dup2\n    /* \"#utility.yul\":3095:3118   */\n  swap1\n  pop\n    /* \"#utility.yul\":3071:3120   */\ntag_65:\n    /* \"#utility.yul\":3133:3213   */\n  tag_66\n    /* \"#utility.yul\":3189:3211   */\n  tag_67\n    /* \"#utility.yul\":3207:3210   */\n  dup6\n    /* \"#utility.yul\":3189:3211   */\n  tag_12\n  jump\t// in\ntag_67:\n    /* \"#utility.yul\":3179:3187   */\n  dup4\n    /* \"#utility.yul\":3175:3212   */\n  add\n    /* \"#utility.yul\":3162:3173   */\n  dup3\n    /* \"#utility.yul\":3133:3213   */\n  tag_22\n  jump\t// in\ntag_66:\n    /* \"#utility.yul\":2792:3223   */\n  pop\n  pop\n    /* \"#utility.yul\":2777:3223   */\ntag_62:\n    /* \"#utility.yul\":2687:3230   */\n  pop\n  pop\n  pop\n  jump\t// out\n    /* \"#utility.yul\":3236:3353   */\ntag_24:\n    /* \"#utility.yul\":3290:3298   */\n  0x00\n    /* \"#utility.yul\":3340:3345   */\n  dup3\n    /* \"#utility.yul\":3334:3338   */\n  dup3\n    /* \"#utility.yul\":3330:3346   */\n  shr\n    /* \"#utility.yul\":3309:3346   */\n  swap1\n  pop\n    /* \"#utility.yul\":3236:3353   */\n  swap3\n  swap2\n  pop\n  pop\n  jump\t// out\n    /* \"#utility.yul\":3359:3528   */\ntag_25:\n    /* \"#utility.yul\":3403:3409   */\n  0x00\n    /* \"#utility.yul\":3436:3487   */\n  tag_70\n    /* \"#utility.yul\":3484:3485   */\n  0x00\n    /* \"#utility.yul\":3480:3486   */\n  not\n    /* \"#utility.yul\":3472:3477   */\n  dup5\n    /* \"#utility.yul\":3469:3470   */\n  0x08\n    /* \"#utility.yul\":3465:3478   */\n  mul\n    /* \"#utility.yul\":3436:3487   */\n  tag_24\n  jump\t// in\ntag_70:\n    /* \"#utility.yul\":3432:3488   */\n  not\n    /* \"#utility.yul\":3517:3521   */\n  dup1\n    /* \"#utility.yul\":3511:3515   */\n  dup4\n    /* \"#utility.yul\":3507:3522   */\n  and\n    /* \"#utility.yul\":3497:3522   */\n  swap2\n  pop\n    /* \"#utility.yul\":3410:3528   */\n  pop\n    /* \"#utility.yul\":3359:3528   */\n  swap3\n  swap2\n  pop\n  pop\n  jump\t// out\n    /* \"#utility.yul\":3533:3828   */\ntag_26:\n    /* \"#utility.yul\":3609:3613   */\n  0x00\n    /* \"#utility.yul\":3755:3784   */\n  tag_72\n    /* \"#utility.yul\":3780:3783   */\n  dup4\n    /* \"#utility.yul\":3774:3778   */\n  dup4\n    /* \"#utility.yul\":3755:3784   */\n  tag_25\n  jump\t// in\ntag_72:\n    /* \"#utility.yul\":3747:3784   */\n  swap2\n  pop\n    /* \"#utility.yul\":3817:3820   */\n  dup3\n    /* \"#utility.yul\":3814:3815   */\n  0x02\n    /* \"#utility.yul\":3810:3821   */\n  mul\n    /* \"#utility.yul\":3804:3808   */\n  dup3\n    /* \"#utility.yul\":3801:3822   */\n  or\n    /* \"#utility.yul\":3793:3822   */\n  swap1\n  pop\n    /* \"#utility.yul\":3533:3828   */\n  swap3\n  swap2\n  pop\n  pop\n  jump\t// out\n    /* \"#utility.yul\":3833:5228   */\ntag_2:\n    /* \"#utility.yul\":3950:3987   */\n  tag_74\n    /* \"#utility.yul\":3983:3986   */\n  dup3\n    /* \"#utility.yul\":3950:3987   */\n  tag_7\n  jump\t// in\ntag_74:\n    /* \"#utility.yul\":4052:4070   */\n  0xffffffffffffffff\n    /* \"#utility.yul\":4044:4050   */\n  dup2\n    /* \"#utility.yul\":4041:4071   */\n  gt\n    /* \"#utility.yul\":4038:4094   */\n  iszero\n  tag_75\n  jumpi\n    /* \"#utility.yul\":4074:4092   */\n  tag_76\n  tag_8\n  jump\t// in\ntag_76:\n    /* \"#utility.yul\":4038:4094   */\ntag_75:\n    /* \"#utility.yul\":4118:4156   */\n  tag_77\n    /* \"#utility.yul\":4150:4154   */\n  dup3\n    /* \"#utility.yul\":4144:4155   */\n  sload\n    /* \"#utility.yul\":4118:4156   */\n  tag_10\n  jump\t// in\ntag_77:\n    /* \"#utility.yul\":4203:4270   */\n  tag_78\n    /* \"#utility.yul\":4263:4269   */\n  dup3\n    /* \"#utility.yul\":4255:4261   */\n  dup3\n    /* \"#utility.yul\":4249:4253   */\n  dup6\n    /* \"#utility.yul\":4203:4270   */\n  tag_23\n  jump\t// in\ntag_78:\n    /* \"#utility.yul\":4297:4298   */\n  0x00\n    /* \"#utility.yul\":4321:4325   */\n  0x20\n    /* \"#utility.yul\":4308:4325   */\n  swap1\n  pop\n    /* \"#utility.yul\":4353:4355   */\n  0x1f\n    /* \"#utility.yul\":4345:4351   */\n  dup4\n    /* \"#utility.yul\":4342:4356   */\n  gt\n    /* \"#utility.yul\":4370:4371   */\n  0x01\n    /* \"#utility.yul\":4365:4983   */\n  dup2\n  eq\n  tag_80\n  jumpi\n    /* \"#utility.yul\":5027:5028   */\n  0x00\n    /* \"#utility.yul\":5044:5050   */\n  dup5\n    /* \"#utility.yul\":5041:5118   */\n  iszero\n  tag_81\n  jumpi\n    /* \"#utility.yul\":5093:5102   */\n  dup3\n    /* \"#utility.yul\":5088:5091   */\n  dup8\n    /* \"#utility.yul\":5084:5103   */\n  add\n    /* \"#utility.yul\":5078:5104   */\n  mload\n    /* \"#utility.yul\":5069:5104   */\n  swap1\n  pop\n    /* \"#utility.yul\":5041:5118   */\ntag_81:\n    /* \"#utility.yul\":5144:5211   */\n  tag_82\n    /* \"#utility.yul\":5204:5210   */\n  dup6\n    /* \"#utility.yul\":5197:5202   */\n  dup3\n    /* \"#utility.yul\":5144:5211   */\n  tag_26\n  jump\t// in\ntag_82:\n    /* \"#utility.yul\":5138:5142   */\n  dup7\n    /* \"#utility.yul\":5131:5212   */\n  sstore\n    /* \"#utility.yul\":5000:5222   */\n  pop\n    /* \"#utility.yul\":4335:5222   */\n  jump(tag_79)\n    /* \"#utility.yul\":4365:4983   */\ntag_80:\n    /* \"#utility.yul\":4417:4421   */\n  0x1f\n    /* \"#utility.yul\":4413:4422   */\n  not\n    /* \"#utility.yul\":4405:4411   */\n  dup5\n    /* \"#utility.yul\":4401:4423   */\n  and\n    /* \"#utility.yul\":4451:4488   */\n  tag_83\n    /* \"#utility.yul\":4483:4487   */\n  dup7\n    /* \"#utility.yul\":4451:4488   */\n  tag_11\n  jump\t// in\ntag_83:\n    /* \"#utility.yul\":4510:4511   */\n  0x00\n    /* \"#utility.yul\":4524:4732   */\ntag_84:\n    /* \"#utility.yul\":4538:4545   */\n  dup3\n    /* \"#utility.yul\":4535:4536   */\n  dup2\n    /* \"#utility.yul\":4532:4546   */\n  lt\n    /* \"#utility.yul\":4524:4732   */\n  iszero\n  tag_86\n  jumpi\n    /* \"#utility.yul\":4617:4626   */\n  dup5\n    /* \"#utility.yul\":4612:4615   */\n  dup10\n    /* \"#utility.yul\":4608:4627   */\n  add\n    /* \"#utility.yul\":4602:4628   */\n  mload\n    /* \"#utility.yul\":4594:4600   */\n  dup3\n    /* \"#utility.yul\":4587:4629   */\n  sstore\n    /* \"#utility.yul\":4668:4669   */\n  0x01\n    /* \"#utility.yul\":4660:4666   */\n  dup3\n    /* \"#utility.yul\":4656:4670   */\n  add\n    /* \"#utility.yul\":4646:4670   */\n  swap2\n  pop\n    /* \"#utility.yul\":4715:4717   */\n  0x20\n    /* \"#utility.yul\":4704:4713   */\n  dup6\n    /* \"#utility.yul\":4700:4718   */\n  add\n    /* \"#utility.yul\":4687:4718   */\n  swap5\n  pop\n    /* \"#utility.yul\":4561:4565   */\n  0x20\n    /* \"#utility.yul\":4558:4559   */\n  dup2\n    /* \"#utility.yul\":4554:4566   */\n  add\n    /* \"#utility.yul\":4549:4566   */\n  swap1\n  pop\n    /* \"#utility.yul\":4524:4732   */\n  jump(tag_84)\ntag_86:\n    /* \"#utility.yul\":4760:4766   */\n  dup7\n    /* \"#utility.yul\":4751:4758   */\n  dup4\n    /* \"#utility.yul\":4748:4767   */\n  lt\n    /* \"#utility.yul\":4745:4924   */\n  iszero\n  tag_87\n  jumpi\n    /* \"#utility.yul\":4818:4827   */\n  dup5\n    /* \"#utility.yul\":4813:4816   */\n  dup10\n    /* \"#utility.yul\":4809:4828   */\n  add\n    /* \"#utility.yul\":4803:4829   */\n  mload\n    /* \"#utility.yul\":4861:4909   */\n  tag_88\n    /* \"#utility.yul\":4903:4907   */\n  0x1f\n    /* \"#utility.yul\":4895:4901   */\n  dup10\n    /* \"#utility.yul\":4891:4908   */\n  and\n    /* \"#utility.yul\":4880:4889   */\n  dup3\n    /* \"#utility.yul\":4861:4909   */\n  tag_25\n  jump\t// in\ntag_88:\n    /* \"#utility.yul\":4853:4859   */\n  dup4\n    /* \"#utility.yul\":4846:4910   */\n  sstore\n    /* \"#utility.yul\":4768:4924   */\n  pop\n    /* \"#utility.yul\":4745:4924   */\ntag_87:\n    /* \"#utility.yul\":4970:4971   */\n  0x01\n    /* \"#utility.yul\":4966:4967   */\n  0x02\n    /* \"#utility.yul\":4958:4964   */\n  dup9\n    /* \"#utility.yul\":4954:4968   */\n  mul\n    /* \"#utility.yul\":4950:4972   */\n  add\n    /* \"#utility.yul\":4944:4948   */\n  dup9\n    /* \"#utility.yul\":4937:4973   */\n  sstore\n    /* \"#utility.yul\":4372:4983   */\n  pop\n  pop\n  pop\n    /* \"#utility.yul\":4335:5222   */\ntag_79:\n  pop\n    /* \"#utility.yul\":3925:5228   */\n  pop\n  pop\n  pop\n    /* \"#utility.yul\":3833:5228   */\n  pop\n  pop\n  jump\t// out\n    /* \"contracts/StorageContractA.sol\":64:1252  contract StorageContractA { ... */\ntag_6:\n  dataSize(sub_0)\n  dup1\n  dataOffset(sub_0)\n  0x00\n  codecopy\n  0x00\n  return\nstop\n\nsub_0: assembly {\n        /* \"contracts/StorageContractA.sol\":64:1252  contract StorageContractA { ... */\n      mstore(0x40, 0x80)\n      jumpi(tag_1, lt(calldatasize, 0x04))\n      shr(0xe0, calldataload(0x00))\n      dup1\n      0x1f429731\n      eq\n      tag_3\n      jumpi\n      dup1\n      0x2db88051\n      eq\n      tag_4\n      jumpi\n      dup1\n      0x52960cab\n      eq\n      tag_5\n      jumpi\n      dup1\n      0xaaf10f42\n      eq\n      tag_6\n      jumpi\n      dup1\n      0xb85a2a04\n      eq\n      tag_7\n      jumpi\n      dup1\n      0xd784d426\n      eq\n      tag_8\n      jumpi\n      jump(tag_2)\n    tag_1:\n    tag_2:\n      0x00\n      calldatasize\n        /* \"contracts/StorageContractA.sol\":946:958  bytes memory */\n      0x60\n        /* \"contracts/StorageContractA.sol\":970:992  address implementation */\n      0x00\n        /* \"contracts/StorageContractA.sol\":995:1014  getImplementation() */\n      tag_11\n        /* \"contracts/StorageContractA.sol\":995:1012  getImplementation */\n      tag_12\n        /* \"contracts/StorageContractA.sol\":995:1014  getImplementation() */\n      jump\t// in\n    tag_11:\n        /* \"contracts/StorageContractA.sol\":970:1014  address implementation = getImplementation() */\n      swap1\n      pop\n        /* \"contracts/StorageContractA.sol\":1058:1059  0 */\n      0x00\n        /* \"contracts/StorageContractA.sol\":1032:1060  implementation != address(0) */\n      0xffffffffffffffffffffffffffffffffffffffff\n      and\n        /* \"contracts/StorageContractA.sol\":1032:1046  implementation */\n      dup2\n        /* \"contracts/StorageContractA.sol\":1032:1060  implementation != address(0) */\n      0xffffffffffffffffffffffffffffffffffffffff\n      and\n      sub\n        /* \"contracts/StorageContractA.sol\":1024:1095  require(implementation != address(0), \"ERROR_IMPLEMENTATION_NOT_FOUND\") */\n      tag_13\n      jumpi\n      mload(0x40)\n      0x08c379a000000000000000000000000000000000000000000000000000000000\n      dup2\n      mstore\n      0x04\n      add\n      tag_14\n      swap1\n      tag_15\n      jump\t// in\n    tag_14:\n      mload(0x40)\n      dup1\n      swap2\n      sub\n      swap1\n      revert\n    tag_13:\n        /* \"contracts/StorageContractA.sol\":1115:1122  bool ok */\n      0x00\n        /* \"contracts/StorageContractA.sol\":1124:1140  bytes memory res */\n      dup1\n        /* \"contracts/StorageContractA.sol\":1144:1158  implementation */\n      dup3\n        /* \"contracts/StorageContractA.sol\":1144:1163  implementation.call */\n      0xffffffffffffffffffffffffffffffffffffffff\n      and\n        /* \"contracts/StorageContractA.sol\":1171:1180  msg.value */\n      callvalue\n        /* \"contracts/StorageContractA.sol\":1182:1186  data */\n      dup8\n      dup8\n        /* \"contracts/StorageContractA.sol\":1144:1187  implementation.call{value: msg.value}(data) */\n      mload(0x40)\n      tag_16\n      swap3\n      swap2\n      swap1\n      tag_17\n      jump\t// in\n    tag_16:\n      0x00\n      mload(0x40)\n      dup1\n      dup4\n      sub\n      dup2\n      dup6\n      dup8\n      gas\n      call\n      swap3\n      pop\n      pop\n      pop\n      returndatasize\n      dup1\n      0x00\n      dup2\n      eq\n      tag_20\n      jumpi\n      mload(0x40)\n      swap2\n      pop\n      and(add(returndatasize, 0x3f), not(0x1f))\n      dup3\n      add\n      0x40\n      mstore\n      returndatasize\n      dup3\n      mstore\n      returndatasize\n      0x00\n      0x20\n      dup5\n      add\n      returndatacopy\n      jump(tag_19)\n    tag_20:\n      0x60\n      swap2\n      pop\n    tag_19:\n      pop\n        /* \"contracts/StorageContractA.sol\":1114:1187  (bool ok, bytes memory res) = implementation.call{value: msg.value}(data) */\n      swap2\n      pop\n      swap2\n      pop\n        /* \"contracts/StorageContractA.sol\":1205:1207  ok */\n      dup2\n        /* \"contracts/StorageContractA.sol\":1197:1223  require(ok, \"call failed\") */\n      tag_21\n      jumpi\n      mload(0x40)\n      0x08c379a000000000000000000000000000000000000000000000000000000000\n      dup2\n      mstore\n      0x04\n      add\n      tag_22\n      swap1\n      tag_23\n      jump\t// in\n    tag_22:\n      mload(0x40)\n      dup1\n      swap2\n      sub\n      swap1\n      revert\n    tag_21:\n        /* \"contracts/StorageContractA.sol\":1240:1243  res */\n      dup1\n        /* \"contracts/StorageContractA.sol\":1233:1243  return res */\n      swap4\n      pop\n      pop\n      pop\n      pop\n        /* \"contracts/StorageContractA.sol\":890:1250  fallback(bytes calldata data) payable external returns (bytes memory) {... */\n      swap2\n      pop\n      pop\n        /* \"contracts/StorageContractA.sol\":64:1252  contract StorageContractA { ... */\n      dup1\n      mload\n      swap1\n      0x20\n      add\n      return\n        /* \"contracts/StorageContractA.sol\":591:683  function setStringAValue1(string memory value) public {... */\n    tag_3:\n      callvalue\n      dup1\n      iszero\n      tag_24\n      jumpi\n      0x00\n      dup1\n      revert\n    tag_24:\n      pop\n      tag_25\n      0x04\n      dup1\n      calldatasize\n      sub\n      dup2\n      add\n      swap1\n      tag_26\n      swap2\n      swap1\n      tag_27\n      jump\t// in\n    tag_26:\n      tag_28\n      jump\t// in\n    tag_25:\n      stop\n        /* \"contracts/StorageContractA.sol\":247:298  string public stringAvalue2 = \"string value of A 2\" */\n    tag_4:\n      callvalue\n      dup1\n      iszero\n      tag_29\n      jumpi\n      0x00\n      dup1\n      revert\n    tag_29:\n      pop\n      tag_30\n      tag_31\n      jump\t// in\n    tag_30:\n      mload(0x40)\n      tag_32\n      swap2\n      swap1\n      tag_33\n      jump\t// in\n    tag_32:\n      mload(0x40)\n      dup1\n      swap2\n      sub\n      swap1\n      return\n        /* \"contracts/StorageContractA.sol\":190:241  string public stringAvalue1 = \"string value of A 1\" */\n    tag_5:\n      callvalue\n      dup1\n      iszero\n      tag_34\n      jumpi\n      0x00\n      dup1\n      revert\n    tag_34:\n      pop\n      tag_35\n      tag_36\n      jump\t// in\n    tag_35:\n      mload(0x40)\n      tag_37\n      swap2\n      swap1\n      tag_33\n      jump\t// in\n    tag_37:\n      mload(0x40)\n      dup1\n      swap2\n      sub\n      swap1\n      return\n        /* \"contracts/StorageContractA.sol\":689:884  function getImplementation() public view returns (address _implementation) {... */\n    tag_6:\n      callvalue\n      dup1\n      iszero\n      tag_38\n      jumpi\n      0x00\n      dup1\n      revert\n    tag_38:\n      pop\n      tag_39\n      tag_12\n      jump\t// in\n    tag_39:\n      mload(0x40)\n      tag_40\n      swap2\n      swap1\n      tag_41\n      jump\t// in\n    tag_40:\n      mload(0x40)\n      dup1\n      swap2\n      sub\n      swap1\n      return\n        /* \"contracts/StorageContractA.sol\":304:355  string public stringAvalue3 = \"string value of A 3\" */\n    tag_7:\n      callvalue\n      dup1\n      iszero\n      tag_42\n      jumpi\n      0x00\n      dup1\n      revert\n    tag_42:\n      pop\n      tag_43\n      tag_44\n      jump\t// in\n    tag_43:\n      mload(0x40)\n      tag_45\n      swap2\n      swap1\n      tag_33\n      jump\t// in\n    tag_45:\n      mload(0x40)\n      dup1\n      swap2\n      sub\n      swap1\n      return\n        /* \"contracts/StorageContractA.sol\":363:585  function setImplementation(address _implementation) public {... */\n    tag_8:\n      callvalue\n      dup1\n      iszero\n      tag_46\n      jumpi\n      0x00\n      dup1\n      revert\n    tag_46:\n      pop\n      tag_47\n      0x04\n      dup1\n      calldatasize\n      sub\n      dup2\n      add\n      swap1\n      tag_48\n      swap2\n      swap1\n      tag_49\n      jump\t// in\n    tag_48:\n      tag_50\n      jump\t// in\n    tag_47:\n      stop\n        /* \"contracts/StorageContractA.sol\":689:884  function getImplementation() public view returns (address _implementation) {... */\n    tag_12:\n        /* \"contracts/StorageContractA.sol\":739:762  address _implementation */\n      0x00\n        /* \"contracts/StorageContractA.sol\":774:785  bytes32 key */\n      dup1\n        /* \"contracts/StorageContractA.sol\":142:183  keccak256(\"set.implementation.initiator\") */\n      0x2d64715730a5adb8734b2b84045c82cbeba1c79b838ef4b59c5959d0ecf9e269\n        /* \"contracts/StorageContractA.sol\":774:806  bytes32 key = IMPLEMENTATION_KEY */\n      swap1\n      pop\n        /* \"contracts/StorageContractA.sol\":864:867  key */\n      dup1\n        /* \"contracts/StorageContractA.sol\":858:868  sload(key) */\n      sload\n        /* \"contracts/StorageContractA.sol\":839:868  _implementation := sload(key) */\n      swap2\n      pop\n        /* \"contracts/StorageContractA.sol\":825:878  {... */\n      pop\n        /* \"contracts/StorageContractA.sol\":689:884  function getImplementation() public view returns (address _implementation) {... */\n      swap1\n      jump\t// out\n        /* \"contracts/StorageContractA.sol\":591:683  function setStringAValue1(string memory value) public {... */\n    tag_28:\n        /* \"contracts/StorageContractA.sol\":671:676  value */\n      dup1\n        /* \"contracts/StorageContractA.sol\":655:668  stringAvalue1 */\n      0x00\n        /* \"contracts/StorageContractA.sol\":655:676  stringAvalue1 = value */\n      swap1\n      dup2\n      tag_53\n      swap2\n      swap1\n      tag_54\n      jump\t// in\n    tag_53:\n      pop\n        /* \"contracts/StorageContractA.sol\":591:683  function setStringAValue1(string memory value) public {... */\n      pop\n      jump\t// out\n        /* \"contracts/StorageContractA.sol\":247:298  string public stringAvalue2 = \"string value of A 2\" */\n    tag_31:\n      0x01\n      dup1\n      sload\n      tag_55\n      swap1\n      tag_56\n      jump\t// in\n    tag_55:\n      dup1\n      0x1f\n      add\n      0x20\n      dup1\n      swap2\n      div\n      mul\n      0x20\n      add\n      mload(0x40)\n      swap1\n      dup2\n      add\n      0x40\n      mstore\n      dup1\n      swap3\n      swap2\n      swap1\n      dup2\n      dup2\n      mstore\n      0x20\n      add\n      dup3\n      dup1\n      sload\n      tag_57\n      swap1\n      tag_56\n      jump\t// in\n    tag_57:\n      dup1\n      iszero\n      tag_58\n      jumpi\n      dup1\n      0x1f\n      lt\n      tag_59\n      jumpi\n      0x0100\n      dup1\n      dup4\n      sload\n      div\n      mul\n      dup4\n      mstore\n      swap2\n      0x20\n      add\n      swap2\n      jump(tag_58)\n    tag_59:\n      dup3\n      add\n      swap2\n      swap1\n      0x00\n      mstore\n      keccak256(0x00, 0x20)\n      swap1\n    tag_60:\n      dup2\n      sload\n      dup2\n      mstore\n      swap1\n      0x01\n      add\n      swap1\n      0x20\n      add\n      dup1\n      dup4\n      gt\n      tag_60\n      jumpi\n      dup3\n      swap1\n      sub\n      0x1f\n      and\n      dup3\n      add\n      swap2\n    tag_58:\n      pop\n      pop\n      pop\n      pop\n      pop\n      dup2\n      jump\t// out\n        /* \"contracts/StorageContractA.sol\":190:241  string public stringAvalue1 = \"string value of A 1\" */\n    tag_36:\n      0x00\n      dup1\n      sload\n      tag_61\n      swap1\n      tag_56\n      jump\t// in\n    tag_61:\n      dup1\n      0x1f\n      add\n      0x20\n      dup1\n      swap2\n      div\n      mul\n      0x20\n      add\n      mload(0x40)\n      swap1\n      dup2\n      add\n      0x40\n      mstore\n      dup1\n      swap3\n      swap2\n      swap1\n      dup2\n      dup2\n      mstore\n      0x20\n      add\n      dup3\n      dup1\n      sload\n      tag_62\n      swap1\n      tag_56\n      jump\t// in\n    tag_62:\n      dup1\n      iszero\n      tag_63\n      jumpi\n      dup1\n      0x1f\n      lt\n      tag_64\n      jumpi\n      0x0100\n      dup1\n      dup4\n      sload\n      div\n      mul\n      dup4\n      mstore\n      swap2\n      0x20\n      add\n      swap2\n      jump(tag_63)\n    tag_64:\n      dup3\n      add\n      swap2\n      swap1\n      0x00\n      mstore\n      keccak256(0x00, 0x20)\n      swap1\n    tag_65:\n      dup2\n      sload\n      dup2\n      mstore\n      swap1\n      0x01\n      add\n      swap1\n      0x20\n      add\n      dup1\n      dup4\n      gt\n      tag_65\n      jumpi\n      dup3\n      swap1\n      sub\n      0x1f\n      and\n      dup3\n      add\n      swap2\n    tag_63:\n      pop\n      pop\n      pop\n      pop\n      pop\n      dup2\n      jump\t// out\n        /* \"contracts/StorageContractA.sol\":304:355  string public stringAvalue3 = \"string value of A 3\" */\n    tag_44:\n      0x02\n      dup1\n      sload\n      tag_66\n      swap1\n      tag_56\n      jump\t// in\n    tag_66:\n      dup1\n      0x1f\n      add\n      0x20\n      dup1\n      swap2\n      div\n      mul\n      0x20\n      add\n      mload(0x40)\n      swap1\n      dup2\n      add\n      0x40\n      mstore\n      dup1\n      swap3\n      swap2\n      swap1\n      dup2\n      dup2\n      mstore\n      0x20\n      add\n      dup3\n      dup1\n      sload\n      tag_67\n      swap1\n      tag_56\n      jump\t// in\n    tag_67:\n      dup1\n      iszero\n      tag_68\n      jumpi\n      dup1\n      0x1f\n      lt\n      tag_69\n      jumpi\n      0x0100\n      dup1\n      dup4\n      sload\n      div\n      mul\n      dup4\n      mstore\n      swap2\n      0x20\n      add\n      swap2\n      jump(tag_68)\n    tag_69:\n      dup3\n      add\n      swap2\n      swap1\n      0x00\n      mstore\n      keccak256(0x00, 0x20)\n      swap1\n    tag_70:\n      dup2\n      sload\n      dup2\n      mstore\n      swap1\n      0x01\n      add\n      swap1\n      0x20\n      add\n      dup1\n      dup4\n      gt\n      tag_70\n      jumpi\n      dup3\n      swap1\n      sub\n      0x1f\n      and\n      dup3\n      add\n      swap2\n    tag_68:\n      pop\n      pop\n      pop\n      pop\n      pop\n      dup2\n      jump\t// out\n        /* \"contracts/StorageContractA.sol\":363:585  function setImplementation(address _implementation) public {... */\n    tag_50:\n        /* \"contracts/StorageContractA.sol\":476:487  bytes32 key */\n      0x00\n        /* \"contracts/StorageContractA.sol\":142:183  keccak256(\"set.implementation.initiator\") */\n      0x2d64715730a5adb8734b2b84045c82cbeba1c79b838ef4b59c5959d0ecf9e269\n        /* \"contracts/StorageContractA.sol\":476:508  bytes32 key = IMPLEMENTATION_KEY */\n      swap1\n      pop\n        /* \"contracts/StorageContractA.sol\":553:568  _implementation */\n      dup2\n        /* \"contracts/StorageContractA.sol\":548:551  key */\n      dup2\n        /* \"contracts/StorageContractA.sol\":541:569  sstore(key, _implementation) */\n      sstore\n        /* \"contracts/StorageContractA.sol\":527:579  {... */\n      pop\n        /* \"contracts/StorageContractA.sol\":363:585  function setImplementation(address _implementation) public {... */\n      pop\n      jump\t// out\n        /* \"#utility.yul\":7:176   */\n    tag_72:\n        /* \"#utility.yul\":91:102   */\n      0x00\n        /* \"#utility.yul\":125:131   */\n      dup3\n        /* \"#utility.yul\":120:123   */\n      dup3\n        /* \"#utility.yul\":113:132   */\n      mstore\n        /* \"#utility.yul\":165:169   */\n      0x20\n        /* \"#utility.yul\":160:163   */\n      dup3\n        /* \"#utility.yul\":156:170   */\n      add\n        /* \"#utility.yul\":141:170   */\n      swap1\n      pop\n        /* \"#utility.yul\":7:176   */\n      swap3\n      swap2\n      pop\n      pop\n      jump\t// out\n        /* \"#utility.yul\":182:362   */\n    tag_73:\n        /* \"#utility.yul\":322:354   */\n      0x4552524f525f494d504c454d454e544154494f4e5f4e4f545f464f554e440000\n        /* \"#utility.yul\":318:319   */\n      0x00\n        /* \"#utility.yul\":310:316   */\n      dup3\n        /* \"#utility.yul\":306:320   */\n      add\n        /* \"#utility.yul\":299:355   */\n      mstore\n        /* \"#utility.yul\":182:362   */\n      pop\n      jump\t// out\n        /* \"#utility.yul\":368:734   */\n    tag_74:\n        /* \"#utility.yul\":510:513   */\n      0x00\n        /* \"#utility.yul\":531:598   */\n      tag_121\n        /* \"#utility.yul\":595:597   */\n      0x1e\n        /* \"#utility.yul\":590:593   */\n      dup4\n        /* \"#utility.yul\":531:598   */\n      tag_72\n      jump\t// in\n    tag_121:\n        /* \"#utility.yul\":524:598   */\n      swap2\n      pop\n        /* \"#utility.yul\":607:700   */\n      tag_122\n        /* \"#utility.yul\":696:699   */\n      dup3\n        /* \"#utility.yul\":607:700   */\n      tag_73\n      jump\t// in\n    tag_122:\n        /* \"#utility.yul\":725:727   */\n      0x20\n        /* \"#utility.yul\":720:723   */\n      dup3\n        /* \"#utility.yul\":716:728   */\n      add\n        /* \"#utility.yul\":709:728   */\n      swap1\n      pop\n        /* \"#utility.yul\":368:734   */\n      swap2\n      swap1\n      pop\n      jump\t// out\n        /* \"#utility.yul\":740:1159   */\n    tag_15:\n        /* \"#utility.yul\":906:910   */\n      0x00\n        /* \"#utility.yul\":944:946   */\n      0x20\n        /* \"#utility.yul\":933:942   */\n      dup3\n        /* \"#utility.yul\":929:947   */\n      add\n        /* \"#utility.yul\":921:947   */\n      swap1\n      pop\n        /* \"#utility.yul\":993:1002   */\n      dup2\n        /* \"#utility.yul\":987:991   */\n      dup2\n        /* \"#utility.yul\":983:1003   */\n      sub\n        /* \"#utility.yul\":979:980   */\n      0x00\n        /* \"#utility.yul\":968:977   */\n      dup4\n        /* \"#utility.yul\":964:981   */\n      add\n        /* \"#utility.yul\":957:1004   */\n      mstore\n        /* \"#utility.yul\":1021:1152   */\n      tag_124\n        /* \"#utility.yul\":1147:1151   */\n      dup2\n        /* \"#utility.yul\":1021:1152   */\n      tag_74\n      jump\t// in\n    tag_124:\n        /* \"#utility.yul\":1013:1152   */\n      swap1\n      pop\n        /* \"#utility.yul\":740:1159   */\n      swap2\n      swap1\n      pop\n      jump\t// out\n        /* \"#utility.yul\":1165:1312   */\n    tag_75:\n        /* \"#utility.yul\":1266:1277   */\n      0x00\n        /* \"#utility.yul\":1303:1306   */\n      dup2\n        /* \"#utility.yul\":1288:1306   */\n      swap1\n      pop\n        /* \"#utility.yul\":1165:1312   */\n      swap3\n      swap2\n      pop\n      pop\n      jump\t// out\n        /* \"#utility.yul\":1318:1466   */\n    tag_76:\n        /* \"#utility.yul\":1416:1422   */\n      dup3\n        /* \"#utility.yul\":1411:1414   */\n      dup2\n        /* \"#utility.yul\":1406:1409   */\n      dup4\n        /* \"#utility.yul\":1393:1423   */\n      calldatacopy\n        /* \"#utility.yul\":1457:1458   */\n      0x00\n        /* \"#utility.yul\":1448:1454   */\n      dup4\n        /* \"#utility.yul\":1443:1446   */\n      dup4\n        /* \"#utility.yul\":1439:1455   */\n      add\n        /* \"#utility.yul\":1432:1459   */\n      mstore\n        /* \"#utility.yul\":1318:1466   */\n      pop\n      pop\n      pop\n      jump\t// out\n        /* \"#utility.yul\":1494:1821   */\n    tag_77:\n        /* \"#utility.yul\":1608:1611   */\n      0x00\n        /* \"#utility.yul\":1629:1717   */\n      tag_128\n        /* \"#utility.yul\":1710:1716   */\n      dup4\n        /* \"#utility.yul\":1705:1708   */\n      dup6\n        /* \"#utility.yul\":1629:1717   */\n      tag_75\n      jump\t// in\n    tag_128:\n        /* \"#utility.yul\":1622:1717   */\n      swap4\n      pop\n        /* \"#utility.yul\":1727:1783   */\n      tag_129\n        /* \"#utility.yul\":1776:1782   */\n      dup4\n        /* \"#utility.yul\":1771:1774   */\n      dup6\n        /* \"#utility.yul\":1764:1769   */\n      dup5\n        /* \"#utility.yul\":1727:1783   */\n      tag_76\n      jump\t// in\n    tag_129:\n        /* \"#utility.yul\":1808:1814   */\n      dup3\n        /* \"#utility.yul\":1803:1806   */\n      dup5\n        /* \"#utility.yul\":1799:1815   */\n      add\n        /* \"#utility.yul\":1792:1815   */\n      swap1\n      pop\n        /* \"#utility.yul\":1494:1821   */\n      swap4\n      swap3\n      pop\n      pop\n      pop\n      jump\t// out\n        /* \"#utility.yul\":1827:2118   */\n    tag_17:\n        /* \"#utility.yul\":1967:1970   */\n      0x00\n        /* \"#utility.yul\":1989:2092   */\n      tag_131\n        /* \"#utility.yul\":2088:2091   */\n      dup3\n        /* \"#utility.yul\":2079:2085   */\n      dup5\n        /* \"#utility.yul\":2071:2077   */\n      dup7\n        /* \"#utility.yul\":1989:2092   */\n      tag_77\n      jump\t// in\n    tag_131:\n        /* \"#utility.yul\":1982:2092   */\n      swap2\n      pop\n        /* \"#utility.yul\":2109:2112   */\n      dup2\n        /* \"#utility.yul\":2102:2112   */\n      swap1\n      pop\n        /* \"#utility.yul\":1827:2118   */\n      swap4\n      swap3\n      pop\n      pop\n      pop\n      jump\t// out\n        /* \"#utility.yul\":2124:2285   */\n    tag_78:\n        /* \"#utility.yul\":2264:2277   */\n      0x63616c6c206661696c6564000000000000000000000000000000000000000000\n        /* \"#utility.yul\":2260:2261   */\n      0x00\n        /* \"#utility.yul\":2252:2258   */\n      dup3\n        /* \"#utility.yul\":2248:2262   */\n      add\n        /* \"#utility.yul\":2241:2278   */\n      mstore\n        /* \"#utility.yul\":2124:2285   */\n      pop\n      jump\t// out\n        /* \"#utility.yul\":2291:2657   */\n    tag_79:\n        /* \"#utility.yul\":2433:2436   */\n      0x00\n        /* \"#utility.yul\":2454:2521   */\n      tag_134\n        /* \"#utility.yul\":2518:2520   */\n      0x0b\n        /* \"#utility.yul\":2513:2516   */\n      dup4\n        /* \"#utility.yul\":2454:2521   */\n      tag_72\n      jump\t// in\n    tag_134:\n        /* \"#utility.yul\":2447:2521   */\n      swap2\n      pop\n        /* \"#utility.yul\":2530:2623   */\n      tag_135\n        /* \"#utility.yul\":2619:2622   */\n      dup3\n        /* \"#utility.yul\":2530:2623   */\n      tag_78\n      jump\t// in\n    tag_135:\n        /* \"#utility.yul\":2648:2650   */\n      0x20\n        /* \"#utility.yul\":2643:2646   */\n      dup3\n        /* \"#utility.yul\":2639:2651   */\n      add\n        /* \"#utility.yul\":2632:2651   */\n      swap1\n      pop\n        /* \"#utility.yul\":2291:2657   */\n      swap2\n      swap1\n      pop\n      jump\t// out\n        /* \"#utility.yul\":2663:3082   */\n    tag_23:\n        /* \"#utility.yul\":2829:2833   */\n      0x00\n        /* \"#utility.yul\":2867:2869   */\n      0x20\n        /* \"#utility.yul\":2856:2865   */\n      dup3\n        /* \"#utility.yul\":2852:2870   */\n      add\n        /* \"#utility.yul\":2844:2870   */\n      swap1\n      pop\n        /* \"#utility.yul\":2916:2925   */\n      dup2\n        /* \"#utility.yul\":2910:2914   */\n      dup2\n        /* \"#utility.yul\":2906:2926   */\n      sub\n        /* \"#utility.yul\":2902:2903   */\n      0x00\n        /* \"#utility.yul\":2891:2900   */\n      dup4\n        /* \"#utility.yul\":2887:2904   */\n      add\n        /* \"#utility.yul\":2880:2927   */\n      mstore\n        /* \"#utility.yul\":2944:3075   */\n      tag_137\n        /* \"#utility.yul\":3070:3074   */\n      dup2\n        /* \"#utility.yul\":2944:3075   */\n      tag_79\n      jump\t// in\n    tag_137:\n        /* \"#utility.yul\":2936:3075   */\n      swap1\n      pop\n        /* \"#utility.yul\":2663:3082   */\n      swap2\n      swap1\n      pop\n      jump\t// out\n        /* \"#utility.yul\":3088:3163   */\n    tag_80:\n        /* \"#utility.yul\":3121:3127   */\n      0x00\n        /* \"#utility.yul\":3154:3156   */\n      0x40\n        /* \"#utility.yul\":3148:3157   */\n      mload\n        /* \"#utility.yul\":3138:3157   */\n      swap1\n      pop\n        /* \"#utility.yul\":3088:3163   */\n      swap1\n      jump\t// out\n        /* \"#utility.yul\":3169:3286   */\n    tag_81:\n        /* \"#utility.yul\":3278:3279   */\n      0x00\n        /* \"#utility.yul\":3275:3276   */\n      dup1\n        /* \"#utility.yul\":3268:3280   */\n      revert\n        /* \"#utility.yul\":3292:3409   */\n    tag_82:\n        /* \"#utility.yul\":3401:3402   */\n      0x00\n        /* \"#utility.yul\":3398:3399   */\n      dup1\n        /* \"#utility.yul\":3391:3403   */\n      revert\n        /* \"#utility.yul\":3415:3532   */\n    tag_83:\n        /* \"#utility.yul\":3524:3525   */\n      0x00\n        /* \"#utility.yul\":3521:3522   */\n      dup1\n        /* \"#utility.yul\":3514:3526   */\n      revert\n        /* \"#utility.yul\":3538:3655   */\n    tag_84:\n        /* \"#utility.yul\":3647:3648   */\n      0x00\n        /* \"#utility.yul\":3644:3645   */\n      dup1\n        /* \"#utility.yul\":3637:3649   */\n      revert\n        /* \"#utility.yul\":3661:3763   */\n    tag_85:\n        /* \"#utility.yul\":3702:3708   */\n      0x00\n        /* \"#utility.yul\":3753:3755   */\n      0x1f\n        /* \"#utility.yul\":3749:3756   */\n      not\n        /* \"#utility.yul\":3744:3746   */\n      0x1f\n        /* \"#utility.yul\":3737:3742   */\n      dup4\n        /* \"#utility.yul\":3733:3747   */\n      add\n        /* \"#utility.yul\":3729:3757   */\n      and\n        /* \"#utility.yul\":3719:3757   */\n      swap1\n      pop\n        /* \"#utility.yul\":3661:3763   */\n      swap2\n      swap1\n      pop\n      jump\t// out\n        /* \"#utility.yul\":3769:3949   */\n    tag_86:\n        /* \"#utility.yul\":3817:3894   */\n      0x4e487b7100000000000000000000000000000000000000000000000000000000\n        /* \"#utility.yul\":3814:3815   */\n      0x00\n        /* \"#utility.yul\":3807:3895   */\n      mstore\n        /* \"#utility.yul\":3914:3918   */\n      0x41\n        /* \"#utility.yul\":3911:3912   */\n      0x04\n        /* \"#utility.yul\":3904:3919   */\n      mstore\n        /* \"#utility.yul\":3938:3942   */\n      0x24\n        /* \"#utility.yul\":3935:3936   */\n      0x00\n        /* \"#utility.yul\":3928:3943   */\n      revert\n        /* \"#utility.yul\":3955:4236   */\n    tag_87:\n        /* \"#utility.yul\":4038:4065   */\n      tag_146\n        /* \"#utility.yul\":4060:4064   */\n      dup3\n        /* \"#utility.yul\":4038:4065   */\n      tag_85\n      jump\t// in\n    tag_146:\n        /* \"#utility.yul\":4030:4036   */\n      dup2\n        /* \"#utility.yul\":4026:4066   */\n      add\n        /* \"#utility.yul\":4168:4174   */\n      dup2\n        /* \"#utility.yul\":4156:4166   */\n      dup2\n        /* \"#utility.yul\":4153:4175   */\n      lt\n        /* \"#utility.yul\":4132:4150   */\n      0xffffffffffffffff\n        /* \"#utility.yul\":4120:4130   */\n      dup3\n        /* \"#utility.yul\":4117:4151   */\n      gt\n        /* \"#utility.yul\":4114:4176   */\n      or\n        /* \"#utility.yul\":4111:4199   */\n      iszero\n      tag_147\n      jumpi\n        /* \"#utility.yul\":4179:4197   */\n      tag_148\n      tag_86\n      jump\t// in\n    tag_148:\n        /* \"#utility.yul\":4111:4199   */\n    tag_147:\n        /* \"#utility.yul\":4219:4229   */\n      dup1\n        /* \"#utility.yul\":4215:4217   */\n      0x40\n        /* \"#utility.yul\":4208:4230   */\n      mstore\n        /* \"#utility.yul\":3998:4236   */\n      pop\n        /* \"#utility.yul\":3955:4236   */\n      pop\n      pop\n      jump\t// out\n        /* \"#utility.yul\":4242:4371   */\n    tag_88:\n        /* \"#utility.yul\":4276:4282   */\n      0x00\n        /* \"#utility.yul\":4303:4323   */\n      tag_150\n      tag_80\n      jump\t// in\n    tag_150:\n        /* \"#utility.yul\":4293:4323   */\n      swap1\n      pop\n        /* \"#utility.yul\":4332:4365   */\n      tag_151\n        /* \"#utility.yul\":4360:4364   */\n      dup3\n        /* \"#utility.yul\":4352:4358   */\n      dup3\n        /* \"#utility.yul\":4332:4365   */\n      tag_87\n      jump\t// in\n    tag_151:\n        /* \"#utility.yul\":4242:4371   */\n      swap2\n      swap1\n      pop\n      jump\t// out\n        /* \"#utility.yul\":4377:4685   */\n    tag_89:\n        /* \"#utility.yul\":4439:4443   */\n      0x00\n        /* \"#utility.yul\":4529:4547   */\n      0xffffffffffffffff\n        /* \"#utility.yul\":4521:4527   */\n      dup3\n        /* \"#utility.yul\":4518:4548   */\n      gt\n        /* \"#utility.yul\":4515:4571   */\n      iszero\n      tag_153\n      jumpi\n        /* \"#utility.yul\":4551:4569   */\n      tag_154\n      tag_86\n      jump\t// in\n    tag_154:\n        /* \"#utility.yul\":4515:4571   */\n    tag_153:\n        /* \"#utility.yul\":4589:4618   */\n      tag_155\n        /* \"#utility.yul\":4611:4617   */\n      dup3\n        /* \"#utility.yul\":4589:4618   */\n      tag_85\n      jump\t// in\n    tag_155:\n        /* \"#utility.yul\":4581:4618   */\n      swap1\n      pop\n        /* \"#utility.yul\":4673:4677   */\n      0x20\n        /* \"#utility.yul\":4667:4671   */\n      dup2\n        /* \"#utility.yul\":4663:4678   */\n      add\n        /* \"#utility.yul\":4655:4678   */\n      swap1\n      pop\n        /* \"#utility.yul\":4377:4685   */\n      swap2\n      swap1\n      pop\n      jump\t// out\n        /* \"#utility.yul\":4691:5116   */\n    tag_90:\n        /* \"#utility.yul\":4769:4774   */\n      0x00\n        /* \"#utility.yul\":4794:4860   */\n      tag_157\n        /* \"#utility.yul\":4810:4859   */\n      tag_158\n        /* \"#utility.yul\":4852:4858   */\n      dup5\n        /* \"#utility.yul\":4810:4859   */\n      tag_89\n      jump\t// in\n    tag_158:\n        /* \"#utility.yul\":4794:4860   */\n      tag_88\n      jump\t// in\n    tag_157:\n        /* \"#utility.yul\":4785:4860   */\n      swap1\n      pop\n        /* \"#utility.yul\":4883:4889   */\n      dup3\n        /* \"#utility.yul\":4876:4881   */\n      dup2\n        /* \"#utility.yul\":4869:4890   */\n      mstore\n        /* \"#utility.yul\":4921:4925   */\n      0x20\n        /* \"#utility.yul\":4914:4919   */\n      dup2\n        /* \"#utility.yul\":4910:4926   */\n      add\n        /* \"#utility.yul\":4959:4962   */\n      dup5\n        /* \"#utility.yul\":4950:4956   */\n      dup5\n        /* \"#utility.yul\":4945:4948   */\n      dup5\n        /* \"#utility.yul\":4941:4957   */\n      add\n        /* \"#utility.yul\":4938:4963   */\n      gt\n        /* \"#utility.yul\":4935:5047   */\n      iszero\n      tag_159\n      jumpi\n        /* \"#utility.yul\":4966:5045   */\n      tag_160\n      tag_84\n      jump\t// in\n    tag_160:\n        /* \"#utility.yul\":4935:5047   */\n    tag_159:\n        /* \"#utility.yul\":5056:5110   */\n      tag_161\n        /* \"#utility.yul\":5103:5109   */\n      dup5\n        /* \"#utility.yul\":5098:5101   */\n      dup3\n        /* \"#utility.yul\":5093:5096   */\n      dup6\n        /* \"#utility.yul\":5056:5110   */\n      tag_76\n      jump\t// in\n    tag_161:\n        /* \"#utility.yul\":4775:5116   */\n      pop\n        /* \"#utility.yul\":4691:5116   */\n      swap4\n      swap3\n      pop\n      pop\n      pop\n      jump\t// out\n        /* \"#utility.yul\":5136:5476   */\n    tag_91:\n        /* \"#utility.yul\":5192:5197   */\n      0x00\n        /* \"#utility.yul\":5241:5244   */\n      dup3\n        /* \"#utility.yul\":5234:5238   */\n      0x1f\n        /* \"#utility.yul\":5226:5232   */\n      dup4\n        /* \"#utility.yul\":5222:5239   */\n      add\n        /* \"#utility.yul\":5218:5245   */\n      slt\n        /* \"#utility.yul\":5208:5330   */\n      tag_163\n      jumpi\n        /* \"#utility.yul\":5249:5328   */\n      tag_164\n      tag_83\n      jump\t// in\n    tag_164:\n        /* \"#utility.yul\":5208:5330   */\n    tag_163:\n        /* \"#utility.yul\":5366:5372   */\n      dup2\n        /* \"#utility.yul\":5353:5373   */\n      calldataload\n        /* \"#utility.yul\":5391:5470   */\n      tag_165\n        /* \"#utility.yul\":5466:5469   */\n      dup5\n        /* \"#utility.yul\":5458:5464   */\n      dup3\n        /* \"#utility.yul\":5451:5455   */\n      0x20\n        /* \"#utility.yul\":5443:5449   */\n      dup7\n        /* \"#utility.yul\":5439:5456   */\n      add\n        /* \"#utility.yul\":5391:5470   */\n      tag_90\n      jump\t// in\n    tag_165:\n        /* \"#utility.yul\":5382:5470   */\n      swap2\n      pop\n        /* \"#utility.yul\":5198:5476   */\n      pop\n        /* \"#utility.yul\":5136:5476   */\n      swap3\n      swap2\n      pop\n      pop\n      jump\t// out\n        /* \"#utility.yul\":5482:5991   */\n    tag_27:\n        /* \"#utility.yul\":5551:5557   */\n      0x00\n        /* \"#utility.yul\":5600:5602   */\n      0x20\n        /* \"#utility.yul\":5588:5597   */\n      dup3\n        /* \"#utility.yul\":5579:5586   */\n      dup5\n        /* \"#utility.yul\":5575:5598   */\n      sub\n        /* \"#utility.yul\":5571:5603   */\n      slt\n        /* \"#utility.yul\":5568:5687   */\n      iszero\n      tag_167\n      jumpi\n        /* \"#utility.yul\":5606:5685   */\n      tag_168\n      tag_81\n      jump\t// in\n    tag_168:\n        /* \"#utility.yul\":5568:5687   */\n    tag_167:\n        /* \"#utility.yul\":5754:5755   */\n      0x00\n        /* \"#utility.yul\":5743:5752   */\n      dup3\n        /* \"#utility.yul\":5739:5756   */\n      add\n        /* \"#utility.yul\":5726:5757   */\n      calldataload\n        /* \"#utility.yul\":5784:5802   */\n      0xffffffffffffffff\n        /* \"#utility.yul\":5776:5782   */\n      dup2\n        /* \"#utility.yul\":5773:5803   */\n      gt\n        /* \"#utility.yul\":5770:5887   */\n      iszero\n      tag_169\n      jumpi\n        /* \"#utility.yul\":5806:5885   */\n      tag_170\n      tag_82\n      jump\t// in\n    tag_170:\n        /* \"#utility.yul\":5770:5887   */\n    tag_169:\n        /* \"#utility.yul\":5911:5974   */\n      tag_171\n        /* \"#utility.yul\":5966:5973   */\n      dup5\n        /* \"#utility.yul\":5957:5963   */\n      dup3\n        /* \"#utility.yul\":5946:5955   */\n      dup6\n        /* \"#utility.yul\":5942:5964   */\n      add\n        /* \"#utility.yul\":5911:5974   */\n      tag_91\n      jump\t// in\n    tag_171:\n        /* \"#utility.yul\":5901:5974   */\n      swap2\n      pop\n        /* \"#utility.yul\":5697:5984   */\n      pop\n        /* \"#utility.yul\":5482:5991   */\n      swap3\n      swap2\n      pop\n      pop\n      jump\t// out\n        /* \"#utility.yul\":5997:6096   */\n    tag_92:\n        /* \"#utility.yul\":6049:6055   */\n      0x00\n        /* \"#utility.yul\":6083:6088   */\n      dup2\n        /* \"#utility.yul\":6077:6089   */\n      mload\n        /* \"#utility.yul\":6067:6089   */\n      swap1\n      pop\n        /* \"#utility.yul\":5997:6096   */\n      swap2\n      swap1\n      pop\n      jump\t// out\n        /* \"#utility.yul\":6102:6241   */\n    tag_93:\n        /* \"#utility.yul\":6191:6197   */\n      dup3\n        /* \"#utility.yul\":6186:6189   */\n      dup2\n        /* \"#utility.yul\":6181:6184   */\n      dup4\n        /* \"#utility.yul\":6175:6198   */\n      mcopy\n        /* \"#utility.yul\":6232:6233   */\n      0x00\n        /* \"#utility.yul\":6223:6229   */\n      dup4\n        /* \"#utility.yul\":6218:6221   */\n      dup4\n        /* \"#utility.yul\":6214:6230   */\n      add\n        /* \"#utility.yul\":6207:6234   */\n      mstore\n        /* \"#utility.yul\":6102:6241   */\n      pop\n      pop\n      pop\n      jump\t// out\n        /* \"#utility.yul\":6247:6624   */\n    tag_94:\n        /* \"#utility.yul\":6335:6338   */\n      0x00\n        /* \"#utility.yul\":6363:6402   */\n      tag_175\n        /* \"#utility.yul\":6396:6401   */\n      dup3\n        /* \"#utility.yul\":6363:6402   */\n      tag_92\n      jump\t// in\n    tag_175:\n        /* \"#utility.yul\":6418:6489   */\n      tag_176\n        /* \"#utility.yul\":6482:6488   */\n      dup2\n        /* \"#utility.yul\":6477:6480   */\n      dup6\n        /* \"#utility.yul\":6418:6489   */\n      tag_72\n      jump\t// in\n    tag_176:\n        /* \"#utility.yul\":6411:6489   */\n      swap4\n      pop\n        /* \"#utility.yul\":6498:6563   */\n      tag_177\n        /* \"#utility.yul\":6556:6562   */\n      dup2\n        /* \"#utility.yul\":6551:6554   */\n      dup6\n        /* \"#utility.yul\":6544:6548   */\n      0x20\n        /* \"#utility.yul\":6537:6542   */\n      dup7\n        /* \"#utility.yul\":6533:6549   */\n      add\n        /* \"#utility.yul\":6498:6563   */\n      tag_93\n      jump\t// in\n    tag_177:\n        /* \"#utility.yul\":6588:6617   */\n      tag_178\n        /* \"#utility.yul\":6610:6616   */\n      dup2\n        /* \"#utility.yul\":6588:6617   */\n      tag_85\n      jump\t// in\n    tag_178:\n        /* \"#utility.yul\":6583:6586   */\n      dup5\n        /* \"#utility.yul\":6579:6618   */\n      add\n        /* \"#utility.yul\":6572:6618   */\n      swap2\n      pop\n        /* \"#utility.yul\":6339:6624   */\n      pop\n        /* \"#utility.yul\":6247:6624   */\n      swap3\n      swap2\n      pop\n      pop\n      jump\t// out\n        /* \"#utility.yul\":6630:6943   */\n    tag_33:\n        /* \"#utility.yul\":6743:6747   */\n      0x00\n        /* \"#utility.yul\":6781:6783   */\n      0x20\n        /* \"#utility.yul\":6770:6779   */\n      dup3\n        /* \"#utility.yul\":6766:6784   */\n      add\n        /* \"#utility.yul\":6758:6784   */\n      swap1\n      pop\n        /* \"#utility.yul\":6830:6839   */\n      dup2\n        /* \"#utility.yul\":6824:6828   */\n      dup2\n        /* \"#utility.yul\":6820:6840   */\n      sub\n        /* \"#utility.yul\":6816:6817   */\n      0x00\n        /* \"#utility.yul\":6805:6814   */\n      dup4\n        /* \"#utility.yul\":6801:6818   */\n      add\n        /* \"#utility.yul\":6794:6841   */\n      mstore\n        /* \"#utility.yul\":6858:6936   */\n      tag_180\n        /* \"#utility.yul\":6931:6935   */\n      dup2\n        /* \"#utility.yul\":6922:6928   */\n      dup5\n        /* \"#utility.yul\":6858:6936   */\n      tag_94\n      jump\t// in\n    tag_180:\n        /* \"#utility.yul\":6850:6936   */\n      swap1\n      pop\n        /* \"#utility.yul\":6630:6943   */\n      swap3\n      swap2\n      pop\n      pop\n      jump\t// out\n        /* \"#utility.yul\":6949:7075   */\n    tag_95:\n        /* \"#utility.yul\":6986:6993   */\n      0x00\n        /* \"#utility.yul\":7026:7068   */\n      0xffffffffffffffffffffffffffffffffffffffff\n        /* \"#utility.yul\":7019:7024   */\n      dup3\n        /* \"#utility.yul\":7015:7069   */\n      and\n        /* \"#utility.yul\":7004:7069   */\n      swap1\n      pop\n        /* \"#utility.yul\":6949:7075   */\n      swap2\n      swap1\n      pop\n      jump\t// out\n        /* \"#utility.yul\":7081:7177   */\n    tag_96:\n        /* \"#utility.yul\":7118:7125   */\n      0x00\n        /* \"#utility.yul\":7147:7171   */\n      tag_183\n        /* \"#utility.yul\":7165:7170   */\n      dup3\n        /* \"#utility.yul\":7147:7171   */\n      tag_95\n      jump\t// in\n    tag_183:\n        /* \"#utility.yul\":7136:7171   */\n      swap1\n      pop\n        /* \"#utility.yul\":7081:7177   */\n      swap2\n      swap1\n      pop\n      jump\t// out\n        /* \"#utility.yul\":7183:7301   */\n    tag_97:\n        /* \"#utility.yul\":7270:7294   */\n      tag_185\n        /* \"#utility.yul\":7288:7293   */\n      dup2\n        /* \"#utility.yul\":7270:7294   */\n      tag_96\n      jump\t// in\n    tag_185:\n        /* \"#utility.yul\":7265:7268   */\n      dup3\n        /* \"#utility.yul\":7258:7295   */\n      mstore\n        /* \"#utility.yul\":7183:7301   */\n      pop\n      pop\n      jump\t// out\n        /* \"#utility.yul\":7307:7529   */\n    tag_41:\n        /* \"#utility.yul\":7400:7404   */\n      0x00\n        /* \"#utility.yul\":7438:7440   */\n      0x20\n        /* \"#utility.yul\":7427:7436   */\n      dup3\n        /* \"#utility.yul\":7423:7441   */\n      add\n        /* \"#utility.yul\":7415:7441   */\n      swap1\n      pop\n        /* \"#utility.yul\":7451:7522   */\n      tag_187\n        /* \"#utility.yul\":7519:7520   */\n      0x00\n        /* \"#utility.yul\":7508:7517   */\n      dup4\n        /* \"#utility.yul\":7504:7521   */\n      add\n        /* \"#utility.yul\":7495:7501   */\n      dup5\n        /* \"#utility.yul\":7451:7522   */\n      tag_97\n      jump\t// in\n    tag_187:\n        /* \"#utility.yul\":7307:7529   */\n      swap3\n      swap2\n      pop\n      pop\n      jump\t// out\n        /* \"#utility.yul\":7535:7657   */\n    tag_98:\n        /* \"#utility.yul\":7608:7632   */\n      tag_189\n        /* \"#utility.yul\":7626:7631   */\n      dup2\n        /* \"#utility.yul\":7608:7632   */\n      tag_96\n      jump\t// in\n    tag_189:\n        /* \"#utility.yul\":7601:7606   */\n      dup2\n        /* \"#utility.yul\":7598:7633   */\n      eq\n        /* \"#utility.yul\":7588:7651   */\n      tag_190\n      jumpi\n        /* \"#utility.yul\":7647:7648   */\n      0x00\n        /* \"#utility.yul\":7644:7645   */\n      dup1\n        /* \"#utility.yul\":7637:7649   */\n      revert\n        /* \"#utility.yul\":7588:7651   */\n    tag_190:\n        /* \"#utility.yul\":7535:7657   */\n      pop\n      jump\t// out\n        /* \"#utility.yul\":7663:7802   */\n    tag_99:\n        /* \"#utility.yul\":7709:7714   */\n      0x00\n        /* \"#utility.yul\":7747:7753   */\n      dup2\n        /* \"#utility.yul\":7734:7754   */\n      calldataload\n        /* \"#utility.yul\":7725:7754   */\n      swap1\n      pop\n        /* \"#utility.yul\":7763:7796   */\n      tag_192\n        /* \"#utility.yul\":7790:7795   */\n      dup2\n        /* \"#utility.yul\":7763:7796   */\n      tag_98\n      jump\t// in\n    tag_192:\n        /* \"#utility.yul\":7663:7802   */\n      swap3\n      swap2\n      pop\n      pop\n      jump\t// out\n        /* \"#utility.yul\":7808:8137   */\n    tag_49:\n        /* \"#utility.yul\":7867:7873   */\n      0x00\n        /* \"#utility.yul\":7916:7918   */\n      0x20\n        /* \"#utility.yul\":7904:7913   */\n      dup3\n        /* \"#utility.yul\":7895:7902   */\n      dup5\n        /* \"#utility.yul\":7891:7914   */\n      sub\n        /* \"#utility.yul\":7887:7919   */\n      slt\n        /* \"#utility.yul\":7884:8003   */\n      iszero\n      tag_194\n      jumpi\n        /* \"#utility.yul\":7922:8001   */\n      tag_195\n      tag_81\n      jump\t// in\n    tag_195:\n        /* \"#utility.yul\":7884:8003   */\n    tag_194:\n        /* \"#utility.yul\":8042:8043   */\n      0x00\n        /* \"#utility.yul\":8067:8120   */\n      tag_196\n        /* \"#utility.yul\":8112:8119   */\n      dup5\n        /* \"#utility.yul\":8103:8109   */\n      dup3\n        /* \"#utility.yul\":8092:8101   */\n      dup6\n        /* \"#utility.yul\":8088:8110   */\n      add\n        /* \"#utility.yul\":8067:8120   */\n      tag_99\n      jump\t// in\n    tag_196:\n        /* \"#utility.yul\":8057:8120   */\n      swap2\n      pop\n        /* \"#utility.yul\":8013:8130   */\n      pop\n        /* \"#utility.yul\":7808:8137   */\n      swap3\n      swap2\n      pop\n      pop\n      jump\t// out\n        /* \"#utility.yul\":8143:8323   */\n    tag_100:\n        /* \"#utility.yul\":8191:8268   */\n      0x4e487b7100000000000000000000000000000000000000000000000000000000\n        /* \"#utility.yul\":8188:8189   */\n      0x00\n        /* \"#utility.yul\":8181:8269   */\n      mstore\n        /* \"#utility.yul\":8288:8292   */\n      0x22\n        /* \"#utility.yul\":8285:8286   */\n      0x04\n        /* \"#utility.yul\":8278:8293   */\n      mstore\n        /* \"#utility.yul\":8312:8316   */\n      0x24\n        /* \"#utility.yul\":8309:8310   */\n      0x00\n        /* \"#utility.yul\":8302:8317   */\n      revert\n        /* \"#utility.yul\":8329:8649   */\n    tag_56:\n        /* \"#utility.yul\":8373:8379   */\n      0x00\n        /* \"#utility.yul\":8410:8411   */\n      0x02\n        /* \"#utility.yul\":8404:8408   */\n      dup3\n        /* \"#utility.yul\":8400:8412   */\n      div\n        /* \"#utility.yul\":8390:8412   */\n      swap1\n      pop\n        /* \"#utility.yul\":8457:8458   */\n      0x01\n        /* \"#utility.yul\":8451:8455   */\n      dup3\n        /* \"#utility.yul\":8447:8459   */\n      and\n        /* \"#utility.yul\":8478:8496   */\n      dup1\n        /* \"#utility.yul\":8468:8549   */\n      tag_199\n      jumpi\n        /* \"#utility.yul\":8534:8538   */\n      0x7f\n        /* \"#utility.yul\":8526:8532   */\n      dup3\n        /* \"#utility.yul\":8522:8539   */\n      and\n        /* \"#utility.yul\":8512:8539   */\n      swap2\n      pop\n        /* \"#utility.yul\":8468:8549   */\n    tag_199:\n        /* \"#utility.yul\":8596:8598   */\n      0x20\n        /* \"#utility.yul\":8588:8594   */\n      dup3\n        /* \"#utility.yul\":8585:8599   */\n      lt\n        /* \"#utility.yul\":8565:8583   */\n      dup2\n        /* \"#utility.yul\":8562:8600   */\n      sub\n        /* \"#utility.yul\":8559:8643   */\n      tag_200\n      jumpi\n        /* \"#utility.yul\":8615:8633   */\n      tag_201\n      tag_100\n      jump\t// in\n    tag_201:\n        /* \"#utility.yul\":8559:8643   */\n    tag_200:\n        /* \"#utility.yul\":8380:8649   */\n      pop\n        /* \"#utility.yul\":8329:8649   */\n      swap2\n      swap1\n      pop\n      jump\t// out\n        /* \"#utility.yul\":8655:8796   */\n    tag_101:\n        /* \"#utility.yul\":8704:8708   */\n      0x00\n        /* \"#utility.yul\":8727:8730   */\n      dup2\n        /* \"#utility.yul\":8719:8730   */\n      swap1\n      pop\n        /* \"#utility.yul\":8750:8753   */\n      dup2\n        /* \"#utility.yul\":8747:8748   */\n      0x00\n        /* \"#utility.yul\":8740:8754   */\n      mstore\n        /* \"#utility.yul\":8784:8788   */\n      0x20\n        /* \"#utility.yul\":8781:8782   */\n      0x00\n        /* \"#utility.yul\":8771:8789   */\n      keccak256\n        /* \"#utility.yul\":8763:8789   */\n      swap1\n      pop\n        /* \"#utility.yul\":8655:8796   */\n      swap2\n      swap1\n      pop\n      jump\t// out\n        /* \"#utility.yul\":8802:8895   */\n    tag_102:\n        /* \"#utility.yul\":8839:8845   */\n      0x00\n        /* \"#utility.yul\":8886:8888   */\n      0x20\n        /* \"#utility.yul\":8881:8883   */\n      0x1f\n        /* \"#utility.yul\":8874:8879   */\n      dup4\n        /* \"#utility.yul\":8870:8884   */\n      add\n        /* \"#utility.yul\":8866:8889   */\n      div\n        /* \"#utility.yul\":8856:8889   */\n      swap1\n      pop\n        /* \"#utility.yul\":8802:8895   */\n      swap2\n      swap1\n      pop\n      jump\t// out\n        /* \"#utility.yul\":8901:9008   */\n    tag_103:\n        /* \"#utility.yul\":8945:8953   */\n      0x00\n        /* \"#utility.yul\":8995:9000   */\n      dup3\n        /* \"#utility.yul\":8989:8993   */\n      dup3\n        /* \"#utility.yul\":8985:9001   */\n      shl\n        /* \"#utility.yul\":8964:9001   */\n      swap1\n      pop\n        /* \"#utility.yul\":8901:9008   */\n      swap3\n      swap2\n      pop\n      pop\n      jump\t// out\n        /* \"#utility.yul\":9014:9407   */\n    tag_104:\n        /* \"#utility.yul\":9083:9089   */\n      0x00\n        /* \"#utility.yul\":9133:9134   */\n      0x08\n        /* \"#utility.yul\":9121:9131   */\n      dup4\n        /* \"#utility.yul\":9117:9135   */\n      mul\n        /* \"#utility.yul\":9156:9253   */\n      tag_206\n        /* \"#utility.yul\":9186:9252   */\n      0xffffffffffffffffffffffffffffffffffffffffffffffffffffffffffffffff\n        /* \"#utility.yul\":9175:9184   */\n      dup3\n        /* \"#utility.yul\":9156:9253   */\n      tag_103\n      jump\t// in\n    tag_206:\n        /* \"#utility.yul\":9274:9313   */\n      tag_207\n        /* \"#utility.yul\":9304:9312   */\n      dup7\n        /* \"#utility.yul\":9293:9302   */\n      dup4\n        /* \"#utility.yul\":9274:9313   */\n      tag_103\n      jump\t// in\n    tag_207:\n        /* \"#utility.yul\":9262:9313   */\n      swap6\n      pop\n        /* \"#utility.yul\":9346:9350   */\n      dup1\n        /* \"#utility.yul\":9342:9351   */\n      not\n        /* \"#utility.yul\":9335:9340   */\n      dup5\n        /* \"#utility.yul\":9331:9352   */\n      and\n        /* \"#utility.yul\":9322:9352   */\n      swap4\n      pop\n        /* \"#utility.yul\":9395:9399   */\n      dup1\n        /* \"#utility.yul\":9385:9393   */\n      dup7\n        /* \"#utility.yul\":9381:9400   */\n      and\n        /* \"#utility.yul\":9374:9379   */\n      dup5\n        /* \"#utility.yul\":9371:9401   */\n      or\n        /* \"#utility.yul\":9361:9401   */\n      swap3\n      pop\n        /* \"#utility.yul\":9090:9407   */\n      pop\n      pop\n        /* \"#utility.yul\":9014:9407   */\n      swap4\n      swap3\n      pop\n      pop\n      pop\n      jump\t// out\n        /* \"#utility.yul\":9413:9490   */\n    tag_105:\n        /* \"#utility.yul\":9450:9457   */\n      0x00\n        /* \"#utility.yul\":9479:9484   */\n      dup2\n        /* \"#utility.yul\":9468:9484   */\n      swap1\n      pop\n        /* \"#utility.yul\":9413:9490   */\n      swap2\n      swap1\n      pop\n      jump\t// out\n        /* \"#utility.yul\":9496:9556   */\n    tag_106:\n        /* \"#utility.yul\":9524:9527   */\n      0x00\n        /* \"#utility.yul\":9545:9550   */\n      dup2\n        /* \"#utility.yul\":9538:9550   */\n      swap1\n      pop\n        /* \"#utility.yul\":9496:9556   */\n      swap2\n      swap1\n      pop\n      jump\t// out\n        /* \"#utility.yul\":9562:9704   */\n    tag_107:\n        /* \"#utility.yul\":9612:9621   */\n      0x00\n        /* \"#utility.yul\":9645:9698   */\n      tag_211\n        /* \"#utility.yul\":9663:9697   */\n      tag_212\n        /* \"#utility.yul\":9672:9696   */\n      tag_213\n        /* \"#utility.yul\":9690:9695   */\n      dup5\n        /* \"#utility.yul\":9672:9696   */\n      tag_105\n      jump\t// in\n    tag_213:\n        /* \"#utility.yul\":9663:9697   */\n      tag_106\n      jump\t// in\n    tag_212:\n        /* \"#utility.yul\":9645:9698   */\n      tag_105\n      jump\t// in\n    tag_211:\n        /* \"#utility.yul\":9632:9698   */\n      swap1\n      pop\n        /* \"#utility.yul\":9562:9704   */\n      swap2\n      swap1\n      pop\n      jump\t// out\n        /* \"#utility.yul\":9710:9785   */\n    tag_108:\n        /* \"#utility.yul\":9753:9756   */\n      0x00\n        /* \"#utility.yul\":9774:9779   */\n      dup2\n        /* \"#utility.yul\":9767:9779   */\n      swap1\n      pop\n        /* \"#utility.yul\":9710:9785   */\n      swap2\n      swap1\n      pop\n      jump\t// out\n        /* \"#utility.yul\":9791:10060   */\n    tag_109:\n        /* \"#utility.yul\":9901:9940   */\n      tag_216\n        /* \"#utility.yul\":9932:9939   */\n      dup4\n        /* \"#utility.yul\":9901:9940   */\n      tag_107\n      jump\t// in\n    tag_216:\n        /* \"#utility.yul\":9962:10053   */\n      tag_217\n        /* \"#utility.yul\":10011:10052   */\n      tag_218\n        /* \"#utility.yul\":10035:10051   */\n      dup3\n        /* \"#utility.yul\":10011:10052   */\n      tag_108\n      jump\t// in\n    tag_218:\n        /* \"#utility.yul\":10003:10009   */\n      dup5\n        /* \"#utility.yul\":9996:10000   */\n      dup5\n        /* \"#utility.yul\":9990:10001   */\n      sload\n        /* \"#utility.yul\":9962:10053   */\n      tag_104\n      jump\t// in\n    tag_217:\n        /* \"#utility.yul\":9956:9960   */\n      dup3\n        /* \"#utility.yul\":9949:10054   */\n      sstore\n        /* \"#utility.yul\":9867:10060   */\n      pop\n        /* \"#utility.yul\":9791:10060   */\n      pop\n      pop\n      pop\n      jump\t// out\n        /* \"#utility.yul\":10066:10139   */\n    tag_110:\n        /* \"#utility.yul\":10111:10114   */\n      0x00\n        /* \"#utility.yul\":10066:10139   */\n      swap1\n      jump\t// out\n        /* \"#utility.yul\":10145:10334   */\n    tag_111:\n        /* \"#utility.yul\":10222:10254   */\n      tag_221\n      tag_110\n      jump\t// in\n    tag_221:\n        /* \"#utility.yul\":10263:10328   */\n      tag_222\n        /* \"#utility.yul\":10321:10327   */\n      dup2\n        /* \"#utility.yul\":10313:10319   */\n      dup5\n        /* \"#utility.yul\":10307:10311   */\n      dup5\n        /* \"#utility.yul\":10263:10328   */\n      tag_109\n      jump\t// in\n    tag_222:\n        /* \"#utility.yul\":10198:10334   */\n      pop\n        /* \"#utility.yul\":10145:10334   */\n      pop\n      pop\n      jump\t// out\n        /* \"#utility.yul\":10340:10526   */\n    tag_112:\n        /* \"#utility.yul\":10400:10520   */\n    tag_224:\n        /* \"#utility.yul\":10417:10420   */\n      dup2\n        /* \"#utility.yul\":10410:10415   */\n      dup2\n        /* \"#utility.yul\":10407:10421   */\n      lt\n        /* \"#utility.yul\":10400:10520   */\n      iszero\n      tag_226\n      jumpi\n        /* \"#utility.yul\":10471:10510   */\n      tag_227\n        /* \"#utility.yul\":10508:10509   */\n      0x00\n        /* \"#utility.yul\":10501:10506   */\n      dup3\n        /* \"#utility.yul\":10471:10510   */\n      tag_111\n      jump\t// in\n    tag_227:\n        /* \"#utility.yul\":10444:10445   */\n      0x01\n        /* \"#utility.yul\":10437:10442   */\n      dup2\n        /* \"#utility.yul\":10433:10446   */\n      add\n        /* \"#utility.yul\":10424:10446   */\n      swap1\n      pop\n        /* \"#utility.yul\":10400:10520   */\n      jump(tag_224)\n    tag_226:\n        /* \"#utility.yul\":10340:10526   */\n      pop\n      pop\n      jump\t// out\n        /* \"#utility.yul\":10532:11075   */\n    tag_113:\n        /* \"#utility.yul\":10633:10635   */\n      0x1f\n        /* \"#utility.yul\":10628:10631   */\n      dup3\n        /* \"#utility.yul\":10625:10636   */\n      gt\n        /* \"#utility.yul\":10622:11068   */\n      iszero\n      tag_229\n      jumpi\n        /* \"#utility.yul\":10667:10705   */\n      tag_230\n        /* \"#utility.yul\":10699:10704   */\n      dup2\n        /* \"#utility.yul\":10667:10705   */\n      tag_101\n      jump\t// in\n    tag_230:\n        /* \"#utility.yul\":10751:10780   */\n      tag_231\n        /* \"#utility.yul\":10769:10779   */\n      dup5\n        /* \"#utility.yul\":10751:10780   */\n      tag_102\n      jump\t// in\n    tag_231:\n        /* \"#utility.yul\":10741:10749   */\n      dup2\n        /* \"#utility.yul\":10737:10781   */\n      add\n        /* \"#utility.yul\":10934:10936   */\n      0x20\n        /* \"#utility.yul\":10922:10932   */\n      dup6\n        /* \"#utility.yul\":10919:10937   */\n      lt\n        /* \"#utility.yul\":10916:10965   */\n      iszero\n      tag_232\n      jumpi\n        /* \"#utility.yul\":10955:10963   */\n      dup2\n        /* \"#utility.yul\":10940:10963   */\n      swap1\n      pop\n        /* \"#utility.yul\":10916:10965   */\n    tag_232:\n        /* \"#utility.yul\":10978:11058   */\n      tag_233\n        /* \"#utility.yul\":11034:11056   */\n      tag_234\n        /* \"#utility.yul\":11052:11055   */\n      dup6\n        /* \"#utility.yul\":11034:11056   */\n      tag_102\n      jump\t// in\n    tag_234:\n        /* \"#utility.yul\":11024:11032   */\n      dup4\n        /* \"#utility.yul\":11020:11057   */\n      add\n        /* \"#utility.yul\":11007:11018   */\n      dup3\n        /* \"#utility.yul\":10978:11058   */\n      tag_112\n      jump\t// in\n    tag_233:\n        /* \"#utility.yul\":10637:11068   */\n      pop\n      pop\n        /* \"#utility.yul\":10622:11068   */\n    tag_229:\n        /* \"#utility.yul\":10532:11075   */\n      pop\n      pop\n      pop\n      jump\t// out\n        /* \"#utility.yul\":11081:11198   */\n    tag_114:\n        /* \"#utility.yul\":11135:11143   */\n      0x00\n        /* \"#utility.yul\":11185:11190   */\n      dup3\n        /* \"#utility.yul\":11179:11183   */\n      dup3\n        /* \"#utility.yul\":11175:11191   */\n      shr\n        /* \"#utility.yul\":11154:11191   */\n      swap1\n      pop\n        /* \"#utility.yul\":11081:11198   */\n      swap3\n      swap2\n      pop\n      pop\n      jump\t// out\n        /* \"#utility.yul\":11204:11373   */\n    tag_115:\n        /* \"#utility.yul\":11248:11254   */\n      0x00\n        /* \"#utility.yul\":11281:11332   */\n      tag_237\n        /* \"#utility.yul\":11329:11330   */\n      0x00\n        /* \"#utility.yul\":11325:11331   */\n      not\n        /* \"#utility.yul\":11317:11322   */\n      dup5\n        /* \"#utility.yul\":11314:11315   */\n      0x08\n        /* \"#utility.yul\":11310:11323   */\n      mul\n        /* \"#utility.yul\":11281:11332   */\n      tag_114\n      jump\t// in\n    tag_237:\n        /* \"#utility.yul\":11277:11333   */\n      not\n        /* \"#utility.yul\":11362:11366   */\n      dup1\n        /* \"#utility.yul\":11356:11360   */\n      dup4\n        /* \"#utility.yul\":11352:11367   */\n      and\n        /* \"#utility.yul\":11342:11367   */\n      swap2\n      pop\n        /* \"#utility.yul\":11255:11373   */\n      pop\n        /* \"#utility.yul\":11204:11373   */\n      swap3\n      swap2\n      pop\n      pop\n      jump\t// out\n        /* \"#utility.yul\":11378:11673   */\n    tag_116:\n        /* \"#utility.yul\":11454:11458   */\n      0x00\n        /* \"#utility.yul\":11600:11629   */\n      tag_239\n        /* \"#utility.yul\":11625:11628   */\n      dup4\n        /* \"#utility.yul\":11619:11623   */\n      dup4\n        /* \"#utility.yul\":11600:11629   */\n      tag_115\n      jump\t// in\n    tag_239:\n        /* \"#utility.yul\":11592:11629   */\n      swap2\n      pop\n        /* \"#utility.yul\":11662:11665   */\n      dup3\n        /* \"#utility.yul\":11659:11660   */\n      0x02\n        /* \"#utility.yul\":11655:11666   */\n      mul\n        /* \"#utility.yul\":11649:11653   */\n      dup3\n        /* \"#utility.yul\":11646:11667   */\n      or\n        /* \"#utility.yul\":11638:11667   */\n      swap1\n      pop\n        /* \"#utility.yul\":11378:11673   */\n      swap3\n      swap2\n      pop\n      pop\n      jump\t// out\n        /* \"#utility.yul\":11678:13073   */\n    tag_54:\n        /* \"#utility.yul\":11795:11832   */\n      tag_241\n        /* \"#utility.yul\":11828:11831   */\n      dup3\n        /* \"#utility.yul\":11795:11832   */\n      tag_92\n      jump\t// in\n    tag_241:\n        /* \"#utility.yul\":11897:11915   */\n      0xffffffffffffffff\n        /* \"#utility.yul\":11889:11895   */\n      dup2\n        /* \"#utility.yul\":11886:11916   */\n      gt\n        /* \"#utility.yul\":11883:11939   */\n      iszero\n      tag_242\n      jumpi\n        /* \"#utility.yul\":11919:11937   */\n      tag_243\n      tag_86\n      jump\t// in\n    tag_243:\n        /* \"#utility.yul\":11883:11939   */\n    tag_242:\n        /* \"#utility.yul\":11963:12001   */\n      tag_244\n        /* \"#utility.yul\":11995:11999   */\n      dup3\n        /* \"#utility.yul\":11989:12000   */\n      sload\n        /* \"#utility.yul\":11963:12001   */\n      tag_56\n      jump\t// in\n    tag_244:\n        /* \"#utility.yul\":12048:12115   */\n      tag_245\n        /* \"#utility.yul\":12108:12114   */\n      dup3\n        /* \"#utility.yul\":12100:12106   */\n      dup3\n        /* \"#utility.yul\":12094:12098   */\n      dup6\n        /* \"#utility.yul\":12048:12115   */\n      tag_113\n      jump\t// in\n    tag_245:\n        /* \"#utility.yul\":12142:12143   */\n      0x00\n        /* \"#utility.yul\":12166:12170   */\n      0x20\n        /* \"#utility.yul\":12153:12170   */\n      swap1\n      pop\n        /* \"#utility.yul\":12198:12200   */\n      0x1f\n        /* \"#utility.yul\":12190:12196   */\n      dup4\n        /* \"#utility.yul\":12187:12201   */\n      gt\n        /* \"#utility.yul\":12215:12216   */\n      0x01\n        /* \"#utility.yul\":12210:12828   */\n      dup2\n      eq\n      tag_247\n      jumpi\n        /* \"#utility.yul\":12872:12873   */\n      0x00\n        /* \"#utility.yul\":12889:12895   */\n      dup5\n        /* \"#utility.yul\":12886:12963   */\n      iszero\n      tag_248\n      jumpi\n        /* \"#utility.yul\":12938:12947   */\n      dup3\n        /* \"#utility.yul\":12933:12936   */\n      dup8\n        /* \"#utility.yul\":12929:12948   */\n      add\n        /* \"#utility.yul\":12923:12949   */\n      mload\n        /* \"#utility.yul\":12914:12949   */\n      swap1\n      pop\n        /* \"#utility.yul\":12886:12963   */\n    tag_248:\n        /* \"#utility.yul\":12989:13056   */\n      tag_249\n        /* \"#utility.yul\":13049:13055   */\n      dup6\n        /* \"#utility.yul\":13042:13047   */\n      dup3\n        /* \"#utility.yul\":12989:13056   */\n      tag_116\n      jump\t// in\n    tag_249:\n        /* \"#utility.yul\":12983:12987   */\n      dup7\n        /* \"#utility.yul\":12976:13057   */\n      sstore\n        /* \"#utility.yul\":12845:13067   */\n      pop\n        /* \"#utility.yul\":12180:13067   */\n      jump(tag_246)\n        /* \"#utility.yul\":12210:12828   */\n    tag_247:\n        /* \"#utility.yul\":12262:12266   */\n      0x1f\n        /* \"#utility.yul\":12258:12267   */\n      not\n        /* \"#utility.yul\":12250:12256   */\n      dup5\n        /* \"#utility.yul\":12246:12268   */\n      and\n        /* \"#utility.yul\":12296:12333   */\n      tag_250\n        /* \"#utility.yul\":12328:12332   */\n      dup7\n        /* \"#utility.yul\":12296:12333   */\n      tag_101\n      jump\t// in\n    tag_250:\n        /* \"#utility.yul\":12355:12356   */\n      0x00\n        /* \"#utility.yul\":12369:12577   */\n    tag_251:\n        /* \"#utility.yul\":12383:12390   */\n      dup3\n        /* \"#utility.yul\":12380:12381   */\n      dup2\n        /* \"#utility.yul\":12377:12391   */\n      lt\n        /* \"#utility.yul\":12369:12577   */\n      iszero\n      tag_253\n      jumpi\n        /* \"#utility.yul\":12462:12471   */\n      dup5\n        /* \"#utility.yul\":12457:12460   */\n      dup10\n        /* \"#utility.yul\":12453:12472   */\n      add\n        /* \"#utility.yul\":12447:12473   */\n      mload\n        /* \"#utility.yul\":12439:12445   */\n      dup3\n        /* \"#utility.yul\":12432:12474   */\n      sstore\n        /* \"#utility.yul\":12513:12514   */\n      0x01\n        /* \"#utility.yul\":12505:12511   */\n      dup3\n        /* \"#utility.yul\":12501:12515   */\n      add\n        /* \"#utility.yul\":12491:12515   */\n      swap2\n      pop\n        /* \"#utility.yul\":12560:12562   */\n      0x20\n        /* \"#utility.yul\":12549:12558   */\n      dup6\n        /* \"#utility.yul\":12545:12563   */\n      add\n        /* \"#utility.yul\":12532:12563   */\n      swap5\n      pop\n        /* \"#utility.yul\":12406:12410   */\n      0x20\n        /* \"#utility.yul\":12403:12404   */\n      dup2\n        /* \"#utility.yul\":12399:12411   */\n      add\n        /* \"#utility.yul\":12394:12411   */\n      swap1\n      pop\n        /* \"#utility.yul\":12369:12577   */\n      jump(tag_251)\n    tag_253:\n        /* \"#utility.yul\":12605:12611   */\n      dup7\n        /* \"#utility.yul\":12596:12603   */\n      dup4\n        /* \"#utility.yul\":12593:12612   */\n      lt\n        /* \"#utility.yul\":12590:12769   */\n      iszero\n      tag_254\n      jumpi\n        /* \"#utility.yul\":12663:12672   */\n      dup5\n        /* \"#utility.yul\":12658:12661   */\n      dup10\n        /* \"#utility.yul\":12654:12673   */\n      add\n        /* \"#utility.yul\":12648:12674   */\n      mload\n        /* \"#utility.yul\":12706:12754   */\n      tag_255\n        /* \"#utility.yul\":12748:12752   */\n      0x1f\n        /* \"#utility.yul\":12740:12746   */\n      dup10\n        /* \"#utility.yul\":12736:12753   */\n      and\n        /* \"#utility.yul\":12725:12734   */\n      dup3\n        /* \"#utility.yul\":12706:12754   */\n      tag_115\n      jump\t// in\n    tag_255:\n        /* \"#utility.yul\":12698:12704   */\n      dup4\n        /* \"#utility.yul\":12691:12755   */\n      sstore\n        /* \"#utility.yul\":12613:12769   */\n      pop\n        /* \"#utility.yul\":12590:12769   */\n    tag_254:\n        /* \"#utility.yul\":12815:12816   */\n      0x01\n        /* \"#utility.yul\":12811:12812   */\n      0x02\n        /* \"#utility.yul\":12803:12809   */\n      dup9\n        /* \"#utility.yul\":12799:12813   */\n      mul\n        /* \"#utility.yul\":12795:12817   */\n      add\n        /* \"#utility.yul\":12789:12793   */\n      dup9\n        /* \"#utility.yul\":12782:12818   */\n      sstore\n        /* \"#utility.yul\":12217:12828   */\n      pop\n      pop\n      pop\n        /* \"#utility.yul\":12180:13067   */\n    tag_246:\n      pop\n        /* \"#utility.yul\":11770:13073   */\n      pop\n      pop\n      pop\n        /* \"#utility.yul\":11678:13073   */\n      pop\n      pop\n      jump\t// out\n\n    auxdata: 0xa264697066735822122076ccee40b582aa15def8c3f248243aa8aad80fa203658321b9740c78421feee864736f6c63430008190033\n}\n",
				"bytecode": {
					"linkReferences": {},
					"object": "60806040526040518060400160405280601381526020017f737472696e672076616c7565206f6620412031000000000000000000000000008152505f9081610047919061031d565b506040518060400160405280601381526020017f737472696e672076616c7565206f6620412032000000000000000000000000008152506001908161008c919061031d565b506040518060400160405280601381526020017f737472696e672076616c7565206f662041203300000000000000000000000000815250600290816100d1919061031d565b503480156100dd575f80fd5b506103ec565b5f81519050919050565b7f4e487b71000000000000000000000000000000000000000000000000000000005f52604160045260245ffd5b7f4e487b71000000000000000000000000000000000000000000000000000000005f52602260045260245ffd5b5f600282049050600182168061015e57607f821691505b6020821081036101715761017061011a565b5b50919050565b5f819050815f5260205f209050919050565b5f6020601f8301049050919050565b5f82821b905092915050565b5f600883026101d37fffffffffffffffffffffffffffffffffffffffffffffffffffffffffffffffff82610198565b6101dd8683610198565b95508019841693508086168417925050509392505050565b5f819050919050565b5f819050919050565b5f61022161021c610217846101f5565b6101fe565b6101f5565b9050919050565b5f819050919050565b61023a83610207565b61024e61024682610228565b8484546101a4565b825550505050565b5f90565b610262610256565b61026d818484610231565b505050565b5b81811015610290576102855f8261025a565b600181019050610273565b5050565b601f8211156102d5576102a681610177565b6102af84610189565b810160208510156102be578190505b6102d26102ca85610189565b830182610272565b50505b505050565b5f82821c905092915050565b5f6102f55f19846008026102da565b1980831691505092915050565b5f61030d83836102e6565b9150826002028217905092915050565b610326826100e3565b67ffffffffffffffff81111561033f5761033e6100ed565b5b6103498254610147565b610354828285610294565b5f60209050601f831160018114610385575f8415610373578287015190505b61037d8582610302565b8655506103e4565b601f19841661039386610177565b5f5b828110156103ba57848901518255600182019150602085019450602081019050610395565b868310156103d757848901516103d3601f8916826102e6565b8355505b6001600288020188555050505b505050505050565b610b79806103f95f395ff3fe608060405260043610610058575f3560e01c80631f429731146101955780632db88051146101bd57806352960cab146101e7578063aaf10f4214610211578063b85a2a041461023b578063d784d4261461026557610059565b5b5f3660605f61006661028d565b90505f73ffffffffffffffffffffffffffffffffffffffff168173ffffffffffffffffffffffffffffffffffffffff16036100d6576040517f08c379a00000000000000000000000000000000000000000000000000000000081526004016100cd906104f4565b60405180910390fd5b5f808273ffffffffffffffffffffffffffffffffffffffff1634878760405161010092919061054e565b5f6040518083038185875af1925050503d805f811461013a576040519150601f19603f3d011682016040523d82523d5f602084013e61013f565b606091505b509150915081610184576040517f08c379a000000000000000000000000000000000000000000000000000000000815260040161017b906105b0565b60405180910390fd5b809350505050915050805190602001f35b3480156101a0575f80fd5b506101bb60048036038101906101b6919061070d565b6102ba565b005b3480156101c8575f80fd5b506101d16102cc565b6040516101de91906107a4565b60405180910390f35b3480156101f2575f80fd5b506101fb610358565b60405161020891906107a4565b60405180910390f35b34801561021c575f80fd5b5061022561028d565b6040516102329190610803565b60405180910390f35b348015610246575f80fd5b5061024f6103e3565b60405161025c91906107a4565b60405180910390f35b348015610270575f80fd5b5061028b60048036038101906102869190610846565b61046f565b005b5f807f2d64715730a5adb8734b2b84045c82cbeba1c79b838ef4b59c5959d0ecf9e2699050805491505090565b805f90816102c89190610a74565b5050565b600180546102d99061089e565b80601f01602080910402602001604051908101604052809291908181526020018280546103059061089e565b80156103505780601f1061032757610100808354040283529160200191610350565b820191905f5260205f20905b81548152906001019060200180831161033357829003601f168201915b505050505081565b5f80546103649061089e565b80601f01602080910402602001604051908101604052809291908181526020018280546103909061089e565b80156103db5780601f106103b2576101008083540402835291602001916103db565b820191905f5260205f20905b8154815290600101906020018083116103be57829003601f168201915b505050505081565b600280546103f09061089e565b80601f016020809104026020016040519081016040528092919081815260200182805461041c9061089e565b80156104675780601f1061043e57610100808354040283529160200191610467565b820191905f5260205f20905b81548152906001019060200180831161044a57829003601f168201915b505050505081565b5f7f2d64715730a5adb8734b2b84045c82cbeba1c79b838ef4b59c5959d0ecf9e26990508181555050565b5f82825260208201905092915050565b7f4552524f525f494d504c454d454e544154494f4e5f4e4f545f464f554e4400005f82015250565b5f6104de601e8361049a565b91506104e9826104aa565b602082019050919050565b5f6020820190508181035f83015261050b816104d2565b9050919050565b5f81905092915050565b828183375f83830152505050565b5f6105358385610512565b935061054283858461051c565b82840190509392505050565b5f61055a82848661052a565b91508190509392505050565b7f63616c6c206661696c65640000000000000000000000000000000000000000005f82015250565b5f61059a600b8361049a565b91506105a582610566565b602082019050919050565b5f6020820190508181035f8301526105c78161058e565b9050919050565b5f604051905090565b5f80fd5b5f80fd5b5f80fd5b5f80fd5b5f601f19601f8301169050919050565b7f4e487b71000000000000000000000000000000000000000000000000000000005f52604160045260245ffd5b61062d826105e7565b810181811067ffffffffffffffff8211171561064c5761064b6105f7565b5b80604052505050565b5f61065e6105ce565b905061066a8282610624565b919050565b5f67ffffffffffffffff821115610689576106886105f7565b5b610692826105e7565b9050602081019050919050565b5f6106b16106ac8461066f565b610655565b9050828152602081018484840111156106cd576106cc6105e3565b5b6106d884828561051c565b509392505050565b5f82601f8301126106f4576106f36105df565b5b813561070484826020860161069f565b91505092915050565b5f60208284031215610722576107216105d7565b5b5f82013567ffffffffffffffff81111561073f5761073e6105db565b5b61074b848285016106e0565b91505092915050565b5f81519050919050565b8281835e5f83830152505050565b5f61077682610754565b610780818561049a565b935061079081856020860161075e565b610799816105e7565b840191505092915050565b5f6020820190508181035f8301526107bc818461076c565b905092915050565b5f73ffffffffffffffffffffffffffffffffffffffff82169050919050565b5f6107ed826107c4565b9050919050565b6107fd816107e3565b82525050565b5f6020820190506108165f8301846107f4565b92915050565b610825816107e3565b811461082f575f80fd5b50565b5f813590506108408161081c565b92915050565b5f6020828403121561085b5761085a6105d7565b5b5f61086884828501610832565b91505092915050565b7f4e487b71000000000000000000000000000000000000000000000000000000005f52602260045260245ffd5b5f60028204905060018216806108b557607f821691505b6020821081036108c8576108c7610871565b5b50919050565b5f819050815f5260205f209050919050565b5f6020601f8301049050919050565b5f82821b905092915050565b5f6008830261092a7fffffffffffffffffffffffffffffffffffffffffffffffffffffffffffffffff826108ef565b61093486836108ef565b95508019841693508086168417925050509392505050565b5f819050919050565b5f819050919050565b5f61097861097361096e8461094c565b610955565b61094c565b9050919050565b5f819050919050565b6109918361095e565b6109a561099d8261097f565b8484546108fb565b825550505050565b5f90565b6109b96109ad565b6109c4818484610988565b505050565b5b818110156109e7576109dc5f826109b1565b6001810190506109ca565b5050565b601f821115610a2c576109fd816108ce565b610a06846108e0565b81016020851015610a15578190505b610a29610a21856108e0565b8301826109c9565b50505b505050565b5f82821c905092915050565b5f610a4c5f1984600802610a31565b1980831691505092915050565b5f610a648383610a3d565b9150826002028217905092915050565b610a7d82610754565b67ffffffffffffffff811115610a9657610a956105f7565b5b610aa0825461089e565b610aab8282856109eb565b5f60209050601f831160018114610adc575f8415610aca578287015190505b610ad48582610a59565b865550610b3b565b601f198416610aea866108ce565b5f5b82811015610b1157848901518255600182019150602085019450602081019050610aec565b86831015610b2e5784890151610b2a601f891682610a3d565b8355505b6001600288020188555050505b50505050505056fea264697066735822122076ccee40b582aa15def8c3f248243aa8aad80fa203658321b9740c78421feee864736f6c63430008190033",
					"opcodes": "PUSH1 0x80 PUSH1 0x40 MSTORE PUSH1 0x40 MLOAD DUP1 PUSH1 0x40 ADD PUSH1 0x40 MSTORE DUP1 PUSH1 0x13 DUP2 MSTORE PUSH1 0x20 ADD PUSH32 0x737472696E672076616C7565206F662041203100000000000000000000000000 DUP2 MSTORE POP PUSH0 SWAP1 DUP2 PUSH2 0x47 SWAP2 SWAP1 PUSH2 0x31D JUMP JUMPDEST POP PUSH1 0x40 MLOAD DUP1 PUSH1 0x40 ADD PUSH1 0x40 MSTORE DUP1 PUSH1 0x13 DUP2 MSTORE PUSH1 0x20 ADD PUSH32 0x737472696E672076616C7565206F662041203200000000000000000000000000 DUP2 MSTORE POP PUSH1 0x1 SWAP1 DUP2 PUSH2 0x8C SWAP2 SWAP1 PUSH2 0x31D JUMP JUMPDEST POP PUSH1 0x40 MLOAD DUP1 PUSH1 0x40 ADD PUSH1 0x40 MSTORE DUP1 PUSH1 0x13 DUP2 MSTORE PUSH1 0x20 ADD PUSH32 0x737472696E672076616C7565206F662041203300000000000000000000000000 DUP2 MSTORE POP PUSH1 0x2 SWAP1 DUP2 PUSH2 0xD1 SWAP2 SWAP1 PUSH2 0x31D JUMP JUMPDEST POP CALLVALUE DUP1 ISZERO PUSH2 0xDD JUMPI PUSH0 DUP1 REVERT JUMPDEST POP PUSH2 0x3EC JUMP JUMPDEST PUSH0 DUP2 MLOAD SWAP1 POP SWAP2 SWAP1 POP JUMP JUMPDEST PUSH32 0x4E487B7100000000000000000000000000000000000000000000000000000000 PUSH0 MSTORE PUSH1 0x41 PUSH1 0x4 MSTORE PUSH1 0x24 PUSH0 REVERT JUMPDEST PUSH32 0x4E487B7100000000000000000000000000000000000000000000000000000000 PUSH0 MSTORE PUSH1 0x22 PUSH1 0x4 MSTORE PUSH1 0x24 PUSH0 REVERT JUMPDEST PUSH0 PUSH1 0x2 DUP3 DIV SWAP1 POP PUSH1 0x1 DUP3 AND DUP1 PUSH2 0x15E JUMPI PUSH1 0x7F DUP3 AND SWAP2 POP JUMPDEST PUSH1 0x20 DUP3 LT DUP2 SUB PUSH2 0x171 JUMPI PUSH2 0x170 PUSH2 0x11A JUMP JUMPDEST JUMPDEST POP SWAP2 SWAP1 POP JUMP JUMPDEST PUSH0 DUP2 SWAP1 POP DUP2 PUSH0 MSTORE PUSH1 0x20 PUSH0 KECCAK256 SWAP1 POP SWAP2 SWAP1 POP JUMP JUMPDEST PUSH0 PUSH1 0x20 PUSH1 0x1F DUP4 ADD DIV SWAP1 POP SWAP2 SWAP1 POP JUMP JUMPDEST PUSH0 DUP3 DUP3 SHL SWAP1 POP SWAP3 SWAP2 POP POP JUMP JUMPDEST PUSH0 PUSH1 0x8 DUP4 MUL PUSH2 0x1D3 PUSH32 0xFFFFFFFFFFFFFFFFFFFFFFFFFFFFFFFFFFFFFFFFFFFFFFFFFFFFFFFFFFFFFFFF DUP3 PUSH2 0x198 JUMP JUMPDEST PUSH2 0x1DD DUP7 DUP4 PUSH2 0x198 JUMP JUMPDEST SWAP6 POP DUP1 NOT DUP5 AND SWAP4 POP DUP1 DUP7 AND DUP5 OR SWAP3 POP POP POP SWAP4 SWAP3 POP POP POP JUMP JUMPDEST PUSH0 DUP2 SWAP1 POP SWAP2 SWAP1 POP JUMP JUMPDEST PUSH0 DUP2 SWAP1 POP SWAP2 SWAP1 POP JUMP JUMPDEST PUSH0 PUSH2 0x221 PUSH2 0x21C PUSH2 0x217 DUP5 PUSH2 0x1F5 JUMP JUMPDEST PUSH2 0x1FE JUMP JUMPDEST PUSH2 0x1F5 JUMP JUMPDEST SWAP1 POP SWAP2 SWAP1 POP JUMP JUMPDEST PUSH0 DUP2 SWAP1 POP SWAP2 SWAP1 POP JUMP JUMPDEST PUSH2 0x23A DUP4 PUSH2 0x207 JUMP JUMPDEST PUSH2 0x24E PUSH2 0x246 DUP3 PUSH2 0x228 JUMP JUMPDEST DUP5 DUP5 SLOAD PUSH2 0x1A4 JUMP JUMPDEST DUP3 SSTORE POP POP POP POP JUMP JUMPDEST PUSH0 SWAP1 JUMP JUMPDEST PUSH2 0x262 PUSH2 0x256 JUMP JUMPDEST PUSH2 0x26D DUP2 DUP5 DUP5 PUSH2 0x231 JUMP JUMPDEST POP POP POP JUMP JUMPDEST JUMPDEST DUP2 DUP2 LT ISZERO PUSH2 0x290 JUMPI PUSH2 0x285 PUSH0 DUP3 PUSH2 0x25A JUMP JUMPDEST PUSH1 0x1 DUP2 ADD SWAP1 POP PUSH2 0x273 JUMP JUMPDEST POP POP JUMP JUMPDEST PUSH1 0x1F DUP3 GT ISZERO PUSH2 0x2D5 JUMPI PUSH2 0x2A6 DUP2 PUSH2 0x177 JUMP JUMPDEST PUSH2 0x2AF DUP5 PUSH2 0x189 JUMP JUMPDEST DUP2 ADD PUSH1 0x20 DUP6 LT ISZERO PUSH2 0x2BE JUMPI DUP2 SWAP1 POP JUMPDEST PUSH2 0x2D2 PUSH2 0x2CA DUP6 PUSH2 0x189 JUMP JUMPDEST DUP4 ADD DUP3 PUSH2 0x272 JUMP JUMPDEST POP POP JUMPDEST POP POP POP JUMP JUMPDEST PUSH0 DUP3 DUP3 SHR SWAP1 POP SWAP3 SWAP2 POP POP JUMP JUMPDEST PUSH0 PUSH2 0x2F5 PUSH0 NOT DUP5 PUSH1 0x8 MUL PUSH2 0x2DA JUMP JUMPDEST NOT DUP1 DUP4 AND SWAP2 POP POP SWAP3 SWAP2 POP POP JUMP JUMPDEST PUSH0 PUSH2 0x30D DUP4 DUP4 PUSH2 0x2E6 JUMP JUMPDEST SWAP2 POP DUP3 PUSH1 0x2 MUL DUP3 OR SWAP1 POP SWAP3 SWAP2 POP POP JUMP JUMPDEST PUSH2 0x326 DUP3 PUSH2 0xE3 JUMP JUMPDEST PUSH8 0xFFFFFFFFFFFFFFFF DUP2 GT ISZERO PUSH2 0x33F JUMPI PUSH2 0x33E PUSH2 0xED JUMP JUMPDEST JUMPDEST PUSH2 0x349 DUP3 SLOAD PUSH2 0x147 JUMP JUMPDEST PUSH2 0x354 DUP3 DUP3 DUP6 PUSH2 0x294 JUMP JUMPDEST PUSH0 PUSH1 0x20 SWAP1 POP PUSH1 0x1F DUP4 GT PUSH1 0x1 DUP2 EQ PUSH2 0x385 JUMPI PUSH0 DUP5 ISZERO PUSH2 0x373 JUMPI DUP3 DUP8 ADD MLOAD SWAP1 POP JUMPDEST PUSH2 0x37D DUP6 DUP3 PUSH2 0x302 JUMP JUMPDEST DUP7 SSTORE POP PUSH2 0x3E4 JUMP JUMPDEST PUSH1 0x1F NOT DUP5 AND PUSH2 0x393 DUP7 PUSH2 0x177 JUMP JUMPDEST PUSH0 JUMPDEST DUP3 DUP2 LT ISZERO PUSH2 0x3BA JUMPI DUP5 DUP10 ADD MLOAD DUP3 SSTORE PUSH1 0x1 DUP3 ADD SWAP2 POP PUSH1 0x20 DUP6 ADD SWAP5 POP PUSH1 0x20 DUP2 ADD SWAP1 POP PUSH2 0x395 JUMP JUMPDEST DUP7 DUP4 LT ISZERO PUSH2 0x3D7 JUMPI DUP5 DUP10 ADD MLOAD PUSH2 0x3D3 PUSH1 0x1F DUP10 AND DUP3 PUSH2 0x2E6 JUMP JUMPDEST DUP4 SSTORE POP JUMPDEST PUSH1 0x1 PUSH1 0x2 DUP9 MUL ADD DUP9 SSTORE POP POP POP JUMPDEST POP POP POP POP POP POP JUMP JUMPDEST PUSH2 0xB79 DUP1 PUSH2 0x3F9 PUSH0 CODECOPY PUSH0 RETURN INVALID PUSH1 0x80 PUSH1 0x40 MSTORE PUSH1 0x4 CALLDATASIZE LT PUSH2 0x58 JUMPI PUSH0 CALLDATALOAD PUSH1 0xE0 SHR DUP1 PUSH4 0x1F429731 EQ PUSH2 0x195 JUMPI DUP1 PUSH4 0x2DB88051 EQ PUSH2 0x1BD JUMPI DUP1 PUSH4 0x52960CAB EQ PUSH2 0x1E7 JUMPI DUP1 PUSH4 0xAAF10F42 EQ PUSH2 0x211 JUMPI DUP1 PUSH4 0xB85A2A04 EQ PUSH2 0x23B JUMPI DUP1 PUSH4 0xD784D426 EQ PUSH2 0x265 JUMPI PUSH2 0x59 JUMP JUMPDEST JUMPDEST PUSH0 CALLDATASIZE PUSH1 0x60 PUSH0 PUSH2 0x66 PUSH2 0x28D JUMP JUMPDEST SWAP1 POP PUSH0 PUSH20 0xFFFFFFFFFFFFFFFFFFFFFFFFFFFFFFFFFFFFFFFF AND DUP2 PUSH20 0xFFFFFFFFFFFFFFFFFFFFFFFFFFFFFFFFFFFFFFFF AND SUB PUSH2 0xD6 JUMPI PUSH1 0x40 MLOAD PUSH32 0x8C379A000000000000000000000000000000000000000000000000000000000 DUP2 MSTORE PUSH1 0x4 ADD PUSH2 0xCD SWAP1 PUSH2 0x4F4 JUMP JUMPDEST PUSH1 0x40 MLOAD DUP1 SWAP2 SUB SWAP1 REVERT JUMPDEST PUSH0 DUP1 DUP3 PUSH20 0xFFFFFFFFFFFFFFFFFFFFFFFFFFFFFFFFFFFFFFFF AND CALLVALUE DUP8 DUP8 PUSH1 0x40 MLOAD PUSH2 0x100 SWAP3 SWAP2 SWAP1 PUSH2 0x54E JUMP JUMPDEST PUSH0 PUSH1 0x40 MLOAD DUP1 DUP4 SUB DUP2 DUP6 DUP8 GAS CALL SWAP3 POP POP POP RETURNDATASIZE DUP1 PUSH0 DUP2 EQ PUSH2 0x13A JUMPI PUSH1 0x40 MLOAD SWAP2 POP PUSH1 0x1F NOT PUSH1 0x3F RETURNDATASIZE ADD AND DUP3 ADD PUSH1 0x40 MSTORE RETURNDATASIZE DUP3 MSTORE RETURNDATASIZE PUSH0 PUSH1 0x20 DUP5 ADD RETURNDATACOPY PUSH2 0x13F JUMP JUMPDEST PUSH1 0x60 SWAP2 POP JUMPDEST POP SWAP2 POP SWAP2 POP DUP2 PUSH2 0x184 JUMPI PUSH1 0x40 MLOAD PUSH32 0x8C379A000000000000000000000000000000000000000000000000000000000 DUP2 MSTORE PUSH1 0x4 ADD PUSH2 0x17B SWAP1 PUSH2 0x5B0 JUMP JUMPDEST PUSH1 0x40 MLOAD DUP1 SWAP2 SUB SWAP1 REVERT JUMPDEST DUP1 SWAP4 POP POP POP POP SWAP2 POP POP DUP1 MLOAD SWAP1 PUSH1 0x20 ADD RETURN JUMPDEST CALLVALUE DUP1 ISZERO PUSH2 0x1A0 JUMPI PUSH0 DUP1 REVERT JUMPDEST POP PUSH2 0x1BB PUSH1 0x4 DUP1 CALLDATASIZE SUB DUP2 ADD SWAP1 PUSH2 0x1B6 SWAP2 SWAP1 PUSH2 0x70D JUMP JUMPDEST PUSH2 0x2BA JUMP JUMPDEST STOP JUMPDEST CALLVALUE DUP1 ISZERO PUSH2 0x1C8 JUMPI PUSH0 DUP1 REVERT JUMPDEST POP PUSH2 0x1D1 PUSH2 0x2CC JUMP JUMPDEST PUSH1 0x40 MLOAD PUSH2 0x1DE SWAP2 SWAP1 PUSH2 0x7A4 JUMP JUMPDEST PUSH1 0x40 MLOAD DUP1 SWAP2 SUB SWAP1 RETURN JUMPDEST CALLVALUE DUP1 ISZERO PUSH2 0x1F2 JUMPI PUSH0 DUP1 REVERT JUMPDEST POP PUSH2 0x1FB PUSH2 0x358 JUMP JUMPDEST PUSH1 0x40 MLOAD PUSH2 0x208 SWAP2 SWAP1 PUSH2 0x7A4 JUMP JUMPDEST PUSH1 0x40 MLOAD DUP1 SWAP2 SUB SWAP1 RETURN JUMPDEST CALLVALUE DUP1 ISZERO PUSH2 0x21C JUMPI PUSH0 DUP1 REVERT JUMPDEST POP PUSH2 0x225 PUSH2 0x28D JUMP JUMPDEST PUSH1 0x40 MLOAD PUSH2 0x232 SWAP2 SWAP1 PUSH2 0x803 JUMP JUMPDEST PUSH1 0x40 MLOAD DUP1 SWAP2 SUB SWAP1 RETURN JUMPDEST CALLVALUE DUP1 ISZERO PUSH2 0x246 JUMPI PUSH0 DUP1 REVERT JUMPDEST POP PUSH2 0x24F PUSH2 0x3E3 JUMP JUMPDEST PUSH1 0x40 MLOAD PUSH2 0x25C SWAP2 SWAP1 PUSH2 0x7A4 JUMP JUMPDEST PUSH1 0x40 MLOAD DUP1 SWAP2 SUB SWAP1 RETURN JUMPDEST CALLVALUE DUP1 ISZERO PUSH2 0x270 JUMPI PUSH0 DUP1 REVERT JUMPDEST POP PUSH2 0x28B PUSH1 0x4 DUP1 CALLDATASIZE SUB DUP2 ADD SWAP1 PUSH2 0x286 SWAP2 SWAP1 PUSH2 0x846 JUMP JUMPDEST PUSH2 0x46F JUMP JUMPDEST STOP JUMPDEST PUSH0 DUP1 PUSH32 0x2D64715730A5ADB8734B2B84045C82CBEBA1C79B838EF4B59C5959D0ECF9E269 SWAP1 POP DUP1 SLOAD SWAP2 POP POP SWAP1 JUMP JUMPDEST DUP1 PUSH0 SWAP1 DUP2 PUSH2 0x2C8 SWAP2 SWAP1 PUSH2 0xA74 JUMP JUMPDEST POP POP JUMP JUMPDEST PUSH1 0x1 DUP1 SLOAD PUSH2 0x2D9 SWAP1 PUSH2 0x89E JUMP JUMPDEST DUP1 PUSH1 0x1F ADD PUSH1 0x20 DUP1 SWAP2 DIV MUL PUSH1 0x20 ADD PUSH1 0x40 MLOAD SWAP1 DUP2 ADD PUSH1 0x40 MSTORE DUP1 SWAP3 SWAP2 SWAP1 DUP2 DUP2 MSTORE PUSH1 0x20 ADD DUP3 DUP1 SLOAD PUSH2 0x305 SWAP1 PUSH2 0x89E JUMP JUMPDEST DUP1 ISZERO PUSH2 0x350 JUMPI DUP1 PUSH1 0x1F LT PUSH2 0x327 JUMPI PUSH2 0x100 DUP1 DUP4 SLOAD DIV MUL DUP4 MSTORE SWAP2 PUSH1 0x20 ADD SWAP2 PUSH2 0x350 JUMP JUMPDEST DUP3 ADD SWAP2 SWAP1 PUSH0 MSTORE PUSH1 0x20 PUSH0 KECCAK256 SWAP1 JUMPDEST DUP2 SLOAD DUP2 MSTORE SWAP1 PUSH1 0x1 ADD SWAP1 PUSH1 0x20 ADD DUP1 DUP4 GT PUSH2 0x333 JUMPI DUP3 SWAP1 SUB PUSH1 0x1F AND DUP3 ADD SWAP2 JUMPDEST POP POP POP POP POP DUP2 JUMP JUMPDEST PUSH0 DUP1 SLOAD PUSH2 0x364 SWAP1 PUSH2 0x89E JUMP JUMPDEST DUP1 PUSH1 0x1F ADD PUSH1 0x20 DUP1 SWAP2 DIV MUL PUSH1 0x20 ADD PUSH1 0x40 MLOAD SWAP1 DUP2 ADD PUSH1 0x40 MSTORE DUP1 SWAP3 SWAP2 SWAP1 DUP2 DUP2 MSTORE PUSH1 0x20 ADD DUP3 DUP1 SLOAD PUSH2 0x390 SWAP1 PUSH2 0x89E JUMP JUMPDEST DUP1 ISZERO PUSH2 0x3DB JUMPI DUP1 PUSH1 0x1F LT PUSH2 0x3B2 JUMPI PUSH2 0x100 DUP1 DUP4 SLOAD DIV MUL DUP4 MSTORE SWAP2 PUSH1 0x20 ADD SWAP2 PUSH2 0x3DB JUMP JUMPDEST DUP3 ADD SWAP2 SWAP1 PUSH0 MSTORE PUSH1 0x20 PUSH0 KECCAK256 SWAP1 JUMPDEST DUP2 SLOAD DUP2 MSTORE SWAP1 PUSH1 0x1 ADD SWAP1 PUSH1 0x20 ADD DUP1 DUP4 GT PUSH2 0x3BE JUMPI DUP3 SWAP1 SUB PUSH1 0x1F AND DUP3 ADD SWAP2 JUMPDEST POP POP POP POP POP DUP2 JUMP JUMPDEST PUSH1 0x2 DUP1 SLOAD PUSH2 0x3F0 SWAP1 PUSH2 0x89E JUMP JUMPDEST DUP1 PUSH1 0x1F ADD PUSH1 0x20 DUP1 SWAP2 DIV MUL PUSH1 0x20 ADD PUSH1 0x40 MLOAD SWAP1 DUP2 ADD PUSH1 0x40 MSTORE DUP1 SWAP3 SWAP2 SWAP1 DUP2 DUP2 MSTORE PUSH1 0x20 ADD DUP3 DUP1 SLOAD PUSH2 0x41C SWAP1 PUSH2 0x89E JUMP JUMPDEST DUP1 ISZERO PUSH2 0x467 JUMPI DUP1 PUSH1 0x1F LT PUSH2 0x43E JUMPI PUSH2 0x100 DUP1 DUP4 SLOAD DIV MUL DUP4 MSTORE SWAP2 PUSH1 0x20 ADD SWAP2 PUSH2 0x467 JUMP JUMPDEST DUP3 ADD SWAP2 SWAP1 PUSH0 MSTORE PUSH1 0x20 PUSH0 KECCAK256 SWAP1 JUMPDEST DUP2 SLOAD DUP2 MSTORE SWAP1 PUSH1 0x1 ADD SWAP1 PUSH1 0x20 ADD DUP1 DUP4 GT PUSH2 0x44A JUMPI DUP3 SWAP1 SUB PUSH1 0x1F AND DUP3 ADD SWAP2 JUMPDEST POP POP POP POP POP DUP2 JUMP JUMPDEST PUSH0 PUSH32 0x2D64715730A5ADB8734B2B84045C82CBEBA1C79B838EF4B59C5959D0ECF9E269 SWAP1 POP DUP2 DUP2 SSTORE POP POP JUMP JUMPDEST PUSH0 DUP3 DUP3 MSTORE PUSH1 0x20 DUP3 ADD SWAP1 POP SWAP3 SWAP2 POP POP JUMP JUMPDEST PUSH32 0x4552524F525F494D504C454D454E544154494F4E5F4E4F545F464F554E440000 PUSH0 DUP3 ADD MSTORE POP JUMP JUMPDEST PUSH0 PUSH2 0x4DE PUSH1 0x1E DUP4 PUSH2 0x49A JUMP JUMPDEST SWAP2 POP PUSH2 0x4E9 DUP3 PUSH2 0x4AA JUMP JUMPDEST PUSH1 0x20 DUP3 ADD SWAP1 POP SWAP2 SWAP1 POP JUMP JUMPDEST PUSH0 PUSH1 0x20 DUP3 ADD SWAP1 POP DUP2 DUP2 SUB PUSH0 DUP4 ADD MSTORE PUSH2 0x50B DUP2 PUSH2 0x4D2 JUMP JUMPDEST SWAP1 POP SWAP2 SWAP1 POP JUMP JUMPDEST PUSH0 DUP2 SWAP1 POP SWAP3 SWAP2 POP POP JUMP JUMPDEST DUP3 DUP2 DUP4 CALLDATACOPY PUSH0 DUP4 DUP4 ADD MSTORE POP POP POP JUMP JUMPDEST PUSH0 PUSH2 0x535 DUP4 DUP6 PUSH2 0x512 JUMP JUMPDEST SWAP4 POP PUSH2 0x542 DUP4 DUP6 DUP5 PUSH2 0x51C JUMP JUMPDEST DUP3 DUP5 ADD SWAP1 POP SWAP4 SWAP3 POP POP POP JUMP JUMPDEST PUSH0 PUSH2 0x55A DUP3 DUP5 DUP7 PUSH2 0x52A JUMP JUMPDEST SWAP2 POP DUP2 SWAP1 POP SWAP4 SWAP3 POP POP POP JUMP JUMPDEST PUSH32 0x63616C6C206661696C6564000000000000000000000000000000000000000000 PUSH0 DUP3 ADD MSTORE POP JUMP JUMPDEST PUSH0 PUSH2 0x59A PUSH1 0xB DUP4 PUSH2 0x49A JUMP JUMPDEST SWAP2 POP PUSH2 0x5A5 DUP3 PUSH2 0x566 JUMP JUMPDEST PUSH1 0x20 DUP3 ADD SWAP1 POP SWAP2 SWAP1 POP JUMP JUMPDEST PUSH0 PUSH1 0x20 DUP3 ADD SWAP1 POP DUP2 DUP2 SUB PUSH0 DUP4 ADD MSTORE PUSH2 0x5C7 DUP2 PUSH2 0x58E JUMP JUMPDEST SWAP1 POP SWAP2 SWAP1 POP JUMP JUMPDEST PUSH0 PUSH1 0x40 MLOAD SWAP1 POP SWAP1 JUMP JUMPDEST PUSH0 DUP1 REVERT JUMPDEST PUSH0 DUP1 REVERT JUMPDEST PUSH0 DUP1 REVERT JUMPDEST PUSH0 DUP1 REVERT JUMPDEST PUSH0 PUSH1 0x1F NOT PUSH1 0x1F DUP4 ADD AND SWAP1 POP SWAP2 SWAP1 POP JUMP JUMPDEST PUSH32 0x4E487B7100000000000000000000000000000000000000000000000000000000 PUSH0 MSTORE PUSH1 0x41 PUSH1 0x4 MSTORE PUSH1 0x24 PUSH0 REVERT JUMPDEST PUSH2 0x62D DUP3 PUSH2 0x5E7 JUMP JUMPDEST DUP2 ADD DUP2 DUP2 LT PUSH8 0xFFFFFFFFFFFFFFFF DUP3 GT OR ISZERO PUSH2 0x64C JUMPI PUSH2 0x64B PUSH2 0x5F7 JUMP JUMPDEST JUMPDEST DUP1 PUSH1 0x40 MSTORE POP POP POP JUMP JUMPDEST PUSH0 PUSH2 0x65E PUSH2 0x5CE JUMP JUMPDEST SWAP1 POP PUSH2 0x66A DUP3 DUP3 PUSH2 0x624 JUMP JUMPDEST SWAP2 SWAP1 POP JUMP JUMPDEST PUSH0 PUSH8 0xFFFFFFFFFFFFFFFF DUP3 GT ISZERO PUSH2 0x689 JUMPI PUSH2 0x688 PUSH2 0x5F7 JUMP JUMPDEST JUMPDEST PUSH2 0x692 DUP3 PUSH2 0x5E7 JUMP JUMPDEST SWAP1 POP PUSH1 0x20 DUP2 ADD SWAP1 POP SWAP2 SWAP1 POP JUMP JUMPDEST PUSH0 PUSH2 0x6B1 PUSH2 0x6AC DUP5 PUSH2 0x66F JUMP JUMPDEST PUSH2 0x655 JUMP JUMPDEST SWAP1 POP DUP3 DUP2 MSTORE PUSH1 0x20 DUP2 ADD DUP5 DUP5 DUP5 ADD GT ISZERO PUSH2 0x6CD JUMPI PUSH2 0x6CC PUSH2 0x5E3 JUMP JUMPDEST JUMPDEST PUSH2 0x6D8 DUP5 DUP3 DUP6 PUSH2 0x51C JUMP JUMPDEST POP SWAP4 SWAP3 POP POP POP JUMP JUMPDEST PUSH0 DUP3 PUSH1 0x1F DUP4 ADD SLT PUSH2 0x6F4 JUMPI PUSH2 0x6F3 PUSH2 0x5DF JUMP JUMPDEST JUMPDEST DUP2 CALLDATALOAD PUSH2 0x704 DUP5 DUP3 PUSH1 0x20 DUP7 ADD PUSH2 0x69F JUMP JUMPDEST SWAP2 POP POP SWAP3 SWAP2 POP POP JUMP JUMPDEST PUSH0 PUSH1 0x20 DUP3 DUP5 SUB SLT ISZERO PUSH2 0x722 JUMPI PUSH2 0x721 PUSH2 0x5D7 JUMP JUMPDEST JUMPDEST PUSH0 DUP3 ADD CALLDATALOAD PUSH8 0xFFFFFFFFFFFFFFFF DUP2 GT ISZERO PUSH2 0x73F JUMPI PUSH2 0x73E PUSH2 0x5DB JUMP JUMPDEST JUMPDEST PUSH2 0x74B DUP5 DUP3 DUP6 ADD PUSH2 0x6E0 JUMP JUMPDEST SWAP2 POP POP SWAP3 SWAP2 POP POP JUMP JUMPDEST PUSH0 DUP2 MLOAD SWAP1 POP SWAP2 SWAP1 POP JUMP JUMPDEST DUP3 DUP2 DUP4 MCOPY PUSH0 DUP4 DUP4 ADD MSTORE POP POP POP JUMP JUMPDEST PUSH0 PUSH2 0x776 DUP3 PUSH2 0x754 JUMP JUMPDEST PUSH2 0x780 DUP2 DUP6 PUSH2 0x49A JUMP JUMPDEST SWAP4 POP PUSH2 0x790 DUP2 DUP6 PUSH1 0x20 DUP7 ADD PUSH2 0x75E JUMP JUMPDEST PUSH2 0x799 DUP2 PUSH2 0x5E7 JUMP JUMPDEST DUP5 ADD SWAP2 POP POP SWAP3 SWAP2 POP POP JUMP JUMPDEST PUSH0 PUSH1 0x20 DUP3 ADD SWAP1 POP DUP2 DUP2 SUB PUSH0 DUP4 ADD MSTORE PUSH2 0x7BC DUP2 DUP5 PUSH2 0x76C JUMP JUMPDEST SWAP1 POP SWAP3 SWAP2 POP POP JUMP JUMPDEST PUSH0 PUSH20 0xFFFFFFFFFFFFFFFFFFFFFFFFFFFFFFFFFFFFFFFF DUP3 AND SWAP1 POP SWAP2 SWAP1 POP JUMP JUMPDEST PUSH0 PUSH2 0x7ED DUP3 PUSH2 0x7C4 JUMP JUMPDEST SWAP1 POP SWAP2 SWAP1 POP JUMP JUMPDEST PUSH2 0x7FD DUP2 PUSH2 0x7E3 JUMP JUMPDEST DUP3 MSTORE POP POP JUMP JUMPDEST PUSH0 PUSH1 0x20 DUP3 ADD SWAP1 POP PUSH2 0x816 PUSH0 DUP4 ADD DUP5 PUSH2 0x7F4 JUMP JUMPDEST SWAP3 SWAP2 POP POP JUMP JUMPDEST PUSH2 0x825 DUP2 PUSH2 0x7E3 JUMP JUMPDEST DUP2 EQ PUSH2 0x82F JUMPI PUSH0 DUP1 REVERT JUMPDEST POP JUMP JUMPDEST PUSH0 DUP2 CALLDATALOAD SWAP1 POP PUSH2 0x840 DUP2 PUSH2 0x81C JUMP JUMPDEST SWAP3 SWAP2 POP POP JUMP JUMPDEST PUSH0 PUSH1 0x20 DUP3 DUP5 SUB SLT ISZERO PUSH2 0x85B JUMPI PUSH2 0x85A PUSH2 0x5D7 JUMP JUMPDEST JUMPDEST PUSH0 PUSH2 0x868 DUP5 DUP3 DUP6 ADD PUSH2 0x832 JUMP JUMPDEST SWAP2 POP POP SWAP3 SWAP2 POP POP JUMP JUMPDEST PUSH32 0x4E487B7100000000000000000000000000000000000000000000000000000000 PUSH0 MSTORE PUSH1 0x22 PUSH1 0x4 MSTORE PUSH1 0x24 PUSH0 REVERT JUMPDEST PUSH0 PUSH1 0x2 DUP3 DIV SWAP1 POP PUSH1 0x1 DUP3 AND DUP1 PUSH2 0x8B5 JUMPI PUSH1 0x7F DUP3 AND SWAP2 POP JUMPDEST PUSH1 0x20 DUP3 LT DUP2 SUB PUSH2 0x8C8 JUMPI PUSH2 0x8C7 PUSH2 0x871 JUMP JUMPDEST JUMPDEST POP SWAP2 SWAP1 POP JUMP JUMPDEST PUSH0 DUP2 SWAP1 POP DUP2 PUSH0 MSTORE PUSH1 0x20 PUSH0 KECCAK256 SWAP1 POP SWAP2 SWAP1 POP JUMP JUMPDEST PUSH0 PUSH1 0x20 PUSH1 0x1F DUP4 ADD DIV SWAP1 POP SWAP2 SWAP1 POP JUMP JUMPDEST PUSH0 DUP3 DUP3 SHL SWAP1 POP SWAP3 SWAP2 POP POP JUMP JUMPDEST PUSH0 PUSH1 0x8 DUP4 MUL PUSH2 0x92A PUSH32 0xFFFFFFFFFFFFFFFFFFFFFFFFFFFFFFFFFFFFFFFFFFFFFFFFFFFFFFFFFFFFFFFF DUP3 PUSH2 0x8EF JUMP JUMPDEST PUSH2 0x934 DUP7 DUP4 PUSH2 0x8EF JUMP JUMPDEST SWAP6 POP DUP1 NOT DUP5 AND SWAP4 POP DUP1 DUP7 AND DUP5 OR SWAP3 POP POP POP SWAP4 SWAP3 POP POP POP JUMP JUMPDEST PUSH0 DUP2 SWAP1 POP SWAP2 SWAP1 POP JUMP JUMPDEST PUSH0 DUP2 SWAP1 POP SWAP2 SWAP1 POP JUMP JUMPDEST PUSH0 PUSH2 0x978 PUSH2 0x973 PUSH2 0x96E DUP5 PUSH2 0x94C JUMP JUMPDEST PUSH2 0x955 JUMP JUMPDEST PUSH2 0x94C JUMP JUMPDEST SWAP1 POP SWAP2 SWAP1 POP JUMP JUMPDEST PUSH0 DUP2 SWAP1 POP SWAP2 SWAP1 POP JUMP JUMPDEST PUSH2 0x991 DUP4 PUSH2 0x95E JUMP JUMPDEST PUSH2 0x9A5 PUSH2 0x99D DUP3 PUSH2 0x97F JUMP JUMPDEST DUP5 DUP5 SLOAD PUSH2 0x8FB JUMP JUMPDEST DUP3 SSTORE POP POP POP POP JUMP JUMPDEST PUSH0 SWAP1 JUMP JUMPDEST PUSH2 0x9B9 PUSH2 0x9AD JUMP JUMPDEST PUSH2 0x9C4 DUP2 DUP5 DUP5 PUSH2 0x988 JUMP JUMPDEST POP POP POP JUMP JUMPDEST JUMPDEST DUP2 DUP2 LT ISZERO PUSH2 0x9E7 JUMPI PUSH2 0x9DC PUSH0 DUP3 PUSH2 0x9B1 JUMP JUMPDEST PUSH1 0x1 DUP2 ADD SWAP1 POP PUSH2 0x9CA JUMP JUMPDEST POP POP JUMP JUMPDEST PUSH1 0x1F DUP3 GT ISZERO PUSH2 0xA2C JUMPI PUSH2 0x9FD DUP2 PUSH2 0x8CE JUMP JUMPDEST PUSH2 0xA06 DUP5 PUSH2 0x8E0 JUMP JUMPDEST DUP2 ADD PUSH1 0x20 DUP6 LT ISZERO PUSH2 0xA15 JUMPI DUP2 SWAP1 POP JUMPDEST PUSH2 0xA29 PUSH2 0xA21 DUP6 PUSH2 0x8E0 JUMP JUMPDEST DUP4 ADD DUP3 PUSH2 0x9C9 JUMP JUMPDEST POP POP JUMPDEST POP POP POP JUMP JUMPDEST PUSH0 DUP3 DUP3 SHR SWAP1 POP SWAP3 SWAP2 POP POP JUMP JUMPDEST PUSH0 PUSH2 0xA4C PUSH0 NOT DUP5 PUSH1 0x8 MUL PUSH2 0xA31 JUMP JUMPDEST NOT DUP1 DUP4 AND SWAP2 POP POP SWAP3 SWAP2 POP POP JUMP JUMPDEST PUSH0 PUSH2 0xA64 DUP4 DUP4 PUSH2 0xA3D JUMP JUMPDEST SWAP2 POP DUP3 PUSH1 0x2 MUL DUP3 OR SWAP1 POP SWAP3 SWAP2 POP POP JUMP JUMPDEST PUSH2 0xA7D DUP3 PUSH2 0x754 JUMP JUMPDEST PUSH8 0xFFFFFFFFFFFFFFFF DUP2 GT ISZERO PUSH2 0xA96 JUMPI PUSH2 0xA95 PUSH2 0x5F7 JUMP JUMPDEST JUMPDEST PUSH2 0xAA0 DUP3 SLOAD PUSH2 0x89E JUMP JUMPDEST PUSH2 0xAAB DUP3 DUP3 DUP6 PUSH2 0x9EB JUMP JUMPDEST PUSH0 PUSH1 0x20 SWAP1 POP PUSH1 0x1F DUP4 GT PUSH1 0x1 DUP2 EQ PUSH2 0xADC JUMPI PUSH0 DUP5 ISZERO PUSH2 0xACA JUMPI DUP3 DUP8 ADD MLOAD SWAP1 POP JUMPDEST PUSH2 0xAD4 DUP6 DUP3 PUSH2 0xA59 JUMP JUMPDEST DUP7 SSTORE POP PUSH2 0xB3B JUMP JUMPDEST PUSH1 0x1F NOT DUP5 AND PUSH2 0xAEA DUP7 PUSH2 0x8CE JUMP JUMPDEST PUSH0 JUMPDEST DUP3 DUP2 LT ISZERO PUSH2 0xB11 JUMPI DUP5 DUP10 ADD MLOAD DUP3 SSTORE PUSH1 0x1 DUP3 ADD SWAP2 POP PUSH1 0x20 DUP6 ADD SWAP5 POP PUSH1 0x20 DUP2 ADD SWAP1 POP PUSH2 0xAEC JUMP JUMPDEST DUP7 DUP4 LT ISZERO PUSH2 0xB2E JUMPI DUP5 DUP10 ADD MLOAD PUSH2 0xB2A PUSH1 0x1F DUP10 AND DUP3 PUSH2 0xA3D JUMP JUMPDEST DUP4 SSTORE POP JUMPDEST PUSH1 0x1 PUSH1 0x2 DUP9 MUL ADD DUP9 SSTORE POP POP POP JUMPDEST POP POP POP POP POP POP JUMP INVALID LOG2 PUSH5 0x6970667358 0x22 SLT KECCAK256 PUSH23 0xCCEE40B582AA15DEF8C3F248243AA8AAD80FA203658321 0xB9 PUSH21 0xC78421FEEE864736F6C6343000819003300000000 "
				},
				"gasEstimates": {
					"creation": {
						"codeDepositCost": "587400",
						"executionCost": "infinite",
						"totalCost": "infinite"
					},
					"external": {
						"": "infinite",
						"getImplementation()": "2537",
						"setImplementation(address)": "22655",
						"setStringAValue1(string)": "infinite",
						"stringAvalue1()": "infinite",
						"stringAvalue2()": "infinite",
						"stringAvalue3()": "infinite"
					}
				},
				"methodIdentifiers": {
					"getImplementation()": "aaf10f42",
					"setImplementation(address)": "d784d426",
					"setStringAValue1(string)": "1f429731",
					"stringAvalue1()": "52960cab",
					"stringAvalue2()": "2db88051",
					"stringAvalue3()": "b85a2a04"
				}
			},
			"storageLayout": {
				"storage": [
					{
						"astId": 9,
						"contract": "contracts/StorageContractA.sol:StorageContractA",
						"label": "stringAvalue1",
						"offset": 0,
						"slot": "0",
						"type": "t_string_storage"
					},
					{
						"astId": 12,
						"contract": "contracts/StorageContractA.sol:StorageContractA",
						"label": "stringAvalue2",
						"offset": 0,
						"slot": "1",
						"type": "t_string_storage"
					},
					{
						"astId": 15,
						"contract": "contracts/StorageContractA.sol:StorageContractA",
						"label": "stringAvalue3",
						"offset": 0,
						"slot": "2",
						"type": "t_string_storage"
					}
				],
				"types": {
					"t_string_storage": {
						"encoding": "bytes",
						"label": "string",
						"numberOfBytes": "32"
					}
				}
			},
			"userdoc": {
				"kind": "user",
				"methods": {},
				"version": 1
			}
		}
	}
}