{
	"contracts/StorageContractA.sol": {
		"StorageContractA": {
			"abi": [
				{
					"stateMutability": "payable",
					"type": "fallback"
				},
				{
					"inputs": [],
					"name": "getImplementation",
					"outputs": [
						{
							"internalType": "address",
							"name": "_implementation",
							"type": "address"
						}
					],
					"stateMutability": "view",
					"type": "function"
				},
				{
					"inputs": [
						{
							"internalType": "address",
							"name": "_implementation",
							"type": "address"
						}
					],
					"name": "setImplementation",
					"outputs": [],
					"stateMutability": "nonpayable",
					"type": "function"
				},
				{
					"inputs": [
						{
							"internalType": "string",
							"name": "value",
							"type": "string"
						}
					],
					"name": "setStringAValue1",
					"outputs": [],
					"stateMutability": "nonpayable",
					"type": "function"
				},
				{
					"inputs": [],
					"name": "stringAvalue1",
					"outputs": [
						{
							"internalType": "string",
							"name": "",
							"type": "string"
						}
					],
					"stateMutability": "view",
					"type": "function"
				},
				{
					"inputs": [],
					"name": "stringAvalue2",
					"outputs": [
						{
							"internalType": "string",
							"name": "",
							"type": "string"
						}
					],
					"stateMutability": "view",
					"type": "function"
				},
				{
					"inputs": [],
					"name": "stringAvalue3",
					"outputs": [
						{
							"internalType": "string",
							"name": "",
							"type": "string"
						}
					],
					"stateMutability": "view",
					"type": "function"
				}
			],
			"devdoc": {
				"kind": "dev",
				"methods": {},
				"version": 1
			},
			"evm": {
				"assembly": "    /* \"contracts/StorageContractA.sol\":64:1481  contract StorageContractA { ... */\n  mstore(0x40, 0x80)\n    /* \"contracts/StorageContractA.sol\":190:241  string public stringAvalue1 = \"string value of A 1\" */\n  mload(0x40)\n  dup1\n  0x40\n  add\n  0x40\n  mstore\n  dup1\n  0x13\n  dup2\n  mstore\n  0x20\n  add\n  0x737472696e672076616c7565206f662041203100000000000000000000000000\n  dup2\n  mstore\n  pop\n  0x00\n  swap1\n  dup2\n  tag_1\n  swap2\n  swap1\n  tag_2\n  jump\t// in\ntag_1:\n  pop\n    /* \"contracts/StorageContractA.sol\":247:298  string public stringAvalue2 = \"string value of A 2\" */\n  mload(0x40)\n  dup1\n  0x40\n  add\n  0x40\n  mstore\n  dup1\n  0x13\n  dup2\n  mstore\n  0x20\n  add\n  0x737472696e672076616c7565206f662041203200000000000000000000000000\n  dup2\n  mstore\n  pop\n  0x01\n  swap1\n  dup2\n  tag_3\n  swap2\n  swap1\n  tag_2\n  jump\t// in\ntag_3:\n  pop\n    /* \"contracts/StorageContractA.sol\":304:355  string public stringAvalue3 = \"string value of A 3\" */\n  mload(0x40)\n  dup1\n  0x40\n  add\n  0x40\n  mstore\n  dup1\n  0x13\n  dup2\n  mstore\n  0x20\n  add\n  0x737472696e672076616c7565206f662041203300000000000000000000000000\n  dup2\n  mstore\n  pop\n  0x02\n  swap1\n  dup2\n  tag_4\n  swap2\n  swap1\n  tag_2\n  jump\t// in\ntag_4:\n  pop\n    /* \"contracts/StorageContractA.sol\":64:1481  contract StorageContractA { ... */\n  callvalue\n  dup1\n  iszero\n  tag_5\n  jumpi\n  0x00\n  dup1\n  revert\ntag_5:\n  pop\n  jump(tag_6)\n    /* \"#utility.yul\":7:106   */\ntag_7:\n    /* \"#utility.yul\":59:65   */\n  0x00\n    /* \"#utility.yul\":93:98   */\n  dup2\n    /* \"#utility.yul\":87:99   */\n  mload\n    /* \"#utility.yul\":77:99   */\n  swap1\n  pop\n    /* \"#utility.yul\":7:106   */\n  swap2\n  swap1\n  pop\n  jump\t// out\n    /* \"#utility.yul\":112:292   */\ntag_8:\n    /* \"#utility.yul\":160:237   */\n  0x4e487b7100000000000000000000000000000000000000000000000000000000\n    /* \"#utility.yul\":157:158   */\n  0x00\n    /* \"#utility.yul\":150:238   */\n  mstore\n    /* \"#utility.yul\":257:261   */\n  0x41\n    /* \"#utility.yul\":254:255   */\n  0x04\n    /* \"#utility.yul\":247:262   */\n  mstore\n    /* \"#utility.yul\":281:285   */\n  0x24\n    /* \"#utility.yul\":278:279   */\n  0x00\n    /* \"#utility.yul\":271:286   */\n  revert\n    /* \"#utility.yul\":298:478   */\ntag_9:\n    /* \"#utility.yul\":346:423   */\n  0x4e487b7100000000000000000000000000000000000000000000000000000000\n    /* \"#utility.yul\":343:344   */\n  0x00\n    /* \"#utility.yul\":336:424   */\n  mstore\n    /* \"#utility.yul\":443:447   */\n  0x22\n    /* \"#utility.yul\":440:441   */\n  0x04\n    /* \"#utility.yul\":433:448   */\n  mstore\n    /* \"#utility.yul\":467:471   */\n  0x24\n    /* \"#utility.yul\":464:465   */\n  0x00\n    /* \"#utility.yul\":457:472   */\n  revert\n    /* \"#utility.yul\":484:804   */\ntag_10:\n    /* \"#utility.yul\":528:534   */\n  0x00\n    /* \"#utility.yul\":565:566   */\n  0x02\n    /* \"#utility.yul\":559:563   */\n  dup3\n    /* \"#utility.yul\":555:567   */\n  div\n    /* \"#utility.yul\":545:567   */\n  swap1\n  pop\n    /* \"#utility.yul\":612:613   */\n  0x01\n    /* \"#utility.yul\":606:610   */\n  dup3\n    /* \"#utility.yul\":602:614   */\n  and\n    /* \"#utility.yul\":633:651   */\n  dup1\n    /* \"#utility.yul\":623:704   */\n  tag_32\n  jumpi\n    /* \"#utility.yul\":689:693   */\n  0x7f\n    /* \"#utility.yul\":681:687   */\n  dup3\n    /* \"#utility.yul\":677:694   */\n  and\n    /* \"#utility.yul\":667:694   */\n  swap2\n  pop\n    /* \"#utility.yul\":623:704   */\ntag_32:\n    /* \"#utility.yul\":751:753   */\n  0x20\n    /* \"#utility.yul\":743:749   */\n  dup3\n    /* \"#utility.yul\":740:754   */\n  lt\n    /* \"#utility.yul\":720:738   */\n  dup2\n    /* \"#utility.yul\":717:755   */\n  sub\n    /* \"#utility.yul\":714:798   */\n  tag_33\n  jumpi\n    /* \"#utility.yul\":770:788   */\n  tag_34\n  tag_9\n  jump\t// in\ntag_34:\n    /* \"#utility.yul\":714:798   */\ntag_33:\n    /* \"#utility.yul\":535:804   */\n  pop\n    /* \"#utility.yul\":484:804   */\n  swap2\n  swap1\n  pop\n  jump\t// out\n    /* \"#utility.yul\":810:951   */\ntag_11:\n    /* \"#utility.yul\":859:863   */\n  0x00\n    /* \"#utility.yul\":882:885   */\n  dup2\n    /* \"#utility.yul\":874:885   */\n  swap1\n  pop\n    /* \"#utility.yul\":905:908   */\n  dup2\n    /* \"#utility.yul\":902:903   */\n  0x00\n    /* \"#utility.yul\":895:909   */\n  mstore\n    /* \"#utility.yul\":939:943   */\n  0x20\n    /* \"#utility.yul\":936:937   */\n  0x00\n    /* \"#utility.yul\":926:944   */\n  keccak256\n    /* \"#utility.yul\":918:944   */\n  swap1\n  pop\n    /* \"#utility.yul\":810:951   */\n  swap2\n  swap1\n  pop\n  jump\t// out\n    /* \"#utility.yul\":957:1050   */\ntag_12:\n    /* \"#utility.yul\":994:1000   */\n  0x00\n    /* \"#utility.yul\":1041:1043   */\n  0x20\n    /* \"#utility.yul\":1036:1038   */\n  0x1f\n    /* \"#utility.yul\":1029:1034   */\n  dup4\n    /* \"#utility.yul\":1025:1039   */\n  add\n    /* \"#utility.yul\":1021:1044   */\n  div\n    /* \"#utility.yul\":1011:1044   */\n  swap1\n  pop\n    /* \"#utility.yul\":957:1050   */\n  swap2\n  swap1\n  pop\n  jump\t// out\n    /* \"#utility.yul\":1056:1163   */\ntag_13:\n    /* \"#utility.yul\":1100:1108   */\n  0x00\n    /* \"#utility.yul\":1150:1155   */\n  dup3\n    /* \"#utility.yul\":1144:1148   */\n  dup3\n    /* \"#utility.yul\":1140:1156   */\n  shl\n    /* \"#utility.yul\":1119:1156   */\n  swap1\n  pop\n    /* \"#utility.yul\":1056:1163   */\n  swap3\n  swap2\n  pop\n  pop\n  jump\t// out\n    /* \"#utility.yul\":1169:1562   */\ntag_14:\n    /* \"#utility.yul\":1238:1244   */\n  0x00\n    /* \"#utility.yul\":1288:1289   */\n  0x08\n    /* \"#utility.yul\":1276:1286   */\n  dup4\n    /* \"#utility.yul\":1272:1290   */\n  mul\n    /* \"#utility.yul\":1311:1408   */\n  tag_39\n    /* \"#utility.yul\":1341:1407   */\n  0xffffffffffffffffffffffffffffffffffffffffffffffffffffffffffffffff\n    /* \"#utility.yul\":1330:1339   */\n  dup3\n    /* \"#utility.yul\":1311:1408   */\n  tag_13\n  jump\t// in\ntag_39:\n    /* \"#utility.yul\":1429:1468   */\n  tag_40\n    /* \"#utility.yul\":1459:1467   */\n  dup7\n    /* \"#utility.yul\":1448:1457   */\n  dup4\n    /* \"#utility.yul\":1429:1468   */\n  tag_13\n  jump\t// in\ntag_40:\n    /* \"#utility.yul\":1417:1468   */\n  swap6\n  pop\n    /* \"#utility.yul\":1501:1505   */\n  dup1\n    /* \"#utility.yul\":1497:1506   */\n  not\n    /* \"#utility.yul\":1490:1495   */\n  dup5\n    /* \"#utility.yul\":1486:1507   */\n  and\n    /* \"#utility.yul\":1477:1507   */\n  swap4\n  pop\n    /* \"#utility.yul\":1550:1554   */\n  dup1\n    /* \"#utility.yul\":1540:1548   */\n  dup7\n    /* \"#utility.yul\":1536:1555   */\n  and\n    /* \"#utility.yul\":1529:1534   */\n  dup5\n    /* \"#utility.yul\":1526:1556   */\n  or\n    /* \"#utility.yul\":1516:1556   */\n  swap3\n  pop\n    /* \"#utility.yul\":1245:1562   */\n  pop\n  pop\n    /* \"#utility.yul\":1169:1562   */\n  swap4\n  swap3\n  pop\n  pop\n  pop\n  jump\t// out\n    /* \"#utility.yul\":1568:1645   */\ntag_15:\n    /* \"#utility.yul\":1605:1612   */\n  0x00\n    /* \"#utility.yul\":1634:1639   */\n  dup2\n    /* \"#utility.yul\":1623:1639   */\n  swap1\n  pop\n    /* \"#utility.yul\":1568:1645   */\n  swap2\n  swap1\n  pop\n  jump\t// out\n    /* \"#utility.yul\":1651:1711   */\ntag_16:\n    /* \"#utility.yul\":1679:1682   */\n  0x00\n    /* \"#utility.yul\":1700:1705   */\n  dup2\n    /* \"#utility.yul\":1693:1705   */\n  swap1\n  pop\n    /* \"#utility.yul\":1651:1711   */\n  swap2\n  swap1\n  pop\n  jump\t// out\n    /* \"#utility.yul\":1717:1859   */\ntag_17:\n    /* \"#utility.yul\":1767:1776   */\n  0x00\n    /* \"#utility.yul\":1800:1853   */\n  tag_44\n    /* \"#utility.yul\":1818:1852   */\n  tag_45\n    /* \"#utility.yul\":1827:1851   */\n  tag_46\n    /* \"#utility.yul\":1845:1850   */\n  dup5\n    /* \"#utility.yul\":1827:1851   */\n  tag_15\n  jump\t// in\ntag_46:\n    /* \"#utility.yul\":1818:1852   */\n  tag_16\n  jump\t// in\ntag_45:\n    /* \"#utility.yul\":1800:1853   */\n  tag_15\n  jump\t// in\ntag_44:\n    /* \"#utility.yul\":1787:1853   */\n  swap1\n  pop\n    /* \"#utility.yul\":1717:1859   */\n  swap2\n  swap1\n  pop\n  jump\t// out\n    /* \"#utility.yul\":1865:1940   */\ntag_18:\n    /* \"#utility.yul\":1908:1911   */\n  0x00\n    /* \"#utility.yul\":1929:1934   */\n  dup2\n    /* \"#utility.yul\":1922:1934   */\n  swap1\n  pop\n    /* \"#utility.yul\":1865:1940   */\n  swap2\n  swap1\n  pop\n  jump\t// out\n    /* \"#utility.yul\":1946:2215   */\ntag_19:\n    /* \"#utility.yul\":2056:2095   */\n  tag_49\n    /* \"#utility.yul\":2087:2094   */\n  dup4\n    /* \"#utility.yul\":2056:2095   */\n  tag_17\n  jump\t// in\ntag_49:\n    /* \"#utility.yul\":2117:2208   */\n  tag_50\n    /* \"#utility.yul\":2166:2207   */\n  tag_51\n    /* \"#utility.yul\":2190:2206   */\n  dup3\n    /* \"#utility.yul\":2166:2207   */\n  tag_18\n  jump\t// in\ntag_51:\n    /* \"#utility.yul\":2158:2164   */\n  dup5\n    /* \"#utility.yul\":2151:2155   */\n  dup5\n    /* \"#utility.yul\":2145:2156   */\n  sload\n    /* \"#utility.yul\":2117:2208   */\n  tag_14\n  jump\t// in\ntag_50:\n    /* \"#utility.yul\":2111:2115   */\n  dup3\n    /* \"#utility.yul\":2104:2209   */\n  sstore\n    /* \"#utility.yul\":2022:2215   */\n  pop\n    /* \"#utility.yul\":1946:2215   */\n  pop\n  pop\n  pop\n  jump\t// out\n    /* \"#utility.yul\":2221:2294   */\ntag_20:\n    /* \"#utility.yul\":2266:2269   */\n  0x00\n    /* \"#utility.yul\":2221:2294   */\n  swap1\n  jump\t// out\n    /* \"#utility.yul\":2300:2489   */\ntag_21:\n    /* \"#utility.yul\":2377:2409   */\n  tag_54\n  tag_20\n  jump\t// in\ntag_54:\n    /* \"#utility.yul\":2418:2483   */\n  tag_55\n    /* \"#utility.yul\":2476:2482   */\n  dup2\n    /* \"#utility.yul\":2468:2474   */\n  dup5\n    /* \"#utility.yul\":2462:2466   */\n  dup5\n    /* \"#utility.yul\":2418:2483   */\n  tag_19\n  jump\t// in\ntag_55:\n    /* \"#utility.yul\":2353:2489   */\n  pop\n    /* \"#utility.yul\":2300:2489   */\n  pop\n  pop\n  jump\t// out\n    /* \"#utility.yul\":2495:2681   */\ntag_22:\n    /* \"#utility.yul\":2555:2675   */\ntag_57:\n    /* \"#utility.yul\":2572:2575   */\n  dup2\n    /* \"#utility.yul\":2565:2570   */\n  dup2\n    /* \"#utility.yul\":2562:2576   */\n  lt\n    /* \"#utility.yul\":2555:2675   */\n  iszero\n  tag_59\n  jumpi\n    /* \"#utility.yul\":2626:2665   */\n  tag_60\n    /* \"#utility.yul\":2663:2664   */\n  0x00\n    /* \"#utility.yul\":2656:2661   */\n  dup3\n    /* \"#utility.yul\":2626:2665   */\n  tag_21\n  jump\t// in\ntag_60:\n    /* \"#utility.yul\":2599:2600   */\n  0x01\n    /* \"#utility.yul\":2592:2597   */\n  dup2\n    /* \"#utility.yul\":2588:2601   */\n  add\n    /* \"#utility.yul\":2579:2601   */\n  swap1\n  pop\n    /* \"#utility.yul\":2555:2675   */\n  jump(tag_57)\ntag_59:\n    /* \"#utility.yul\":2495:2681   */\n  pop\n  pop\n  jump\t// out\n    /* \"#utility.yul\":2687:3230   */\ntag_23:\n    /* \"#utility.yul\":2788:2790   */\n  0x1f\n    /* \"#utility.yul\":2783:2786   */\n  dup3\n    /* \"#utility.yul\":2780:2791   */\n  gt\n    /* \"#utility.yul\":2777:3223   */\n  iszero\n  tag_62\n  jumpi\n    /* \"#utility.yul\":2822:2860   */\n  tag_63\n    /* \"#utility.yul\":2854:2859   */\n  dup2\n    /* \"#utility.yul\":2822:2860   */\n  tag_11\n  jump\t// in\ntag_63:\n    /* \"#utility.yul\":2906:2935   */\n  tag_64\n    /* \"#utility.yul\":2924:2934   */\n  dup5\n    /* \"#utility.yul\":2906:2935   */\n  tag_12\n  jump\t// in\ntag_64:\n    /* \"#utility.yul\":2896:2904   */\n  dup2\n    /* \"#utility.yul\":2892:2936   */\n  add\n    /* \"#utility.yul\":3089:3091   */\n  0x20\n    /* \"#utility.yul\":3077:3087   */\n  dup6\n    /* \"#utility.yul\":3074:3092   */\n  lt\n    /* \"#utility.yul\":3071:3120   */\n  iszero\n  tag_65\n  jumpi\n    /* \"#utility.yul\":3110:3118   */\n  dup2\n    /* \"#utility.yul\":3095:3118   */\n  swap1\n  pop\n    /* \"#utility.yul\":3071:3120   */\ntag_65:\n    /* \"#utility.yul\":3133:3213   */\n  tag_66\n    /* \"#utility.yul\":3189:3211   */\n  tag_67\n    /* \"#utility.yul\":3207:3210   */\n  dup6\n    /* \"#utility.yul\":3189:3211   */\n  tag_12\n  jump\t// in\ntag_67:\n    /* \"#utility.yul\":3179:3187   */\n  dup4\n    /* \"#utility.yul\":3175:3212   */\n  add\n    /* \"#utility.yul\":3162:3173   */\n  dup3\n    /* \"#utility.yul\":3133:3213   */\n  tag_22\n  jump\t// in\ntag_66:\n    /* \"#utility.yul\":2792:3223   */\n  pop\n  pop\n    /* \"#utility.yul\":2777:3223   */\ntag_62:\n    /* \"#utility.yul\":2687:3230   */\n  pop\n  pop\n  pop\n  jump\t// out\n    /* \"#utility.yul\":3236:3353   */\ntag_24:\n    /* \"#utility.yul\":3290:3298   */\n  0x00\n    /* \"#utility.yul\":3340:3345   */\n  dup3\n    /* \"#utility.yul\":3334:3338   */\n  dup3\n    /* \"#utility.yul\":3330:3346   */\n  shr\n    /* \"#utility.yul\":3309:3346   */\n  swap1\n  pop\n    /* \"#utility.yul\":3236:3353   */\n  swap3\n  swap2\n  pop\n  pop\n  jump\t// out\n    /* \"#utility.yul\":3359:3528   */\ntag_25:\n    /* \"#utility.yul\":3403:3409   */\n  0x00\n    /* \"#utility.yul\":3436:3487   */\n  tag_70\n    /* \"#utility.yul\":3484:3485   */\n  0x00\n    /* \"#utility.yul\":3480:3486   */\n  not\n    /* \"#utility.yul\":3472:3477   */\n  dup5\n    /* \"#utility.yul\":3469:3470   */\n  0x08\n    /* \"#utility.yul\":3465:3478   */\n  mul\n    /* \"#utility.yul\":3436:3487   */\n  tag_24\n  jump\t// in\ntag_70:\n    /* \"#utility.yul\":3432:3488   */\n  not\n    /* \"#utility.yul\":3517:3521   */\n  dup1\n    /* \"#utility.yul\":3511:3515   */\n  dup4\n    /* \"#utility.yul\":3507:3522   */\n  and\n    /* \"#utility.yul\":3497:3522   */\n  swap2\n  pop\n    /* \"#utility.yul\":3410:3528   */\n  pop\n    /* \"#utility.yul\":3359:3528   */\n  swap3\n  swap2\n  pop\n  pop\n  jump\t// out\n    /* \"#utility.yul\":3533:3828   */\ntag_26:\n    /* \"#utility.yul\":3609:3613   */\n  0x00\n    /* \"#utility.yul\":3755:3784   */\n  tag_72\n    /* \"#utility.yul\":3780:3783   */\n  dup4\n    /* \"#utility.yul\":3774:3778   */\n  dup4\n    /* \"#utility.yul\":3755:3784   */\n  tag_25\n  jump\t// in\ntag_72:\n    /* \"#utility.yul\":3747:3784   */\n  swap2\n  pop\n    /* \"#utility.yul\":3817:3820   */\n  dup3\n    /* \"#utility.yul\":3814:3815   */\n  0x02\n    /* \"#utility.yul\":3810:3821   */\n  mul\n    /* \"#utility.yul\":3804:3808   */\n  dup3\n    /* \"#utility.yul\":3801:3822   */\n  or\n    /* \"#utility.yul\":3793:3822   */\n  swap1\n  pop\n    /* \"#utility.yul\":3533:3828   */\n  swap3\n  swap2\n  pop\n  pop\n  jump\t// out\n    /* \"#utility.yul\":3833:5228   */\ntag_2:\n    /* \"#utility.yul\":3950:3987   */\n  tag_74\n    /* \"#utility.yul\":3983:3986   */\n  dup3\n    /* \"#utility.yul\":3950:3987   */\n  tag_7\n  jump\t// in\ntag_74:\n    /* \"#utility.yul\":4052:4070   */\n  0xffffffffffffffff\n    /* \"#utility.yul\":4044:4050   */\n  dup2\n    /* \"#utility.yul\":4041:4071   */\n  gt\n    /* \"#utility.yul\":4038:4094   */\n  iszero\n  tag_75\n  jumpi\n    /* \"#utility.yul\":4074:4092   */\n  tag_76\n  tag_8\n  jump\t// in\ntag_76:\n    /* \"#utility.yul\":4038:4094   */\ntag_75:\n    /* \"#utility.yul\":4118:4156   */\n  tag_77\n    /* \"#utility.yul\":4150:4154   */\n  dup3\n    /* \"#utility.yul\":4144:4155   */\n  sload\n    /* \"#utility.yul\":4118:4156   */\n  tag_10\n  jump\t// in\ntag_77:\n    /* \"#utility.yul\":4203:4270   */\n  tag_78\n    /* \"#utility.yul\":4263:4269   */\n  dup3\n    /* \"#utility.yul\":4255:4261   */\n  dup3\n    /* \"#utility.yul\":4249:4253   */\n  dup6\n    /* \"#utility.yul\":4203:4270   */\n  tag_23\n  jump\t// in\ntag_78:\n    /* \"#utility.yul\":4297:4298   */\n  0x00\n    /* \"#utility.yul\":4321:4325   */\n  0x20\n    /* \"#utility.yul\":4308:4325   */\n  swap1\n  pop\n    /* \"#utility.yul\":4353:4355   */\n  0x1f\n    /* \"#utility.yul\":4345:4351   */\n  dup4\n    /* \"#utility.yul\":4342:4356   */\n  gt\n    /* \"#utility.yul\":4370:4371   */\n  0x01\n    /* \"#utility.yul\":4365:4983   */\n  dup2\n  eq\n  tag_80\n  jumpi\n    /* \"#utility.yul\":5027:5028   */\n  0x00\n    /* \"#utility.yul\":5044:5050   */\n  dup5\n    /* \"#utility.yul\":5041:5118   */\n  iszero\n  tag_81\n  jumpi\n    /* \"#utility.yul\":5093:5102   */\n  dup3\n    /* \"#utility.yul\":5088:5091   */\n  dup8\n    /* \"#utility.yul\":5084:5103   */\n  add\n    /* \"#utility.yul\":5078:5104   */\n  mload\n    /* \"#utility.yul\":5069:5104   */\n  swap1\n  pop\n    /* \"#utility.yul\":5041:5118   */\ntag_81:\n    /* \"#utility.yul\":5144:5211   */\n  tag_82\n    /* \"#utility.yul\":5204:5210   */\n  dup6\n    /* \"#utility.yul\":5197:5202   */\n  dup3\n    /* \"#utility.yul\":5144:5211   */\n  tag_26\n  jump\t// in\ntag_82:\n    /* \"#utility.yul\":5138:5142   */\n  dup7\n    /* \"#utility.yul\":5131:5212   */\n  sstore\n    /* \"#utility.yul\":5000:5222   */\n  pop\n    /* \"#utility.yul\":4335:5222   */\n  jump(tag_79)\n    /* \"#utility.yul\":4365:4983   */\ntag_80:\n    /* \"#utility.yul\":4417:4421   */\n  0x1f\n    /* \"#utility.yul\":4413:4422   */\n  not\n    /* \"#utility.yul\":4405:4411   */\n  dup5\n    /* \"#utility.yul\":4401:4423   */\n  and\n    /* \"#utility.yul\":4451:4488   */\n  tag_83\n    /* \"#utility.yul\":4483:4487   */\n  dup7\n    /* \"#utility.yul\":4451:4488   */\n  tag_11\n  jump\t// in\ntag_83:\n    /* \"#utility.yul\":4510:4511   */\n  0x00\n    /* \"#utility.yul\":4524:4732   */\ntag_84:\n    /* \"#utility.yul\":4538:4545   */\n  dup3\n    /* \"#utility.yul\":4535:4536   */\n  dup2\n    /* \"#utility.yul\":4532:4546   */\n  lt\n    /* \"#utility.yul\":4524:4732   */\n  iszero\n  tag_86\n  jumpi\n    /* \"#utility.yul\":4617:4626   */\n  dup5\n    /* \"#utility.yul\":4612:4615   */\n  dup10\n    /* \"#utility.yul\":4608:4627   */\n  add\n    /* \"#utility.yul\":4602:4628   */\n  mload\n    /* \"#utility.yul\":4594:4600   */\n  dup3\n    /* \"#utility.yul\":4587:4629   */\n  sstore\n    /* \"#utility.yul\":4668:4669   */\n  0x01\n    /* \"#utility.yul\":4660:4666   */\n  dup3\n    /* \"#utility.yul\":4656:4670   */\n  add\n    /* \"#utility.yul\":4646:4670   */\n  swap2\n  pop\n    /* \"#utility.yul\":4715:4717   */\n  0x20\n    /* \"#utility.yul\":4704:4713   */\n  dup6\n    /* \"#utility.yul\":4700:4718   */\n  add\n    /* \"#utility.yul\":4687:4718   */\n  swap5\n  pop\n    /* \"#utility.yul\":4561:4565   */\n  0x20\n    /* \"#utility.yul\":4558:4559   */\n  dup2\n    /* \"#utility.yul\":4554:4566   */\n  add\n    /* \"#utility.yul\":4549:4566   */\n  swap1\n  pop\n    /* \"#utility.yul\":4524:4732   */\n  jump(tag_84)\ntag_86:\n    /* \"#utility.yul\":4760:4766   */\n  dup7\n    /* \"#utility.yul\":4751:4758   */\n  dup4\n    /* \"#utility.yul\":4748:4767   */\n  lt\n    /* \"#utility.yul\":4745:4924   */\n  iszero\n  tag_87\n  jumpi\n    /* \"#utility.yul\":4818:4827   */\n  dup5\n    /* \"#utility.yul\":4813:4816   */\n  dup10\n    /* \"#utility.yul\":4809:4828   */\n  add\n    /* \"#utility.yul\":4803:4829   */\n  mload\n    /* \"#utility.yul\":4861:4909   */\n  tag_88\n    /* \"#utility.yul\":4903:4907   */\n  0x1f\n    /* \"#utility.yul\":4895:4901   */\n  dup10\n    /* \"#utility.yul\":4891:4908   */\n  and\n    /* \"#utility.yul\":4880:4889   */\n  dup3\n    /* \"#utility.yul\":4861:4909   */\n  tag_25\n  jump\t// in\ntag_88:\n    /* \"#utility.yul\":4853:4859   */\n  dup4\n    /* \"#utility.yul\":4846:4910   */\n  sstore\n    /* \"#utility.yul\":4768:4924   */\n  pop\n    /* \"#utility.yul\":4745:4924   */\ntag_87:\n    /* \"#utility.yul\":4970:4971   */\n  0x01\n    /* \"#utility.yul\":4966:4967   */\n  0x02\n    /* \"#utility.yul\":4958:4964   */\n  dup9\n    /* \"#utility.yul\":4954:4968   */\n  mul\n    /* \"#utility.yul\":4950:4972   */\n  add\n    /* \"#utility.yul\":4944:4948   */\n  dup9\n    /* \"#utility.yul\":4937:4973   */\n  sstore\n    /* \"#utility.yul\":4372:4983   */\n  pop\n  pop\n  pop\n    /* \"#utility.yul\":4335:5222   */\ntag_79:\n  pop\n    /* \"#utility.yul\":3925:5228   */\n  pop\n  pop\n  pop\n    /* \"#utility.yul\":3833:5228   */\n  pop\n  pop\n  jump\t// out\n    /* \"contracts/StorageContractA.sol\":64:1481  contract StorageContractA { ... */\ntag_6:\n  dataSize(sub_0)\n  dup1\n  dataOffset(sub_0)\n  0x00\n  codecopy\n  0x00\n  return\nstop\n\nsub_0: assembly {\n        /* \"contracts/StorageContractA.sol\":64:1481  contract StorageContractA { ... */\n      mstore(0x40, 0x80)\n      jumpi(tag_1, lt(calldatasize, 0x04))\n      shr(0xe0, calldataload(0x00))\n      dup1\n      0x1f429731\n      eq\n      tag_3\n      jumpi\n      dup1\n      0x2db88051\n      eq\n      tag_4\n      jumpi\n      dup1\n      0x52960cab\n      eq\n      tag_5\n      jumpi\n      dup1\n      0xaaf10f42\n      eq\n      tag_6\n      jumpi\n      dup1\n      0xb85a2a04\n      eq\n      tag_7\n      jumpi\n      dup1\n      0xd784d426\n      eq\n      tag_8\n      jumpi\n      jump(tag_2)\n    tag_1:\n    tag_2:\n        /* \"contracts/StorageContractA.sol\":928:950  address implementation */\n      0x00\n        /* \"contracts/StorageContractA.sol\":953:972  getImplementation() */\n      tag_11\n        /* \"contracts/StorageContractA.sol\":953:970  getImplementation */\n      tag_12\n        /* \"contracts/StorageContractA.sol\":953:972  getImplementation() */\n      jump\t// in\n    tag_11:\n        /* \"contracts/StorageContractA.sol\":928:972  address implementation = getImplementation() */\n      swap1\n      pop\n        /* \"contracts/StorageContractA.sol\":1016:1017  0 */\n      0x00\n        /* \"contracts/StorageContractA.sol\":990:1018  implementation != address(0) */\n      0xffffffffffffffffffffffffffffffffffffffff\n      and\n        /* \"contracts/StorageContractA.sol\":990:1004  implementation */\n      dup2\n        /* \"contracts/StorageContractA.sol\":990:1018  implementation != address(0) */\n      0xffffffffffffffffffffffffffffffffffffffff\n      and\n      sub\n        /* \"contracts/StorageContractA.sol\":982:1053  require(implementation != address(0), \"ERROR_IMPLEMENTATION_NOT_FOUND\") */\n      tag_13\n      jumpi\n      mload(0x40)\n      0x08c379a000000000000000000000000000000000000000000000000000000000\n      dup2\n      mstore\n      0x04\n      add\n      tag_14\n      swap1\n      tag_15\n      jump\t// in\n    tag_14:\n      mload(0x40)\n      dup1\n      swap2\n      sub\n      swap1\n      revert\n    tag_13:\n        /* \"contracts/StorageContractA.sol\":1108:1112  0x40 */\n      0x40\n        /* \"contracts/StorageContractA.sol\":1102:1113  mload(0x40) */\n      mload\n        /* \"contracts/StorageContractA.sol\":1151:1165  calldatasize() */\n      calldatasize\n        /* \"contracts/StorageContractA.sol\":1148:1149  0 */\n      0x00\n        /* \"contracts/StorageContractA.sol\":1139:1146  pointer */\n      dup3\n        /* \"contracts/StorageContractA.sol\":1126:1166  calldatacopy(pointer, 0, calldatasize()) */\n      calldatacopy\n        /* \"contracts/StorageContractA.sol\":1257:1258  0 */\n      0x00\n        /* \"contracts/StorageContractA.sol\":1254:1255  0 */\n      dup1\n        /* \"contracts/StorageContractA.sol\":1238:1252  calldatasize() */\n      calldatasize\n        /* \"contracts/StorageContractA.sol\":1229:1236  pointer */\n      dup4\n        /* \"contracts/StorageContractA.sol\":1213:1227  implementation */\n      dup6\n        /* \"contracts/StorageContractA.sol\":1206:1211  gas() */\n      gas\n        /* \"contracts/StorageContractA.sol\":1193:1259  delegatecall(gas(), implementation, pointer, calldatasize(), 0, 0) */\n      delegatecall\n        /* \"contracts/StorageContractA.sol\":1284:1300  returndatasize() */\n      returndatasize\n        /* \"contracts/StorageContractA.sol\":1340:1344  size */\n      dup1\n        /* \"contracts/StorageContractA.sol\":1337:1338  0 */\n      0x00\n        /* \"contracts/StorageContractA.sol\":1328:1335  pointer */\n      dup5\n        /* \"contracts/StorageContractA.sol\":1313:1345  returndatacopy(pointer, 0, size) */\n      returndatacopy\n        /* \"contracts/StorageContractA.sol\":1366:1372  result */\n      dup2\n        /* \"contracts/StorageContractA.sol\":1390:1391  0 */\n      0x00\n        /* \"contracts/StorageContractA.sol\":1385:1417  case 0 { revert(pointer, size) } */\n      dup2\n      eq\n      tag_17\n      jumpi\n        /* \"contracts/StorageContractA.sol\":1456:1460  size */\n      dup2\n        /* \"contracts/StorageContractA.sol\":1447:1454  pointer */\n      dup5\n        /* \"contracts/StorageContractA.sol\":1440:1461  return(pointer, size) */\n      return\n        /* \"contracts/StorageContractA.sol\":1385:1417  case 0 { revert(pointer, size) } */\n    tag_17:\n        /* \"contracts/StorageContractA.sol\":1410:1414  size */\n      dup2\n        /* \"contracts/StorageContractA.sol\":1401:1408  pointer */\n      dup5\n        /* \"contracts/StorageContractA.sol\":1394:1415  revert(pointer, size) */\n      revert\n        /* \"contracts/StorageContractA.sol\":591:683  function setStringAValue1(string memory value) public {... */\n    tag_3:\n      callvalue\n      dup1\n      iszero\n      tag_18\n      jumpi\n      0x00\n      dup1\n      revert\n    tag_18:\n      pop\n      tag_19\n      0x04\n      dup1\n      calldatasize\n      sub\n      dup2\n      add\n      swap1\n      tag_20\n      swap2\n      swap1\n      tag_21\n      jump\t// in\n    tag_20:\n      tag_22\n      jump\t// in\n    tag_19:\n      stop\n        /* \"contracts/StorageContractA.sol\":247:298  string public stringAvalue2 = \"string value of A 2\" */\n    tag_4:\n      callvalue\n      dup1\n      iszero\n      tag_23\n      jumpi\n      0x00\n      dup1\n      revert\n    tag_23:\n      pop\n      tag_24\n      tag_25\n      jump\t// in\n    tag_24:\n      mload(0x40)\n      tag_26\n      swap2\n      swap1\n      tag_27\n      jump\t// in\n    tag_26:\n      mload(0x40)\n      dup1\n      swap2\n      sub\n      swap1\n      return\n        /* \"contracts/StorageContractA.sol\":190:241  string public stringAvalue1 = \"string value of A 1\" */\n    tag_5:\n      callvalue\n      dup1\n      iszero\n      tag_28\n      jumpi\n      0x00\n      dup1\n      revert\n    tag_28:\n      pop\n      tag_29\n      tag_30\n      jump\t// in\n    tag_29:\n      mload(0x40)\n      tag_31\n      swap2\n      swap1\n      tag_27\n      jump\t// in\n    tag_31:\n      mload(0x40)\n      dup1\n      swap2\n      sub\n      swap1\n      return\n        /* \"contracts/StorageContractA.sol\":689:884  function getImplementation() public view returns (address _implementation) {... */\n    tag_6:\n      callvalue\n      dup1\n      iszero\n      tag_32\n      jumpi\n      0x00\n      dup1\n      revert\n    tag_32:\n      pop\n      tag_33\n      tag_12\n      jump\t// in\n    tag_33:\n      mload(0x40)\n      tag_34\n      swap2\n      swap1\n      tag_35\n      jump\t// in\n    tag_34:\n      mload(0x40)\n      dup1\n      swap2\n      sub\n      swap1\n      return\n        /* \"contracts/StorageContractA.sol\":304:355  string public stringAvalue3 = \"string value of A 3\" */\n    tag_7:\n      callvalue\n      dup1\n      iszero\n      tag_36\n      jumpi\n      0x00\n      dup1\n      revert\n    tag_36:\n      pop\n      tag_37\n      tag_38\n      jump\t// in\n    tag_37:\n      mload(0x40)\n      tag_39\n      swap2\n      swap1\n      tag_27\n      jump\t// in\n    tag_39:\n      mload(0x40)\n      dup1\n      swap2\n      sub\n      swap1\n      return\n        /* \"contracts/StorageContractA.sol\":363:585  function setImplementation(address _implementation) public {... */\n    tag_8:\n      callvalue\n      dup1\n      iszero\n      tag_40\n      jumpi\n      0x00\n      dup1\n      revert\n    tag_40:\n      pop\n      tag_41\n      0x04\n      dup1\n      calldatasize\n      sub\n      dup2\n      add\n      swap1\n      tag_42\n      swap2\n      swap1\n      tag_43\n      jump\t// in\n    tag_42:\n      tag_44\n      jump\t// in\n    tag_41:\n      stop\n        /* \"contracts/StorageContractA.sol\":689:884  function getImplementation() public view returns (address _implementation) {... */\n    tag_12:\n        /* \"contracts/StorageContractA.sol\":739:762  address _implementation */\n      0x00\n        /* \"contracts/StorageContractA.sol\":774:785  bytes32 key */\n      dup1\n        /* \"contracts/StorageContractA.sol\":142:183  keccak256(\"set.implementation.initiator\") */\n      0x2d64715730a5adb8734b2b84045c82cbeba1c79b838ef4b59c5959d0ecf9e269\n        /* \"contracts/StorageContractA.sol\":774:806  bytes32 key = IMPLEMENTATION_KEY */\n      swap1\n      pop\n        /* \"contracts/StorageContractA.sol\":864:867  key */\n      dup1\n        /* \"contracts/StorageContractA.sol\":858:868  sload(key) */\n      sload\n        /* \"contracts/StorageContractA.sol\":839:868  _implementation := sload(key) */\n      swap2\n      pop\n        /* \"contracts/StorageContractA.sol\":825:878  {... */\n      pop\n        /* \"contracts/StorageContractA.sol\":689:884  function getImplementation() public view returns (address _implementation) {... */\n      swap1\n      jump\t// out\n        /* \"contracts/StorageContractA.sol\":591:683  function setStringAValue1(string memory value) public {... */\n    tag_22:\n        /* \"contracts/StorageContractA.sol\":671:676  value */\n      dup1\n        /* \"contracts/StorageContractA.sol\":655:668  stringAvalue1 */\n      0x00\n        /* \"contracts/StorageContractA.sol\":655:676  stringAvalue1 = value */\n      swap1\n      dup2\n      tag_47\n      swap2\n      swap1\n      tag_48\n      jump\t// in\n    tag_47:\n      pop\n        /* \"contracts/StorageContractA.sol\":591:683  function setStringAValue1(string memory value) public {... */\n      pop\n      jump\t// out\n        /* \"contracts/StorageContractA.sol\":247:298  string public stringAvalue2 = \"string value of A 2\" */\n    tag_25:\n      0x01\n      dup1\n      sload\n      tag_49\n      swap1\n      tag_50\n      jump\t// in\n    tag_49:\n      dup1\n      0x1f\n      add\n      0x20\n      dup1\n      swap2\n      div\n      mul\n      0x20\n      add\n      mload(0x40)\n      swap1\n      dup2\n      add\n      0x40\n      mstore\n      dup1\n      swap3\n      swap2\n      swap1\n      dup2\n      dup2\n      mstore\n      0x20\n      add\n      dup3\n      dup1\n      sload\n      tag_51\n      swap1\n      tag_50\n      jump\t// in\n    tag_51:\n      dup1\n      iszero\n      tag_52\n      jumpi\n      dup1\n      0x1f\n      lt\n      tag_53\n      jumpi\n      0x0100\n      dup1\n      dup4\n      sload\n      div\n      mul\n      dup4\n      mstore\n      swap2\n      0x20\n      add\n      swap2\n      jump(tag_52)\n    tag_53:\n      dup3\n      add\n      swap2\n      swap1\n      0x00\n      mstore\n      keccak256(0x00, 0x20)\n      swap1\n    tag_54:\n      dup2\n      sload\n      dup2\n      mstore\n      swap1\n      0x01\n      add\n      swap1\n      0x20\n      add\n      dup1\n      dup4\n      gt\n      tag_54\n      jumpi\n      dup3\n      swap1\n      sub\n      0x1f\n      and\n      dup3\n      add\n      swap2\n    tag_52:\n      pop\n      pop\n      pop\n      pop\n      pop\n      dup2\n      jump\t// out\n        /* \"contracts/StorageContractA.sol\":190:241  string public stringAvalue1 = \"string value of A 1\" */\n    tag_30:\n      0x00\n      dup1\n      sload\n      tag_55\n      swap1\n      tag_50\n      jump\t// in\n    tag_55:\n      dup1\n      0x1f\n      add\n      0x20\n      dup1\n      swap2\n      div\n      mul\n      0x20\n      add\n      mload(0x40)\n      swap1\n      dup2\n      add\n      0x40\n      mstore\n      dup1\n      swap3\n      swap2\n      swap1\n      dup2\n      dup2\n      mstore\n      0x20\n      add\n      dup3\n      dup1\n      sload\n      tag_56\n      swap1\n      tag_50\n      jump\t// in\n    tag_56:\n      dup1\n      iszero\n      tag_57\n      jumpi\n      dup1\n      0x1f\n      lt\n      tag_58\n      jumpi\n      0x0100\n      dup1\n      dup4\n      sload\n      div\n      mul\n      dup4\n      mstore\n      swap2\n      0x20\n      add\n      swap2\n      jump(tag_57)\n    tag_58:\n      dup3\n      add\n      swap2\n      swap1\n      0x00\n      mstore\n      keccak256(0x00, 0x20)\n      swap1\n    tag_59:\n      dup2\n      sload\n      dup2\n      mstore\n      swap1\n      0x01\n      add\n      swap1\n      0x20\n      add\n      dup1\n      dup4\n      gt\n      tag_59\n      jumpi\n      dup3\n      swap1\n      sub\n      0x1f\n      and\n      dup3\n      add\n      swap2\n    tag_57:\n      pop\n      pop\n      pop\n      pop\n      pop\n      dup2\n      jump\t// out\n        /* \"contracts/StorageContractA.sol\":304:355  string public stringAvalue3 = \"string value of A 3\" */\n    tag_38:\n      0x02\n      dup1\n      sload\n      tag_60\n      swap1\n      tag_50\n      jump\t// in\n    tag_60:\n      dup1\n      0x1f\n      add\n      0x20\n      dup1\n      swap2\n      div\n      mul\n      0x20\n      add\n      mload(0x40)\n      swap1\n      dup2\n      add\n      0x40\n      mstore\n      dup1\n      swap3\n      swap2\n      swap1\n      dup2\n      dup2\n      mstore\n      0x20\n      add\n      dup3\n      dup1\n      sload\n      tag_61\n      swap1\n      tag_50\n      jump\t// in\n    tag_61:\n      dup1\n      iszero\n      tag_62\n      jumpi\n      dup1\n      0x1f\n      lt\n      tag_63\n      jumpi\n      0x0100\n      dup1\n      dup4\n      sload\n      div\n      mul\n      dup4\n      mstore\n      swap2\n      0x20\n      add\n      swap2\n      jump(tag_62)\n    tag_63:\n      dup3\n      add\n      swap2\n      swap1\n      0x00\n      mstore\n      keccak256(0x00, 0x20)\n      swap1\n    tag_64:\n      dup2\n      sload\n      dup2\n      mstore\n      swap1\n      0x01\n      add\n      swap1\n      0x20\n      add\n      dup1\n      dup4\n      gt\n      tag_64\n      jumpi\n      dup3\n      swap1\n      sub\n      0x1f\n      and\n      dup3\n      add\n      swap2\n    tag_62:\n      pop\n      pop\n      pop\n      pop\n      pop\n      dup2\n      jump\t// out\n        /* \"contracts/StorageContractA.sol\":363:585  function setImplementation(address _implementation) public {... */\n    tag_44:\n        /* \"contracts/StorageContractA.sol\":476:487  bytes32 key */\n      0x00\n        /* \"contracts/StorageContractA.sol\":142:183  keccak256(\"set.implementation.initiator\") */\n      0x2d64715730a5adb8734b2b84045c82cbeba1c79b838ef4b59c5959d0ecf9e269\n        /* \"contracts/StorageContractA.sol\":476:508  bytes32 key = IMPLEMENTATION_KEY */\n      swap1\n      pop\n        /* \"contracts/StorageContractA.sol\":553:568  _implementation */\n      dup2\n        /* \"contracts/StorageContractA.sol\":548:551  key */\n      dup2\n        /* \"contracts/StorageContractA.sol\":541:569  sstore(key, _implementation) */\n      sstore\n        /* \"contracts/StorageContractA.sol\":527:579  {... */\n      pop\n        /* \"contracts/StorageContractA.sol\":363:585  function setImplementation(address _implementation) public {... */\n      pop\n      jump\t// out\n        /* \"#utility.yul\":7:176   */\n    tag_66:\n        /* \"#utility.yul\":91:102   */\n      0x00\n        /* \"#utility.yul\":125:131   */\n      dup3\n        /* \"#utility.yul\":120:123   */\n      dup3\n        /* \"#utility.yul\":113:132   */\n      mstore\n        /* \"#utility.yul\":165:169   */\n      0x20\n        /* \"#utility.yul\":160:163   */\n      dup3\n        /* \"#utility.yul\":156:170   */\n      add\n        /* \"#utility.yul\":141:170   */\n      swap1\n      pop\n        /* \"#utility.yul\":7:176   */\n      swap3\n      swap2\n      pop\n      pop\n      jump\t// out\n        /* \"#utility.yul\":182:362   */\n    tag_67:\n        /* \"#utility.yul\":322:354   */\n      0x4552524f525f494d504c454d454e544154494f4e5f4e4f545f464f554e440000\n        /* \"#utility.yul\":318:319   */\n      0x00\n        /* \"#utility.yul\":310:316   */\n      dup3\n        /* \"#utility.yul\":306:320   */\n      add\n        /* \"#utility.yul\":299:355   */\n      mstore\n        /* \"#utility.yul\":182:362   */\n      pop\n      jump\t// out\n        /* \"#utility.yul\":368:734   */\n    tag_68:\n        /* \"#utility.yul\":510:513   */\n      0x00\n        /* \"#utility.yul\":531:598   */\n      tag_111\n        /* \"#utility.yul\":595:597   */\n      0x1e\n        /* \"#utility.yul\":590:593   */\n      dup4\n        /* \"#utility.yul\":531:598   */\n      tag_66\n      jump\t// in\n    tag_111:\n        /* \"#utility.yul\":524:598   */\n      swap2\n      pop\n        /* \"#utility.yul\":607:700   */\n      tag_112\n        /* \"#utility.yul\":696:699   */\n      dup3\n        /* \"#utility.yul\":607:700   */\n      tag_67\n      jump\t// in\n    tag_112:\n        /* \"#utility.yul\":725:727   */\n      0x20\n        /* \"#utility.yul\":720:723   */\n      dup3\n        /* \"#utility.yul\":716:728   */\n      add\n        /* \"#utility.yul\":709:728   */\n      swap1\n      pop\n        /* \"#utility.yul\":368:734   */\n      swap2\n      swap1\n      pop\n      jump\t// out\n        /* \"#utility.yul\":740:1159   */\n    tag_15:\n        /* \"#utility.yul\":906:910   */\n      0x00\n        /* \"#utility.yul\":944:946   */\n      0x20\n        /* \"#utility.yul\":933:942   */\n      dup3\n        /* \"#utility.yul\":929:947   */\n      add\n        /* \"#utility.yul\":921:947   */\n      swap1\n      pop\n        /* \"#utility.yul\":993:1002   */\n      dup2\n        /* \"#utility.yul\":987:991   */\n      dup2\n        /* \"#utility.yul\":983:1003   */\n      sub\n        /* \"#utility.yul\":979:980   */\n      0x00\n        /* \"#utility.yul\":968:977   */\n      dup4\n        /* \"#utility.yul\":964:981   */\n      add\n        /* \"#utility.yul\":957:1004   */\n      mstore\n        /* \"#utility.yul\":1021:1152   */\n      tag_114\n        /* \"#utility.yul\":1147:1151   */\n      dup2\n        /* \"#utility.yul\":1021:1152   */\n      tag_68\n      jump\t// in\n    tag_114:\n        /* \"#utility.yul\":1013:1152   */\n      swap1\n      pop\n        /* \"#utility.yul\":740:1159   */\n      swap2\n      swap1\n      pop\n      jump\t// out\n        /* \"#utility.yul\":1165:1240   */\n    tag_69:\n        /* \"#utility.yul\":1198:1204   */\n      0x00\n        /* \"#utility.yul\":1231:1233   */\n      0x40\n        /* \"#utility.yul\":1225:1234   */\n      mload\n        /* \"#utility.yul\":1215:1234   */\n      swap1\n      pop\n        /* \"#utility.yul\":1165:1240   */\n      swap1\n      jump\t// out\n        /* \"#utility.yul\":1246:1363   */\n    tag_70:\n        /* \"#utility.yul\":1355:1356   */\n      0x00\n        /* \"#utility.yul\":1352:1353   */\n      dup1\n        /* \"#utility.yul\":1345:1357   */\n      revert\n        /* \"#utility.yul\":1369:1486   */\n    tag_71:\n        /* \"#utility.yul\":1478:1479   */\n      0x00\n        /* \"#utility.yul\":1475:1476   */\n      dup1\n        /* \"#utility.yul\":1468:1480   */\n      revert\n        /* \"#utility.yul\":1492:1609   */\n    tag_72:\n        /* \"#utility.yul\":1601:1602   */\n      0x00\n        /* \"#utility.yul\":1598:1599   */\n      dup1\n        /* \"#utility.yul\":1591:1603   */\n      revert\n        /* \"#utility.yul\":1615:1732   */\n    tag_73:\n        /* \"#utility.yul\":1724:1725   */\n      0x00\n        /* \"#utility.yul\":1721:1722   */\n      dup1\n        /* \"#utility.yul\":1714:1726   */\n      revert\n        /* \"#utility.yul\":1738:1840   */\n    tag_74:\n        /* \"#utility.yul\":1779:1785   */\n      0x00\n        /* \"#utility.yul\":1830:1832   */\n      0x1f\n        /* \"#utility.yul\":1826:1833   */\n      not\n        /* \"#utility.yul\":1821:1823   */\n      0x1f\n        /* \"#utility.yul\":1814:1819   */\n      dup4\n        /* \"#utility.yul\":1810:1824   */\n      add\n        /* \"#utility.yul\":1806:1834   */\n      and\n        /* \"#utility.yul\":1796:1834   */\n      swap1\n      pop\n        /* \"#utility.yul\":1738:1840   */\n      swap2\n      swap1\n      pop\n      jump\t// out\n        /* \"#utility.yul\":1846:2026   */\n    tag_75:\n        /* \"#utility.yul\":1894:1971   */\n      0x4e487b7100000000000000000000000000000000000000000000000000000000\n        /* \"#utility.yul\":1891:1892   */\n      0x00\n        /* \"#utility.yul\":1884:1972   */\n      mstore\n        /* \"#utility.yul\":1991:1995   */\n      0x41\n        /* \"#utility.yul\":1988:1989   */\n      0x04\n        /* \"#utility.yul\":1981:1996   */\n      mstore\n        /* \"#utility.yul\":2015:2019   */\n      0x24\n        /* \"#utility.yul\":2012:2013   */\n      0x00\n        /* \"#utility.yul\":2005:2020   */\n      revert\n        /* \"#utility.yul\":2032:2313   */\n    tag_76:\n        /* \"#utility.yul\":2115:2142   */\n      tag_123\n        /* \"#utility.yul\":2137:2141   */\n      dup3\n        /* \"#utility.yul\":2115:2142   */\n      tag_74\n      jump\t// in\n    tag_123:\n        /* \"#utility.yul\":2107:2113   */\n      dup2\n        /* \"#utility.yul\":2103:2143   */\n      add\n        /* \"#utility.yul\":2245:2251   */\n      dup2\n        /* \"#utility.yul\":2233:2243   */\n      dup2\n        /* \"#utility.yul\":2230:2252   */\n      lt\n        /* \"#utility.yul\":2209:2227   */\n      0xffffffffffffffff\n        /* \"#utility.yul\":2197:2207   */\n      dup3\n        /* \"#utility.yul\":2194:2228   */\n      gt\n        /* \"#utility.yul\":2191:2253   */\n      or\n        /* \"#utility.yul\":2188:2276   */\n      iszero\n      tag_124\n      jumpi\n        /* \"#utility.yul\":2256:2274   */\n      tag_125\n      tag_75\n      jump\t// in\n    tag_125:\n        /* \"#utility.yul\":2188:2276   */\n    tag_124:\n        /* \"#utility.yul\":2296:2306   */\n      dup1\n        /* \"#utility.yul\":2292:2294   */\n      0x40\n        /* \"#utility.yul\":2285:2307   */\n      mstore\n        /* \"#utility.yul\":2075:2313   */\n      pop\n        /* \"#utility.yul\":2032:2313   */\n      pop\n      pop\n      jump\t// out\n        /* \"#utility.yul\":2319:2448   */\n    tag_77:\n        /* \"#utility.yul\":2353:2359   */\n      0x00\n        /* \"#utility.yul\":2380:2400   */\n      tag_127\n      tag_69\n      jump\t// in\n    tag_127:\n        /* \"#utility.yul\":2370:2400   */\n      swap1\n      pop\n        /* \"#utility.yul\":2409:2442   */\n      tag_128\n        /* \"#utility.yul\":2437:2441   */\n      dup3\n        /* \"#utility.yul\":2429:2435   */\n      dup3\n        /* \"#utility.yul\":2409:2442   */\n      tag_76\n      jump\t// in\n    tag_128:\n        /* \"#utility.yul\":2319:2448   */\n      swap2\n      swap1\n      pop\n      jump\t// out\n        /* \"#utility.yul\":2454:2762   */\n    tag_78:\n        /* \"#utility.yul\":2516:2520   */\n      0x00\n        /* \"#utility.yul\":2606:2624   */\n      0xffffffffffffffff\n        /* \"#utility.yul\":2598:2604   */\n      dup3\n        /* \"#utility.yul\":2595:2625   */\n      gt\n        /* \"#utility.yul\":2592:2648   */\n      iszero\n      tag_130\n      jumpi\n        /* \"#utility.yul\":2628:2646   */\n      tag_131\n      tag_75\n      jump\t// in\n    tag_131:\n        /* \"#utility.yul\":2592:2648   */\n    tag_130:\n        /* \"#utility.yul\":2666:2695   */\n      tag_132\n        /* \"#utility.yul\":2688:2694   */\n      dup3\n        /* \"#utility.yul\":2666:2695   */\n      tag_74\n      jump\t// in\n    tag_132:\n        /* \"#utility.yul\":2658:2695   */\n      swap1\n      pop\n        /* \"#utility.yul\":2750:2754   */\n      0x20\n        /* \"#utility.yul\":2744:2748   */\n      dup2\n        /* \"#utility.yul\":2740:2755   */\n      add\n        /* \"#utility.yul\":2732:2755   */\n      swap1\n      pop\n        /* \"#utility.yul\":2454:2762   */\n      swap2\n      swap1\n      pop\n      jump\t// out\n        /* \"#utility.yul\":2768:2916   */\n    tag_79:\n        /* \"#utility.yul\":2866:2872   */\n      dup3\n        /* \"#utility.yul\":2861:2864   */\n      dup2\n        /* \"#utility.yul\":2856:2859   */\n      dup4\n        /* \"#utility.yul\":2843:2873   */\n      calldatacopy\n        /* \"#utility.yul\":2907:2908   */\n      0x00\n        /* \"#utility.yul\":2898:2904   */\n      dup4\n        /* \"#utility.yul\":2893:2896   */\n      dup4\n        /* \"#utility.yul\":2889:2905   */\n      add\n        /* \"#utility.yul\":2882:2909   */\n      mstore\n        /* \"#utility.yul\":2768:2916   */\n      pop\n      pop\n      pop\n      jump\t// out\n        /* \"#utility.yul\":2922:3347   */\n    tag_80:\n        /* \"#utility.yul\":3000:3005   */\n      0x00\n        /* \"#utility.yul\":3025:3091   */\n      tag_135\n        /* \"#utility.yul\":3041:3090   */\n      tag_136\n        /* \"#utility.yul\":3083:3089   */\n      dup5\n        /* \"#utility.yul\":3041:3090   */\n      tag_78\n      jump\t// in\n    tag_136:\n        /* \"#utility.yul\":3025:3091   */\n      tag_77\n      jump\t// in\n    tag_135:\n        /* \"#utility.yul\":3016:3091   */\n      swap1\n      pop\n        /* \"#utility.yul\":3114:3120   */\n      dup3\n        /* \"#utility.yul\":3107:3112   */\n      dup2\n        /* \"#utility.yul\":3100:3121   */\n      mstore\n        /* \"#utility.yul\":3152:3156   */\n      0x20\n        /* \"#utility.yul\":3145:3150   */\n      dup2\n        /* \"#utility.yul\":3141:3157   */\n      add\n        /* \"#utility.yul\":3190:3193   */\n      dup5\n        /* \"#utility.yul\":3181:3187   */\n      dup5\n        /* \"#utility.yul\":3176:3179   */\n      dup5\n        /* \"#utility.yul\":3172:3188   */\n      add\n        /* \"#utility.yul\":3169:3194   */\n      gt\n        /* \"#utility.yul\":3166:3278   */\n      iszero\n      tag_137\n      jumpi\n        /* \"#utility.yul\":3197:3276   */\n      tag_138\n      tag_73\n      jump\t// in\n    tag_138:\n        /* \"#utility.yul\":3166:3278   */\n    tag_137:\n        /* \"#utility.yul\":3287:3341   */\n      tag_139\n        /* \"#utility.yul\":3334:3340   */\n      dup5\n        /* \"#utility.yul\":3329:3332   */\n      dup3\n        /* \"#utility.yul\":3324:3327   */\n      dup6\n        /* \"#utility.yul\":3287:3341   */\n      tag_79\n      jump\t// in\n    tag_139:\n        /* \"#utility.yul\":3006:3347   */\n      pop\n        /* \"#utility.yul\":2922:3347   */\n      swap4\n      swap3\n      pop\n      pop\n      pop\n      jump\t// out\n        /* \"#utility.yul\":3367:3707   */\n    tag_81:\n        /* \"#utility.yul\":3423:3428   */\n      0x00\n        /* \"#utility.yul\":3472:3475   */\n      dup3\n        /* \"#utility.yul\":3465:3469   */\n      0x1f\n        /* \"#utility.yul\":3457:3463   */\n      dup4\n        /* \"#utility.yul\":3453:3470   */\n      add\n        /* \"#utility.yul\":3449:3476   */\n      slt\n        /* \"#utility.yul\":3439:3561   */\n      tag_141\n      jumpi\n        /* \"#utility.yul\":3480:3559   */\n      tag_142\n      tag_72\n      jump\t// in\n    tag_142:\n        /* \"#utility.yul\":3439:3561   */\n    tag_141:\n        /* \"#utility.yul\":3597:3603   */\n      dup2\n        /* \"#utility.yul\":3584:3604   */\n      calldataload\n        /* \"#utility.yul\":3622:3701   */\n      tag_143\n        /* \"#utility.yul\":3697:3700   */\n      dup5\n        /* \"#utility.yul\":3689:3695   */\n      dup3\n        /* \"#utility.yul\":3682:3686   */\n      0x20\n        /* \"#utility.yul\":3674:3680   */\n      dup7\n        /* \"#utility.yul\":3670:3687   */\n      add\n        /* \"#utility.yul\":3622:3701   */\n      tag_80\n      jump\t// in\n    tag_143:\n        /* \"#utility.yul\":3613:3701   */\n      swap2\n      pop\n        /* \"#utility.yul\":3429:3707   */\n      pop\n        /* \"#utility.yul\":3367:3707   */\n      swap3\n      swap2\n      pop\n      pop\n      jump\t// out\n        /* \"#utility.yul\":3713:4222   */\n    tag_21:\n        /* \"#utility.yul\":3782:3788   */\n      0x00\n        /* \"#utility.yul\":3831:3833   */\n      0x20\n        /* \"#utility.yul\":3819:3828   */\n      dup3\n        /* \"#utility.yul\":3810:3817   */\n      dup5\n        /* \"#utility.yul\":3806:3829   */\n      sub\n        /* \"#utility.yul\":3802:3834   */\n      slt\n        /* \"#utility.yul\":3799:3918   */\n      iszero\n      tag_145\n      jumpi\n        /* \"#utility.yul\":3837:3916   */\n      tag_146\n      tag_70\n      jump\t// in\n    tag_146:\n        /* \"#utility.yul\":3799:3918   */\n    tag_145:\n        /* \"#utility.yul\":3985:3986   */\n      0x00\n        /* \"#utility.yul\":3974:3983   */\n      dup3\n        /* \"#utility.yul\":3970:3987   */\n      add\n        /* \"#utility.yul\":3957:3988   */\n      calldataload\n        /* \"#utility.yul\":4015:4033   */\n      0xffffffffffffffff\n        /* \"#utility.yul\":4007:4013   */\n      dup2\n        /* \"#utility.yul\":4004:4034   */\n      gt\n        /* \"#utility.yul\":4001:4118   */\n      iszero\n      tag_147\n      jumpi\n        /* \"#utility.yul\":4037:4116   */\n      tag_148\n      tag_71\n      jump\t// in\n    tag_148:\n        /* \"#utility.yul\":4001:4118   */\n    tag_147:\n        /* \"#utility.yul\":4142:4205   */\n      tag_149\n        /* \"#utility.yul\":4197:4204   */\n      dup5\n        /* \"#utility.yul\":4188:4194   */\n      dup3\n        /* \"#utility.yul\":4177:4186   */\n      dup6\n        /* \"#utility.yul\":4173:4195   */\n      add\n        /* \"#utility.yul\":4142:4205   */\n      tag_81\n      jump\t// in\n    tag_149:\n        /* \"#utility.yul\":4132:4205   */\n      swap2\n      pop\n        /* \"#utility.yul\":3928:4215   */\n      pop\n        /* \"#utility.yul\":3713:4222   */\n      swap3\n      swap2\n      pop\n      pop\n      jump\t// out\n        /* \"#utility.yul\":4228:4327   */\n    tag_82:\n        /* \"#utility.yul\":4280:4286   */\n      0x00\n        /* \"#utility.yul\":4314:4319   */\n      dup2\n        /* \"#utility.yul\":4308:4320   */\n      mload\n        /* \"#utility.yul\":4298:4320   */\n      swap1\n      pop\n        /* \"#utility.yul\":4228:4327   */\n      swap2\n      swap1\n      pop\n      jump\t// out\n        /* \"#utility.yul\":4333:4472   */\n    tag_83:\n        /* \"#utility.yul\":4422:4428   */\n      dup3\n        /* \"#utility.yul\":4417:4420   */\n      dup2\n        /* \"#utility.yul\":4412:4415   */\n      dup4\n        /* \"#utility.yul\":4406:4429   */\n      mcopy\n        /* \"#utility.yul\":4463:4464   */\n      0x00\n        /* \"#utility.yul\":4454:4460   */\n      dup4\n        /* \"#utility.yul\":4449:4452   */\n      dup4\n        /* \"#utility.yul\":4445:4461   */\n      add\n        /* \"#utility.yul\":4438:4465   */\n      mstore\n        /* \"#utility.yul\":4333:4472   */\n      pop\n      pop\n      pop\n      jump\t// out\n        /* \"#utility.yul\":4478:4855   */\n    tag_84:\n        /* \"#utility.yul\":4566:4569   */\n      0x00\n        /* \"#utility.yul\":4594:4633   */\n      tag_153\n        /* \"#utility.yul\":4627:4632   */\n      dup3\n        /* \"#utility.yul\":4594:4633   */\n      tag_82\n      jump\t// in\n    tag_153:\n        /* \"#utility.yul\":4649:4720   */\n      tag_154\n        /* \"#utility.yul\":4713:4719   */\n      dup2\n        /* \"#utility.yul\":4708:4711   */\n      dup6\n        /* \"#utility.yul\":4649:4720   */\n      tag_66\n      jump\t// in\n    tag_154:\n        /* \"#utility.yul\":4642:4720   */\n      swap4\n      pop\n        /* \"#utility.yul\":4729:4794   */\n      tag_155\n        /* \"#utility.yul\":4787:4793   */\n      dup2\n        /* \"#utility.yul\":4782:4785   */\n      dup6\n        /* \"#utility.yul\":4775:4779   */\n      0x20\n        /* \"#utility.yul\":4768:4773   */\n      dup7\n        /* \"#utility.yul\":4764:4780   */\n      add\n        /* \"#utility.yul\":4729:4794   */\n      tag_83\n      jump\t// in\n    tag_155:\n        /* \"#utility.yul\":4819:4848   */\n      tag_156\n        /* \"#utility.yul\":4841:4847   */\n      dup2\n        /* \"#utility.yul\":4819:4848   */\n      tag_74\n      jump\t// in\n    tag_156:\n        /* \"#utility.yul\":4814:4817   */\n      dup5\n        /* \"#utility.yul\":4810:4849   */\n      add\n        /* \"#utility.yul\":4803:4849   */\n      swap2\n      pop\n        /* \"#utility.yul\":4570:4855   */\n      pop\n        /* \"#utility.yul\":4478:4855   */\n      swap3\n      swap2\n      pop\n      pop\n      jump\t// out\n        /* \"#utility.yul\":4861:5174   */\n    tag_27:\n        /* \"#utility.yul\":4974:4978   */\n      0x00\n        /* \"#utility.yul\":5012:5014   */\n      0x20\n        /* \"#utility.yul\":5001:5010   */\n      dup3\n        /* \"#utility.yul\":4997:5015   */\n      add\n        /* \"#utility.yul\":4989:5015   */\n      swap1\n      pop\n        /* \"#utility.yul\":5061:5070   */\n      dup2\n        /* \"#utility.yul\":5055:5059   */\n      dup2\n        /* \"#utility.yul\":5051:5071   */\n      sub\n        /* \"#utility.yul\":5047:5048   */\n      0x00\n        /* \"#utility.yul\":5036:5045   */\n      dup4\n        /* \"#utility.yul\":5032:5049   */\n      add\n        /* \"#utility.yul\":5025:5072   */\n      mstore\n        /* \"#utility.yul\":5089:5167   */\n      tag_158\n        /* \"#utility.yul\":5162:5166   */\n      dup2\n        /* \"#utility.yul\":5153:5159   */\n      dup5\n        /* \"#utility.yul\":5089:5167   */\n      tag_84\n      jump\t// in\n    tag_158:\n        /* \"#utility.yul\":5081:5167   */\n      swap1\n      pop\n        /* \"#utility.yul\":4861:5174   */\n      swap3\n      swap2\n      pop\n      pop\n      jump\t// out\n        /* \"#utility.yul\":5180:5306   */\n    tag_85:\n        /* \"#utility.yul\":5217:5224   */\n      0x00\n        /* \"#utility.yul\":5257:5299   */\n      0xffffffffffffffffffffffffffffffffffffffff\n        /* \"#utility.yul\":5250:5255   */\n      dup3\n        /* \"#utility.yul\":5246:5300   */\n      and\n        /* \"#utility.yul\":5235:5300   */\n      swap1\n      pop\n        /* \"#utility.yul\":5180:5306   */\n      swap2\n      swap1\n      pop\n      jump\t// out\n        /* \"#utility.yul\":5312:5408   */\n    tag_86:\n        /* \"#utility.yul\":5349:5356   */\n      0x00\n        /* \"#utility.yul\":5378:5402   */\n      tag_161\n        /* \"#utility.yul\":5396:5401   */\n      dup3\n        /* \"#utility.yul\":5378:5402   */\n      tag_85\n      jump\t// in\n    tag_161:\n        /* \"#utility.yul\":5367:5402   */\n      swap1\n      pop\n        /* \"#utility.yul\":5312:5408   */\n      swap2\n      swap1\n      pop\n      jump\t// out\n        /* \"#utility.yul\":5414:5532   */\n    tag_87:\n        /* \"#utility.yul\":5501:5525   */\n      tag_163\n        /* \"#utility.yul\":5519:5524   */\n      dup2\n        /* \"#utility.yul\":5501:5525   */\n      tag_86\n      jump\t// in\n    tag_163:\n        /* \"#utility.yul\":5496:5499   */\n      dup3\n        /* \"#utility.yul\":5489:5526   */\n      mstore\n        /* \"#utility.yul\":5414:5532   */\n      pop\n      pop\n      jump\t// out\n        /* \"#utility.yul\":5538:5760   */\n    tag_35:\n        /* \"#utility.yul\":5631:5635   */\n      0x00\n        /* \"#utility.yul\":5669:5671   */\n      0x20\n        /* \"#utility.yul\":5658:5667   */\n      dup3\n        /* \"#utility.yul\":5654:5672   */\n      add\n        /* \"#utility.yul\":5646:5672   */\n      swap1\n      pop\n        /* \"#utility.yul\":5682:5753   */\n      tag_165\n        /* \"#utility.yul\":5750:5751   */\n      0x00\n        /* \"#utility.yul\":5739:5748   */\n      dup4\n        /* \"#utility.yul\":5735:5752   */\n      add\n        /* \"#utility.yul\":5726:5732   */\n      dup5\n        /* \"#utility.yul\":5682:5753   */\n      tag_87\n      jump\t// in\n    tag_165:\n        /* \"#utility.yul\":5538:5760   */\n      swap3\n      swap2\n      pop\n      pop\n      jump\t// out\n        /* \"#utility.yul\":5766:5888   */\n    tag_88:\n        /* \"#utility.yul\":5839:5863   */\n      tag_167\n        /* \"#utility.yul\":5857:5862   */\n      dup2\n        /* \"#utility.yul\":5839:5863   */\n      tag_86\n      jump\t// in\n    tag_167:\n        /* \"#utility.yul\":5832:5837   */\n      dup2\n        /* \"#utility.yul\":5829:5864   */\n      eq\n        /* \"#utility.yul\":5819:5882   */\n      tag_168\n      jumpi\n        /* \"#utility.yul\":5878:5879   */\n      0x00\n        /* \"#utility.yul\":5875:5876   */\n      dup1\n        /* \"#utility.yul\":5868:5880   */\n      revert\n        /* \"#utility.yul\":5819:5882   */\n    tag_168:\n        /* \"#utility.yul\":5766:5888   */\n      pop\n      jump\t// out\n        /* \"#utility.yul\":5894:6033   */\n    tag_89:\n        /* \"#utility.yul\":5940:5945   */\n      0x00\n        /* \"#utility.yul\":5978:5984   */\n      dup2\n        /* \"#utility.yul\":5965:5985   */\n      calldataload\n        /* \"#utility.yul\":5956:5985   */\n      swap1\n      pop\n        /* \"#utility.yul\":5994:6027   */\n      tag_170\n        /* \"#utility.yul\":6021:6026   */\n      dup2\n        /* \"#utility.yul\":5994:6027   */\n      tag_88\n      jump\t// in\n    tag_170:\n        /* \"#utility.yul\":5894:6033   */\n      swap3\n      swap2\n      pop\n      pop\n      jump\t// out\n        /* \"#utility.yul\":6039:6368   */\n    tag_43:\n        /* \"#utility.yul\":6098:6104   */\n      0x00\n        /* \"#utility.yul\":6147:6149   */\n      0x20\n        /* \"#utility.yul\":6135:6144   */\n      dup3\n        /* \"#utility.yul\":6126:6133   */\n      dup5\n        /* \"#utility.yul\":6122:6145   */\n      sub\n        /* \"#utility.yul\":6118:6150   */\n      slt\n        /* \"#utility.yul\":6115:6234   */\n      iszero\n      tag_172\n      jumpi\n        /* \"#utility.yul\":6153:6232   */\n      tag_173\n      tag_70\n      jump\t// in\n    tag_173:\n        /* \"#utility.yul\":6115:6234   */\n    tag_172:\n        /* \"#utility.yul\":6273:6274   */\n      0x00\n        /* \"#utility.yul\":6298:6351   */\n      tag_174\n        /* \"#utility.yul\":6343:6350   */\n      dup5\n        /* \"#utility.yul\":6334:6340   */\n      dup3\n        /* \"#utility.yul\":6323:6332   */\n      dup6\n        /* \"#utility.yul\":6319:6341   */\n      add\n        /* \"#utility.yul\":6298:6351   */\n      tag_89\n      jump\t// in\n    tag_174:\n        /* \"#utility.yul\":6288:6351   */\n      swap2\n      pop\n        /* \"#utility.yul\":6244:6361   */\n      pop\n        /* \"#utility.yul\":6039:6368   */\n      swap3\n      swap2\n      pop\n      pop\n      jump\t// out\n        /* \"#utility.yul\":6374:6554   */\n    tag_90:\n        /* \"#utility.yul\":6422:6499   */\n      0x4e487b7100000000000000000000000000000000000000000000000000000000\n        /* \"#utility.yul\":6419:6420   */\n      0x00\n        /* \"#utility.yul\":6412:6500   */\n      mstore\n        /* \"#utility.yul\":6519:6523   */\n      0x22\n        /* \"#utility.yul\":6516:6517   */\n      0x04\n        /* \"#utility.yul\":6509:6524   */\n      mstore\n        /* \"#utility.yul\":6543:6547   */\n      0x24\n        /* \"#utility.yul\":6540:6541   */\n      0x00\n        /* \"#utility.yul\":6533:6548   */\n      revert\n        /* \"#utility.yul\":6560:6880   */\n    tag_50:\n        /* \"#utility.yul\":6604:6610   */\n      0x00\n        /* \"#utility.yul\":6641:6642   */\n      0x02\n        /* \"#utility.yul\":6635:6639   */\n      dup3\n        /* \"#utility.yul\":6631:6643   */\n      div\n        /* \"#utility.yul\":6621:6643   */\n      swap1\n      pop\n        /* \"#utility.yul\":6688:6689   */\n      0x01\n        /* \"#utility.yul\":6682:6686   */\n      dup3\n        /* \"#utility.yul\":6678:6690   */\n      and\n        /* \"#utility.yul\":6709:6727   */\n      dup1\n        /* \"#utility.yul\":6699:6780   */\n      tag_177\n      jumpi\n        /* \"#utility.yul\":6765:6769   */\n      0x7f\n        /* \"#utility.yul\":6757:6763   */\n      dup3\n        /* \"#utility.yul\":6753:6770   */\n      and\n        /* \"#utility.yul\":6743:6770   */\n      swap2\n      pop\n        /* \"#utility.yul\":6699:6780   */\n    tag_177:\n        /* \"#utility.yul\":6827:6829   */\n      0x20\n        /* \"#utility.yul\":6819:6825   */\n      dup3\n        /* \"#utility.yul\":6816:6830   */\n      lt\n        /* \"#utility.yul\":6796:6814   */\n      dup2\n        /* \"#utility.yul\":6793:6831   */\n      sub\n        /* \"#utility.yul\":6790:6874   */\n      tag_178\n      jumpi\n        /* \"#utility.yul\":6846:6864   */\n      tag_179\n      tag_90\n      jump\t// in\n    tag_179:\n        /* \"#utility.yul\":6790:6874   */\n    tag_178:\n        /* \"#utility.yul\":6611:6880   */\n      pop\n        /* \"#utility.yul\":6560:6880   */\n      swap2\n      swap1\n      pop\n      jump\t// out\n        /* \"#utility.yul\":6886:7027   */\n    tag_91:\n        /* \"#utility.yul\":6935:6939   */\n      0x00\n        /* \"#utility.yul\":6958:6961   */\n      dup2\n        /* \"#utility.yul\":6950:6961   */\n      swap1\n      pop\n        /* \"#utility.yul\":6981:6984   */\n      dup2\n        /* \"#utility.yul\":6978:6979   */\n      0x00\n        /* \"#utility.yul\":6971:6985   */\n      mstore\n        /* \"#utility.yul\":7015:7019   */\n      0x20\n        /* \"#utility.yul\":7012:7013   */\n      0x00\n        /* \"#utility.yul\":7002:7020   */\n      keccak256\n        /* \"#utility.yul\":6994:7020   */\n      swap1\n      pop\n        /* \"#utility.yul\":6886:7027   */\n      swap2\n      swap1\n      pop\n      jump\t// out\n        /* \"#utility.yul\":7033:7126   */\n    tag_92:\n        /* \"#utility.yul\":7070:7076   */\n      0x00\n        /* \"#utility.yul\":7117:7119   */\n      0x20\n        /* \"#utility.yul\":7112:7114   */\n      0x1f\n        /* \"#utility.yul\":7105:7110   */\n      dup4\n        /* \"#utility.yul\":7101:7115   */\n      add\n        /* \"#utility.yul\":7097:7120   */\n      div\n        /* \"#utility.yul\":7087:7120   */\n      swap1\n      pop\n        /* \"#utility.yul\":7033:7126   */\n      swap2\n      swap1\n      pop\n      jump\t// out\n        /* \"#utility.yul\":7132:7239   */\n    tag_93:\n        /* \"#utility.yul\":7176:7184   */\n      0x00\n        /* \"#utility.yul\":7226:7231   */\n      dup3\n        /* \"#utility.yul\":7220:7224   */\n      dup3\n        /* \"#utility.yul\":7216:7232   */\n      shl\n        /* \"#utility.yul\":7195:7232   */\n      swap1\n      pop\n        /* \"#utility.yul\":7132:7239   */\n      swap3\n      swap2\n      pop\n      pop\n      jump\t// out\n        /* \"#utility.yul\":7245:7638   */\n    tag_94:\n        /* \"#utility.yul\":7314:7320   */\n      0x00\n        /* \"#utility.yul\":7364:7365   */\n      0x08\n        /* \"#utility.yul\":7352:7362   */\n      dup4\n        /* \"#utility.yul\":7348:7366   */\n      mul\n        /* \"#utility.yul\":7387:7484   */\n      tag_184\n        /* \"#utility.yul\":7417:7483   */\n      0xffffffffffffffffffffffffffffffffffffffffffffffffffffffffffffffff\n        /* \"#utility.yul\":7406:7415   */\n      dup3\n        /* \"#utility.yul\":7387:7484   */\n      tag_93\n      jump\t// in\n    tag_184:\n        /* \"#utility.yul\":7505:7544   */\n      tag_185\n        /* \"#utility.yul\":7535:7543   */\n      dup7\n        /* \"#utility.yul\":7524:7533   */\n      dup4\n        /* \"#utility.yul\":7505:7544   */\n      tag_93\n      jump\t// in\n    tag_185:\n        /* \"#utility.yul\":7493:7544   */\n      swap6\n      pop\n        /* \"#utility.yul\":7577:7581   */\n      dup1\n        /* \"#utility.yul\":7573:7582   */\n      not\n        /* \"#utility.yul\":7566:7571   */\n      dup5\n        /* \"#utility.yul\":7562:7583   */\n      and\n        /* \"#utility.yul\":7553:7583   */\n      swap4\n      pop\n        /* \"#utility.yul\":7626:7630   */\n      dup1\n        /* \"#utility.yul\":7616:7624   */\n      dup7\n        /* \"#utility.yul\":7612:7631   */\n      and\n        /* \"#utility.yul\":7605:7610   */\n      dup5\n        /* \"#utility.yul\":7602:7632   */\n      or\n        /* \"#utility.yul\":7592:7632   */\n      swap3\n      pop\n        /* \"#utility.yul\":7321:7638   */\n      pop\n      pop\n        /* \"#utility.yul\":7245:7638   */\n      swap4\n      swap3\n      pop\n      pop\n      pop\n      jump\t// out\n        /* \"#utility.yul\":7644:7721   */\n    tag_95:\n        /* \"#utility.yul\":7681:7688   */\n      0x00\n        /* \"#utility.yul\":7710:7715   */\n      dup2\n        /* \"#utility.yul\":7699:7715   */\n      swap1\n      pop\n        /* \"#utility.yul\":7644:7721   */\n      swap2\n      swap1\n      pop\n      jump\t// out\n        /* \"#utility.yul\":7727:7787   */\n    tag_96:\n        /* \"#utility.yul\":7755:7758   */\n      0x00\n        /* \"#utility.yul\":7776:7781   */\n      dup2\n        /* \"#utility.yul\":7769:7781   */\n      swap1\n      pop\n        /* \"#utility.yul\":7727:7787   */\n      swap2\n      swap1\n      pop\n      jump\t// out\n        /* \"#utility.yul\":7793:7935   */\n    tag_97:\n        /* \"#utility.yul\":7843:7852   */\n      0x00\n        /* \"#utility.yul\":7876:7929   */\n      tag_189\n        /* \"#utility.yul\":7894:7928   */\n      tag_190\n        /* \"#utility.yul\":7903:7927   */\n      tag_191\n        /* \"#utility.yul\":7921:7926   */\n      dup5\n        /* \"#utility.yul\":7903:7927   */\n      tag_95\n      jump\t// in\n    tag_191:\n        /* \"#utility.yul\":7894:7928   */\n      tag_96\n      jump\t// in\n    tag_190:\n        /* \"#utility.yul\":7876:7929   */\n      tag_95\n      jump\t// in\n    tag_189:\n        /* \"#utility.yul\":7863:7929   */\n      swap1\n      pop\n        /* \"#utility.yul\":7793:7935   */\n      swap2\n      swap1\n      pop\n      jump\t// out\n        /* \"#utility.yul\":7941:8016   */\n    tag_98:\n        /* \"#utility.yul\":7984:7987   */\n      0x00\n        /* \"#utility.yul\":8005:8010   */\n      dup2\n        /* \"#utility.yul\":7998:8010   */\n      swap1\n      pop\n        /* \"#utility.yul\":7941:8016   */\n      swap2\n      swap1\n      pop\n      jump\t// out\n        /* \"#utility.yul\":8022:8291   */\n    tag_99:\n        /* \"#utility.yul\":8132:8171   */\n      tag_194\n        /* \"#utility.yul\":8163:8170   */\n      dup4\n        /* \"#utility.yul\":8132:8171   */\n      tag_97\n      jump\t// in\n    tag_194:\n        /* \"#utility.yul\":8193:8284   */\n      tag_195\n        /* \"#utility.yul\":8242:8283   */\n      tag_196\n        /* \"#utility.yul\":8266:8282   */\n      dup3\n        /* \"#utility.yul\":8242:8283   */\n      tag_98\n      jump\t// in\n    tag_196:\n        /* \"#utility.yul\":8234:8240   */\n      dup5\n        /* \"#utility.yul\":8227:8231   */\n      dup5\n        /* \"#utility.yul\":8221:8232   */\n      sload\n        /* \"#utility.yul\":8193:8284   */\n      tag_94\n      jump\t// in\n    tag_195:\n        /* \"#utility.yul\":8187:8191   */\n      dup3\n        /* \"#utility.yul\":8180:8285   */\n      sstore\n        /* \"#utility.yul\":8098:8291   */\n      pop\n        /* \"#utility.yul\":8022:8291   */\n      pop\n      pop\n      pop\n      jump\t// out\n        /* \"#utility.yul\":8297:8370   */\n    tag_100:\n        /* \"#utility.yul\":8342:8345   */\n      0x00\n        /* \"#utility.yul\":8297:8370   */\n      swap1\n      jump\t// out\n        /* \"#utility.yul\":8376:8565   */\n    tag_101:\n        /* \"#utility.yul\":8453:8485   */\n      tag_199\n      tag_100\n      jump\t// in\n    tag_199:\n        /* \"#utility.yul\":8494:8559   */\n      tag_200\n        /* \"#utility.yul\":8552:8558   */\n      dup2\n        /* \"#utility.yul\":8544:8550   */\n      dup5\n        /* \"#utility.yul\":8538:8542   */\n      dup5\n        /* \"#utility.yul\":8494:8559   */\n      tag_99\n      jump\t// in\n    tag_200:\n        /* \"#utility.yul\":8429:8565   */\n      pop\n        /* \"#utility.yul\":8376:8565   */\n      pop\n      pop\n      jump\t// out\n        /* \"#utility.yul\":8571:8757   */\n    tag_102:\n        /* \"#utility.yul\":8631:8751   */\n    tag_202:\n        /* \"#utility.yul\":8648:8651   */\n      dup2\n        /* \"#utility.yul\":8641:8646   */\n      dup2\n        /* \"#utility.yul\":8638:8652   */\n      lt\n        /* \"#utility.yul\":8631:8751   */\n      iszero\n      tag_204\n      jumpi\n        /* \"#utility.yul\":8702:8741   */\n      tag_205\n        /* \"#utility.yul\":8739:8740   */\n      0x00\n        /* \"#utility.yul\":8732:8737   */\n      dup3\n        /* \"#utility.yul\":8702:8741   */\n      tag_101\n      jump\t// in\n    tag_205:\n        /* \"#utility.yul\":8675:8676   */\n      0x01\n        /* \"#utility.yul\":8668:8673   */\n      dup2\n        /* \"#utility.yul\":8664:8677   */\n      add\n        /* \"#utility.yul\":8655:8677   */\n      swap1\n      pop\n        /* \"#utility.yul\":8631:8751   */\n      jump(tag_202)\n    tag_204:\n        /* \"#utility.yul\":8571:8757   */\n      pop\n      pop\n      jump\t// out\n        /* \"#utility.yul\":8763:9306   */\n    tag_103:\n        /* \"#utility.yul\":8864:8866   */\n      0x1f\n        /* \"#utility.yul\":8859:8862   */\n      dup3\n        /* \"#utility.yul\":8856:8867   */\n      gt\n        /* \"#utility.yul\":8853:9299   */\n      iszero\n      tag_207\n      jumpi\n        /* \"#utility.yul\":8898:8936   */\n      tag_208\n        /* \"#utility.yul\":8930:8935   */\n      dup2\n        /* \"#utility.yul\":8898:8936   */\n      tag_91\n      jump\t// in\n    tag_208:\n        /* \"#utility.yul\":8982:9011   */\n      tag_209\n        /* \"#utility.yul\":9000:9010   */\n      dup5\n        /* \"#utility.yul\":8982:9011   */\n      tag_92\n      jump\t// in\n    tag_209:\n        /* \"#utility.yul\":8972:8980   */\n      dup2\n        /* \"#utility.yul\":8968:9012   */\n      add\n        /* \"#utility.yul\":9165:9167   */\n      0x20\n        /* \"#utility.yul\":9153:9163   */\n      dup6\n        /* \"#utility.yul\":9150:9168   */\n      lt\n        /* \"#utility.yul\":9147:9196   */\n      iszero\n      tag_210\n      jumpi\n        /* \"#utility.yul\":9186:9194   */\n      dup2\n        /* \"#utility.yul\":9171:9194   */\n      swap1\n      pop\n        /* \"#utility.yul\":9147:9196   */\n    tag_210:\n        /* \"#utility.yul\":9209:9289   */\n      tag_211\n        /* \"#utility.yul\":9265:9287   */\n      tag_212\n        /* \"#utility.yul\":9283:9286   */\n      dup6\n        /* \"#utility.yul\":9265:9287   */\n      tag_92\n      jump\t// in\n    tag_212:\n        /* \"#utility.yul\":9255:9263   */\n      dup4\n        /* \"#utility.yul\":9251:9288   */\n      add\n        /* \"#utility.yul\":9238:9249   */\n      dup3\n        /* \"#utility.yul\":9209:9289   */\n      tag_102\n      jump\t// in\n    tag_211:\n        /* \"#utility.yul\":8868:9299   */\n      pop\n      pop\n        /* \"#utility.yul\":8853:9299   */\n    tag_207:\n        /* \"#utility.yul\":8763:9306   */\n      pop\n      pop\n      pop\n      jump\t// out\n        /* \"#utility.yul\":9312:9429   */\n    tag_104:\n        /* \"#utility.yul\":9366:9374   */\n      0x00\n        /* \"#utility.yul\":9416:9421   */\n      dup3\n        /* \"#utility.yul\":9410:9414   */\n      dup3\n        /* \"#utility.yul\":9406:9422   */\n      shr\n        /* \"#utility.yul\":9385:9422   */\n      swap1\n      pop\n        /* \"#utility.yul\":9312:9429   */\n      swap3\n      swap2\n      pop\n      pop\n      jump\t// out\n        /* \"#utility.yul\":9435:9604   */\n    tag_105:\n        /* \"#utility.yul\":9479:9485   */\n      0x00\n        /* \"#utility.yul\":9512:9563   */\n      tag_215\n        /* \"#utility.yul\":9560:9561   */\n      0x00\n        /* \"#utility.yul\":9556:9562   */\n      not\n        /* \"#utility.yul\":9548:9553   */\n      dup5\n        /* \"#utility.yul\":9545:9546   */\n      0x08\n        /* \"#utility.yul\":9541:9554   */\n      mul\n        /* \"#utility.yul\":9512:9563   */\n      tag_104\n      jump\t// in\n    tag_215:\n        /* \"#utility.yul\":9508:9564   */\n      not\n        /* \"#utility.yul\":9593:9597   */\n      dup1\n        /* \"#utility.yul\":9587:9591   */\n      dup4\n        /* \"#utility.yul\":9583:9598   */\n      and\n        /* \"#utility.yul\":9573:9598   */\n      swap2\n      pop\n        /* \"#utility.yul\":9486:9604   */\n      pop\n        /* \"#utility.yul\":9435:9604   */\n      swap3\n      swap2\n      pop\n      pop\n      jump\t// out\n        /* \"#utility.yul\":9609:9904   */\n    tag_106:\n        /* \"#utility.yul\":9685:9689   */\n      0x00\n        /* \"#utility.yul\":9831:9860   */\n      tag_217\n        /* \"#utility.yul\":9856:9859   */\n      dup4\n        /* \"#utility.yul\":9850:9854   */\n      dup4\n        /* \"#utility.yul\":9831:9860   */\n      tag_105\n      jump\t// in\n    tag_217:\n        /* \"#utility.yul\":9823:9860   */\n      swap2\n      pop\n        /* \"#utility.yul\":9893:9896   */\n      dup3\n        /* \"#utility.yul\":9890:9891   */\n      0x02\n        /* \"#utility.yul\":9886:9897   */\n      mul\n        /* \"#utility.yul\":9880:9884   */\n      dup3\n        /* \"#utility.yul\":9877:9898   */\n      or\n        /* \"#utility.yul\":9869:9898   */\n      swap1\n      pop\n        /* \"#utility.yul\":9609:9904   */\n      swap3\n      swap2\n      pop\n      pop\n      jump\t// out\n        /* \"#utility.yul\":9909:11304   */\n    tag_48:\n        /* \"#utility.yul\":10026:10063   */\n      tag_219\n        /* \"#utility.yul\":10059:10062   */\n      dup3\n        /* \"#utility.yul\":10026:10063   */\n      tag_82\n      jump\t// in\n    tag_219:\n        /* \"#utility.yul\":10128:10146   */\n      0xffffffffffffffff\n        /* \"#utility.yul\":10120:10126   */\n      dup2\n        /* \"#utility.yul\":10117:10147   */\n      gt\n        /* \"#utility.yul\":10114:10170   */\n      iszero\n      tag_220\n      jumpi\n        /* \"#utility.yul\":10150:10168   */\n      tag_221\n      tag_75\n      jump\t// in\n    tag_221:\n        /* \"#utility.yul\":10114:10170   */\n    tag_220:\n        /* \"#utility.yul\":10194:10232   */\n      tag_222\n        /* \"#utility.yul\":10226:10230   */\n      dup3\n        /* \"#utility.yul\":10220:10231   */\n      sload\n        /* \"#utility.yul\":10194:10232   */\n      tag_50\n      jump\t// in\n    tag_222:\n        /* \"#utility.yul\":10279:10346   */\n      tag_223\n        /* \"#utility.yul\":10339:10345   */\n      dup3\n        /* \"#utility.yul\":10331:10337   */\n      dup3\n        /* \"#utility.yul\":10325:10329   */\n      dup6\n        /* \"#utility.yul\":10279:10346   */\n      tag_103\n      jump\t// in\n    tag_223:\n        /* \"#utility.yul\":10373:10374   */\n      0x00\n        /* \"#utility.yul\":10397:10401   */\n      0x20\n        /* \"#utility.yul\":10384:10401   */\n      swap1\n      pop\n        /* \"#utility.yul\":10429:10431   */\n      0x1f\n        /* \"#utility.yul\":10421:10427   */\n      dup4\n        /* \"#utility.yul\":10418:10432   */\n      gt\n        /* \"#utility.yul\":10446:10447   */\n      0x01\n        /* \"#utility.yul\":10441:11059   */\n      dup2\n      eq\n      tag_225\n      jumpi\n        /* \"#utility.yul\":11103:11104   */\n      0x00\n        /* \"#utility.yul\":11120:11126   */\n      dup5\n        /* \"#utility.yul\":11117:11194   */\n      iszero\n      tag_226\n      jumpi\n        /* \"#utility.yul\":11169:11178   */\n      dup3\n        /* \"#utility.yul\":11164:11167   */\n      dup8\n        /* \"#utility.yul\":11160:11179   */\n      add\n        /* \"#utility.yul\":11154:11180   */\n      mload\n        /* \"#utility.yul\":11145:11180   */\n      swap1\n      pop\n        /* \"#utility.yul\":11117:11194   */\n    tag_226:\n        /* \"#utility.yul\":11220:11287   */\n      tag_227\n        /* \"#utility.yul\":11280:11286   */\n      dup6\n        /* \"#utility.yul\":11273:11278   */\n      dup3\n        /* \"#utility.yul\":11220:11287   */\n      tag_106\n      jump\t// in\n    tag_227:\n        /* \"#utility.yul\":11214:11218   */\n      dup7\n        /* \"#utility.yul\":11207:11288   */\n      sstore\n        /* \"#utility.yul\":11076:11298   */\n      pop\n        /* \"#utility.yul\":10411:11298   */\n      jump(tag_224)\n        /* \"#utility.yul\":10441:11059   */\n    tag_225:\n        /* \"#utility.yul\":10493:10497   */\n      0x1f\n        /* \"#utility.yul\":10489:10498   */\n      not\n        /* \"#utility.yul\":10481:10487   */\n      dup5\n        /* \"#utility.yul\":10477:10499   */\n      and\n        /* \"#utility.yul\":10527:10564   */\n      tag_228\n        /* \"#utility.yul\":10559:10563   */\n      dup7\n        /* \"#utility.yul\":10527:10564   */\n      tag_91\n      jump\t// in\n    tag_228:\n        /* \"#utility.yul\":10586:10587   */\n      0x00\n        /* \"#utility.yul\":10600:10808   */\n    tag_229:\n        /* \"#utility.yul\":10614:10621   */\n      dup3\n        /* \"#utility.yul\":10611:10612   */\n      dup2\n        /* \"#utility.yul\":10608:10622   */\n      lt\n        /* \"#utility.yul\":10600:10808   */\n      iszero\n      tag_231\n      jumpi\n        /* \"#utility.yul\":10693:10702   */\n      dup5\n        /* \"#utility.yul\":10688:10691   */\n      dup10\n        /* \"#utility.yul\":10684:10703   */\n      add\n        /* \"#utility.yul\":10678:10704   */\n      mload\n        /* \"#utility.yul\":10670:10676   */\n      dup3\n        /* \"#utility.yul\":10663:10705   */\n      sstore\n        /* \"#utility.yul\":10744:10745   */\n      0x01\n        /* \"#utility.yul\":10736:10742   */\n      dup3\n        /* \"#utility.yul\":10732:10746   */\n      add\n        /* \"#utility.yul\":10722:10746   */\n      swap2\n      pop\n        /* \"#utility.yul\":10791:10793   */\n      0x20\n        /* \"#utility.yul\":10780:10789   */\n      dup6\n        /* \"#utility.yul\":10776:10794   */\n      add\n        /* \"#utility.yul\":10763:10794   */\n      swap5\n      pop\n        /* \"#utility.yul\":10637:10641   */\n      0x20\n        /* \"#utility.yul\":10634:10635   */\n      dup2\n        /* \"#utility.yul\":10630:10642   */\n      add\n        /* \"#utility.yul\":10625:10642   */\n      swap1\n      pop\n        /* \"#utility.yul\":10600:10808   */\n      jump(tag_229)\n    tag_231:\n        /* \"#utility.yul\":10836:10842   */\n      dup7\n        /* \"#utility.yul\":10827:10834   */\n      dup4\n        /* \"#utility.yul\":10824:10843   */\n      lt\n        /* \"#utility.yul\":10821:11000   */\n      iszero\n      tag_232\n      jumpi\n        /* \"#utility.yul\":10894:10903   */\n      dup5\n        /* \"#utility.yul\":10889:10892   */\n      dup10\n        /* \"#utility.yul\":10885:10904   */\n      add\n        /* \"#utility.yul\":10879:10905   */\n      mload\n        /* \"#utility.yul\":10937:10985   */\n      tag_233\n        /* \"#utility.yul\":10979:10983   */\n      0x1f\n        /* \"#utility.yul\":10971:10977   */\n      dup10\n        /* \"#utility.yul\":10967:10984   */\n      and\n        /* \"#utility.yul\":10956:10965   */\n      dup3\n        /* \"#utility.yul\":10937:10985   */\n      tag_105\n      jump\t// in\n    tag_233:\n        /* \"#utility.yul\":10929:10935   */\n      dup4\n        /* \"#utility.yul\":10922:10986   */\n      sstore\n        /* \"#utility.yul\":10844:11000   */\n      pop\n        /* \"#utility.yul\":10821:11000   */\n    tag_232:\n        /* \"#utility.yul\":11046:11047   */\n      0x01\n        /* \"#utility.yul\":11042:11043   */\n      0x02\n        /* \"#utility.yul\":11034:11040   */\n      dup9\n        /* \"#utility.yul\":11030:11044   */\n      mul\n        /* \"#utility.yul\":11026:11048   */\n      add\n        /* \"#utility.yul\":11020:11024   */\n      dup9\n        /* \"#utility.yul\":11013:11049   */\n      sstore\n        /* \"#utility.yul\":10448:11059   */\n      pop\n      pop\n      pop\n        /* \"#utility.yul\":10411:11298   */\n    tag_224:\n      pop\n        /* \"#utility.yul\":10001:11304   */\n      pop\n      pop\n      pop\n        /* \"#utility.yul\":9909:11304   */\n      pop\n      pop\n      jump\t// out\n\n    auxdata: 0xa26469706673582212208d1ebfeceb35abfa45a94ade9ee505f526f27f562660188a749c6db3dd806a8964736f6c63430008190033\n}\n",
				"bytecode": {
					"linkReferences": {},
					"object": "60806040526040518060400160405280601381526020017f737472696e672076616c7565206f6620412031000000000000000000000000008152505f9081610047919061031d565b506040518060400160405280601381526020017f737472696e672076616c7565206f6620412032000000000000000000000000008152506001908161008c919061031d565b506040518060400160405280601381526020017f737472696e672076616c7565206f662041203300000000000000000000000000815250600290816100d1919061031d565b503480156100dd575f80fd5b506103ec565b5f81519050919050565b7f4e487b71000000000000000000000000000000000000000000000000000000005f52604160045260245ffd5b7f4e487b71000000000000000000000000000000000000000000000000000000005f52602260045260245ffd5b5f600282049050600182168061015e57607f821691505b6020821081036101715761017061011a565b5b50919050565b5f819050815f5260205f209050919050565b5f6020601f8301049050919050565b5f82821b905092915050565b5f600883026101d37fffffffffffffffffffffffffffffffffffffffffffffffffffffffffffffffff82610198565b6101dd8683610198565b95508019841693508086168417925050509392505050565b5f819050919050565b5f819050919050565b5f61022161021c610217846101f5565b6101fe565b6101f5565b9050919050565b5f819050919050565b61023a83610207565b61024e61024682610228565b8484546101a4565b825550505050565b5f90565b610262610256565b61026d818484610231565b505050565b5b81811015610290576102855f8261025a565b600181019050610273565b5050565b601f8211156102d5576102a681610177565b6102af84610189565b810160208510156102be578190505b6102d26102ca85610189565b830182610272565b50505b505050565b5f82821c905092915050565b5f6102f55f19846008026102da565b1980831691505092915050565b5f61030d83836102e6565b9150826002028217905092915050565b610326826100e3565b67ffffffffffffffff81111561033f5761033e6100ed565b5b6103498254610147565b610354828285610294565b5f60209050601f831160018114610385575f8415610373578287015190505b61037d8582610302565b8655506103e4565b601f19841661039386610177565b5f5b828110156103ba57848901518255600182019150602085019450602081019050610395565b868310156103d757848901516103d3601f8916826102e6565b8355505b6001600288020188555050505b505050505050565b610a2b806103f95f395ff3fe608060405260043610610058575f3560e01c80631f429731146100f55780632db880511461011d57806352960cab14610147578063aaf10f4214610171578063b85a2a041461019b578063d784d426146101c557610059565b5b5f6100626101ed565b90505f73ffffffffffffffffffffffffffffffffffffffff168173ffffffffffffffffffffffffffffffffffffffff16036100d2576040517f08c379a00000000000000000000000000000000000000000000000000000000081526004016100c990610454565b60405180910390fd5b604051365f82375f803683855af43d805f843e815f81146100f1578184f35b8184fd5b348015610100575f80fd5b5061011b600480360381019061011691906105bf565b61021a565b005b348015610128575f80fd5b5061013161022c565b60405161013e9190610656565b60405180910390f35b348015610152575f80fd5b5061015b6102b8565b6040516101689190610656565b60405180910390f35b34801561017c575f80fd5b506101856101ed565b60405161019291906106b5565b60405180910390f35b3480156101a6575f80fd5b506101af610343565b6040516101bc9190610656565b60405180910390f35b3480156101d0575f80fd5b506101eb60048036038101906101e691906106f8565b6103cf565b005b5f807f2d64715730a5adb8734b2b84045c82cbeba1c79b838ef4b59c5959d0ecf9e2699050805491505090565b805f90816102289190610926565b5050565b6001805461023990610750565b80601f016020809104026020016040519081016040528092919081815260200182805461026590610750565b80156102b05780601f10610287576101008083540402835291602001916102b0565b820191905f5260205f20905b81548152906001019060200180831161029357829003601f168201915b505050505081565b5f80546102c490610750565b80601f01602080910402602001604051908101604052809291908181526020018280546102f090610750565b801561033b5780601f106103125761010080835404028352916020019161033b565b820191905f5260205f20905b81548152906001019060200180831161031e57829003601f168201915b505050505081565b6002805461035090610750565b80601f016020809104026020016040519081016040528092919081815260200182805461037c90610750565b80156103c75780601f1061039e576101008083540402835291602001916103c7565b820191905f5260205f20905b8154815290600101906020018083116103aa57829003601f168201915b505050505081565b5f7f2d64715730a5adb8734b2b84045c82cbeba1c79b838ef4b59c5959d0ecf9e26990508181555050565b5f82825260208201905092915050565b7f4552524f525f494d504c454d454e544154494f4e5f4e4f545f464f554e4400005f82015250565b5f61043e601e836103fa565b91506104498261040a565b602082019050919050565b5f6020820190508181035f83015261046b81610432565b9050919050565b5f604051905090565b5f80fd5b5f80fd5b5f80fd5b5f80fd5b5f601f19601f8301169050919050565b7f4e487b71000000000000000000000000000000000000000000000000000000005f52604160045260245ffd5b6104d18261048b565b810181811067ffffffffffffffff821117156104f0576104ef61049b565b5b80604052505050565b5f610502610472565b905061050e82826104c8565b919050565b5f67ffffffffffffffff82111561052d5761052c61049b565b5b6105368261048b565b9050602081019050919050565b828183375f83830152505050565b5f61056361055e84610513565b6104f9565b90508281526020810184848401111561057f5761057e610487565b5b61058a848285610543565b509392505050565b5f82601f8301126105a6576105a5610483565b5b81356105b6848260208601610551565b91505092915050565b5f602082840312156105d4576105d361047b565b5b5f82013567ffffffffffffffff8111156105f1576105f061047f565b5b6105fd84828501610592565b91505092915050565b5f81519050919050565b8281835e5f83830152505050565b5f61062882610606565b61063281856103fa565b9350610642818560208601610610565b61064b8161048b565b840191505092915050565b5f6020820190508181035f83015261066e818461061e565b905092915050565b5f73ffffffffffffffffffffffffffffffffffffffff82169050919050565b5f61069f82610676565b9050919050565b6106af81610695565b82525050565b5f6020820190506106c85f8301846106a6565b92915050565b6106d781610695565b81146106e1575f80fd5b50565b5f813590506106f2816106ce565b92915050565b5f6020828403121561070d5761070c61047b565b5b5f61071a848285016106e4565b91505092915050565b7f4e487b71000000000000000000000000000000000000000000000000000000005f52602260045260245ffd5b5f600282049050600182168061076757607f821691505b60208210810361077a57610779610723565b5b50919050565b5f819050815f5260205f209050919050565b5f6020601f8301049050919050565b5f82821b905092915050565b5f600883026107dc7fffffffffffffffffffffffffffffffffffffffffffffffffffffffffffffffff826107a1565b6107e686836107a1565b95508019841693508086168417925050509392505050565b5f819050919050565b5f819050919050565b5f61082a610825610820846107fe565b610807565b6107fe565b9050919050565b5f819050919050565b61084383610810565b61085761084f82610831565b8484546107ad565b825550505050565b5f90565b61086b61085f565b61087681848461083a565b505050565b5b818110156108995761088e5f82610863565b60018101905061087c565b5050565b601f8211156108de576108af81610780565b6108b884610792565b810160208510156108c7578190505b6108db6108d385610792565b83018261087b565b50505b505050565b5f82821c905092915050565b5f6108fe5f19846008026108e3565b1980831691505092915050565b5f61091683836108ef565b9150826002028217905092915050565b61092f82610606565b67ffffffffffffffff8111156109485761094761049b565b5b6109528254610750565b61095d82828561089d565b5f60209050601f83116001811461098e575f841561097c578287015190505b610986858261090b565b8655506109ed565b601f19841661099c86610780565b5f5b828110156109c35784890151825560018201915060208501945060208101905061099e565b868310156109e057848901516109dc601f8916826108ef565b8355505b6001600288020188555050505b50505050505056fea26469706673582212208d1ebfeceb35abfa45a94ade9ee505f526f27f562660188a749c6db3dd806a8964736f6c63430008190033",
					"opcodes": "PUSH1 0x80 PUSH1 0x40 MSTORE PUSH1 0x40 MLOAD DUP1 PUSH1 0x40 ADD PUSH1 0x40 MSTORE DUP1 PUSH1 0x13 DUP2 MSTORE PUSH1 0x20 ADD PUSH32 0x737472696E672076616C7565206F662041203100000000000000000000000000 DUP2 MSTORE POP PUSH0 SWAP1 DUP2 PUSH2 0x47 SWAP2 SWAP1 PUSH2 0x31D JUMP JUMPDEST POP PUSH1 0x40 MLOAD DUP1 PUSH1 0x40 ADD PUSH1 0x40 MSTORE DUP1 PUSH1 0x13 DUP2 MSTORE PUSH1 0x20 ADD PUSH32 0x737472696E672076616C7565206F662041203200000000000000000000000000 DUP2 MSTORE POP PUSH1 0x1 SWAP1 DUP2 PUSH2 0x8C SWAP2 SWAP1 PUSH2 0x31D JUMP JUMPDEST POP PUSH1 0x40 MLOAD DUP1 PUSH1 0x40 ADD PUSH1 0x40 MSTORE DUP1 PUSH1 0x13 DUP2 MSTORE PUSH1 0x20 ADD PUSH32 0x737472696E672076616C7565206F662041203300000000000000000000000000 DUP2 MSTORE POP PUSH1 0x2 SWAP1 DUP2 PUSH2 0xD1 SWAP2 SWAP1 PUSH2 0x31D JUMP JUMPDEST POP CALLVALUE DUP1 ISZERO PUSH2 0xDD JUMPI PUSH0 DUP1 REVERT JUMPDEST POP PUSH2 0x3EC JUMP JUMPDEST PUSH0 DUP2 MLOAD SWAP1 POP SWAP2 SWAP1 POP JUMP JUMPDEST PUSH32 0x4E487B7100000000000000000000000000000000000000000000000000000000 PUSH0 MSTORE PUSH1 0x41 PUSH1 0x4 MSTORE PUSH1 0x24 PUSH0 REVERT JUMPDEST PUSH32 0x4E487B7100000000000000000000000000000000000000000000000000000000 PUSH0 MSTORE PUSH1 0x22 PUSH1 0x4 MSTORE PUSH1 0x24 PUSH0 REVERT JUMPDEST PUSH0 PUSH1 0x2 DUP3 DIV SWAP1 POP PUSH1 0x1 DUP3 AND DUP1 PUSH2 0x15E JUMPI PUSH1 0x7F DUP3 AND SWAP2 POP JUMPDEST PUSH1 0x20 DUP3 LT DUP2 SUB PUSH2 0x171 JUMPI PUSH2 0x170 PUSH2 0x11A JUMP JUMPDEST JUMPDEST POP SWAP2 SWAP1 POP JUMP JUMPDEST PUSH0 DUP2 SWAP1 POP DUP2 PUSH0 MSTORE PUSH1 0x20 PUSH0 KECCAK256 SWAP1 POP SWAP2 SWAP1 POP JUMP JUMPDEST PUSH0 PUSH1 0x20 PUSH1 0x1F DUP4 ADD DIV SWAP1 POP SWAP2 SWAP1 POP JUMP JUMPDEST PUSH0 DUP3 DUP3 SHL SWAP1 POP SWAP3 SWAP2 POP POP JUMP JUMPDEST PUSH0 PUSH1 0x8 DUP4 MUL PUSH2 0x1D3 PUSH32 0xFFFFFFFFFFFFFFFFFFFFFFFFFFFFFFFFFFFFFFFFFFFFFFFFFFFFFFFFFFFFFFFF DUP3 PUSH2 0x198 JUMP JUMPDEST PUSH2 0x1DD DUP7 DUP4 PUSH2 0x198 JUMP JUMPDEST SWAP6 POP DUP1 NOT DUP5 AND SWAP4 POP DUP1 DUP7 AND DUP5 OR SWAP3 POP POP POP SWAP4 SWAP3 POP POP POP JUMP JUMPDEST PUSH0 DUP2 SWAP1 POP SWAP2 SWAP1 POP JUMP JUMPDEST PUSH0 DUP2 SWAP1 POP SWAP2 SWAP1 POP JUMP JUMPDEST PUSH0 PUSH2 0x221 PUSH2 0x21C PUSH2 0x217 DUP5 PUSH2 0x1F5 JUMP JUMPDEST PUSH2 0x1FE JUMP JUMPDEST PUSH2 0x1F5 JUMP JUMPDEST SWAP1 POP SWAP2 SWAP1 POP JUMP JUMPDEST PUSH0 DUP2 SWAP1 POP SWAP2 SWAP1 POP JUMP JUMPDEST PUSH2 0x23A DUP4 PUSH2 0x207 JUMP JUMPDEST PUSH2 0x24E PUSH2 0x246 DUP3 PUSH2 0x228 JUMP JUMPDEST DUP5 DUP5 SLOAD PUSH2 0x1A4 JUMP JUMPDEST DUP3 SSTORE POP POP POP POP JUMP JUMPDEST PUSH0 SWAP1 JUMP JUMPDEST PUSH2 0x262 PUSH2 0x256 JUMP JUMPDEST PUSH2 0x26D DUP2 DUP5 DUP5 PUSH2 0x231 JUMP JUMPDEST POP POP POP JUMP JUMPDEST JUMPDEST DUP2 DUP2 LT ISZERO PUSH2 0x290 JUMPI PUSH2 0x285 PUSH0 DUP3 PUSH2 0x25A JUMP JUMPDEST PUSH1 0x1 DUP2 ADD SWAP1 POP PUSH2 0x273 JUMP JUMPDEST POP POP JUMP JUMPDEST PUSH1 0x1F DUP3 GT ISZERO PUSH2 0x2D5 JUMPI PUSH2 0x2A6 DUP2 PUSH2 0x177 JUMP JUMPDEST PUSH2 0x2AF DUP5 PUSH2 0x189 JUMP JUMPDEST DUP2 ADD PUSH1 0x20 DUP6 LT ISZERO PUSH2 0x2BE JUMPI DUP2 SWAP1 POP JUMPDEST PUSH2 0x2D2 PUSH2 0x2CA DUP6 PUSH2 0x189 JUMP JUMPDEST DUP4 ADD DUP3 PUSH2 0x272 JUMP JUMPDEST POP POP JUMPDEST POP POP POP JUMP JUMPDEST PUSH0 DUP3 DUP3 SHR SWAP1 POP SWAP3 SWAP2 POP POP JUMP JUMPDEST PUSH0 PUSH2 0x2F5 PUSH0 NOT DUP5 PUSH1 0x8 MUL PUSH2 0x2DA JUMP JUMPDEST NOT DUP1 DUP4 AND SWAP2 POP POP SWAP3 SWAP2 POP POP JUMP JUMPDEST PUSH0 PUSH2 0x30D DUP4 DUP4 PUSH2 0x2E6 JUMP JUMPDEST SWAP2 POP DUP3 PUSH1 0x2 MUL DUP3 OR SWAP1 POP SWAP3 SWAP2 POP POP JUMP JUMPDEST PUSH2 0x326 DUP3 PUSH2 0xE3 JUMP JUMPDEST PUSH8 0xFFFFFFFFFFFFFFFF DUP2 GT ISZERO PUSH2 0x33F JUMPI PUSH2 0x33E PUSH2 0xED JUMP JUMPDEST JUMPDEST PUSH2 0x349 DUP3 SLOAD PUSH2 0x147 JUMP JUMPDEST PUSH2 0x354 DUP3 DUP3 DUP6 PUSH2 0x294 JUMP JUMPDEST PUSH0 PUSH1 0x20 SWAP1 POP PUSH1 0x1F DUP4 GT PUSH1 0x1 DUP2 EQ PUSH2 0x385 JUMPI PUSH0 DUP5 ISZERO PUSH2 0x373 JUMPI DUP3 DUP8 ADD MLOAD SWAP1 POP JUMPDEST PUSH2 0x37D DUP6 DUP3 PUSH2 0x302 JUMP JUMPDEST DUP7 SSTORE POP PUSH2 0x3E4 JUMP JUMPDEST PUSH1 0x1F NOT DUP5 AND PUSH2 0x393 DUP7 PUSH2 0x177 JUMP JUMPDEST PUSH0 JUMPDEST DUP3 DUP2 LT ISZERO PUSH2 0x3BA JUMPI DUP5 DUP10 ADD MLOAD DUP3 SSTORE PUSH1 0x1 DUP3 ADD SWAP2 POP PUSH1 0x20 DUP6 ADD SWAP5 POP PUSH1 0x20 DUP2 ADD SWAP1 POP PUSH2 0x395 JUMP JUMPDEST DUP7 DUP4 LT ISZERO PUSH2 0x3D7 JUMPI DUP5 DUP10 ADD MLOAD PUSH2 0x3D3 PUSH1 0x1F DUP10 AND DUP3 PUSH2 0x2E6 JUMP JUMPDEST DUP4 SSTORE POP JUMPDEST PUSH1 0x1 PUSH1 0x2 DUP9 MUL ADD DUP9 SSTORE POP POP POP JUMPDEST POP POP POP POP POP POP JUMP JUMPDEST PUSH2 0xA2B DUP1 PUSH2 0x3F9 PUSH0 CODECOPY PUSH0 RETURN INVALID PUSH1 0x80 PUSH1 0x40 MSTORE PUSH1 0x4 CALLDATASIZE LT PUSH2 0x58 JUMPI PUSH0 CALLDATALOAD PUSH1 0xE0 SHR DUP1 PUSH4 0x1F429731 EQ PUSH2 0xF5 JUMPI DUP1 PUSH4 0x2DB88051 EQ PUSH2 0x11D JUMPI DUP1 PUSH4 0x52960CAB EQ PUSH2 0x147 JUMPI DUP1 PUSH4 0xAAF10F42 EQ PUSH2 0x171 JUMPI DUP1 PUSH4 0xB85A2A04 EQ PUSH2 0x19B JUMPI DUP1 PUSH4 0xD784D426 EQ PUSH2 0x1C5 JUMPI PUSH2 0x59 JUMP JUMPDEST JUMPDEST PUSH0 PUSH2 0x62 PUSH2 0x1ED JUMP JUMPDEST SWAP1 POP PUSH0 PUSH20 0xFFFFFFFFFFFFFFFFFFFFFFFFFFFFFFFFFFFFFFFF AND DUP2 PUSH20 0xFFFFFFFFFFFFFFFFFFFFFFFFFFFFFFFFFFFFFFFF AND SUB PUSH2 0xD2 JUMPI PUSH1 0x40 MLOAD PUSH32 0x8C379A000000000000000000000000000000000000000000000000000000000 DUP2 MSTORE PUSH1 0x4 ADD PUSH2 0xC9 SWAP1 PUSH2 0x454 JUMP JUMPDEST PUSH1 0x40 MLOAD DUP1 SWAP2 SUB SWAP1 REVERT JUMPDEST PUSH1 0x40 MLOAD CALLDATASIZE PUSH0 DUP3 CALLDATACOPY PUSH0 DUP1 CALLDATASIZE DUP4 DUP6 GAS DELEGATECALL RETURNDATASIZE DUP1 PUSH0 DUP5 RETURNDATACOPY DUP2 PUSH0 DUP2 EQ PUSH2 0xF1 JUMPI DUP2 DUP5 RETURN JUMPDEST DUP2 DUP5 REVERT JUMPDEST CALLVALUE DUP1 ISZERO PUSH2 0x100 JUMPI PUSH0 DUP1 REVERT JUMPDEST POP PUSH2 0x11B PUSH1 0x4 DUP1 CALLDATASIZE SUB DUP2 ADD SWAP1 PUSH2 0x116 SWAP2 SWAP1 PUSH2 0x5BF JUMP JUMPDEST PUSH2 0x21A JUMP JUMPDEST STOP JUMPDEST CALLVALUE DUP1 ISZERO PUSH2 0x128 JUMPI PUSH0 DUP1 REVERT JUMPDEST POP PUSH2 0x131 PUSH2 0x22C JUMP JUMPDEST PUSH1 0x40 MLOAD PUSH2 0x13E SWAP2 SWAP1 PUSH2 0x656 JUMP JUMPDEST PUSH1 0x40 MLOAD DUP1 SWAP2 SUB SWAP1 RETURN JUMPDEST CALLVALUE DUP1 ISZERO PUSH2 0x152 JUMPI PUSH0 DUP1 REVERT JUMPDEST POP PUSH2 0x15B PUSH2 0x2B8 JUMP JUMPDEST PUSH1 0x40 MLOAD PUSH2 0x168 SWAP2 SWAP1 PUSH2 0x656 JUMP JUMPDEST PUSH1 0x40 MLOAD DUP1 SWAP2 SUB SWAP1 RETURN JUMPDEST CALLVALUE DUP1 ISZERO PUSH2 0x17C JUMPI PUSH0 DUP1 REVERT JUMPDEST POP PUSH2 0x185 PUSH2 0x1ED JUMP JUMPDEST PUSH1 0x40 MLOAD PUSH2 0x192 SWAP2 SWAP1 PUSH2 0x6B5 JUMP JUMPDEST PUSH1 0x40 MLOAD DUP1 SWAP2 SUB SWAP1 RETURN JUMPDEST CALLVALUE DUP1 ISZERO PUSH2 0x1A6 JUMPI PUSH0 DUP1 REVERT JUMPDEST POP PUSH2 0x1AF PUSH2 0x343 JUMP JUMPDEST PUSH1 0x40 MLOAD PUSH2 0x1BC SWAP2 SWAP1 PUSH2 0x656 JUMP JUMPDEST PUSH1 0x40 MLOAD DUP1 SWAP2 SUB SWAP1 RETURN JUMPDEST CALLVALUE DUP1 ISZERO PUSH2 0x1D0 JUMPI PUSH0 DUP1 REVERT JUMPDEST POP PUSH2 0x1EB PUSH1 0x4 DUP1 CALLDATASIZE SUB DUP2 ADD SWAP1 PUSH2 0x1E6 SWAP2 SWAP1 PUSH2 0x6F8 JUMP JUMPDEST PUSH2 0x3CF JUMP JUMPDEST STOP JUMPDEST PUSH0 DUP1 PUSH32 0x2D64715730A5ADB8734B2B84045C82CBEBA1C79B838EF4B59C5959D0ECF9E269 SWAP1 POP DUP1 SLOAD SWAP2 POP POP SWAP1 JUMP JUMPDEST DUP1 PUSH0 SWAP1 DUP2 PUSH2 0x228 SWAP2 SWAP1 PUSH2 0x926 JUMP JUMPDEST POP POP JUMP JUMPDEST PUSH1 0x1 DUP1 SLOAD PUSH2 0x239 SWAP1 PUSH2 0x750 JUMP JUMPDEST DUP1 PUSH1 0x1F ADD PUSH1 0x20 DUP1 SWAP2 DIV MUL PUSH1 0x20 ADD PUSH1 0x40 MLOAD SWAP1 DUP2 ADD PUSH1 0x40 MSTORE DUP1 SWAP3 SWAP2 SWAP1 DUP2 DUP2 MSTORE PUSH1 0x20 ADD DUP3 DUP1 SLOAD PUSH2 0x265 SWAP1 PUSH2 0x750 JUMP JUMPDEST DUP1 ISZERO PUSH2 0x2B0 JUMPI DUP1 PUSH1 0x1F LT PUSH2 0x287 JUMPI PUSH2 0x100 DUP1 DUP4 SLOAD DIV MUL DUP4 MSTORE SWAP2 PUSH1 0x20 ADD SWAP2 PUSH2 0x2B0 JUMP JUMPDEST DUP3 ADD SWAP2 SWAP1 PUSH0 MSTORE PUSH1 0x20 PUSH0 KECCAK256 SWAP1 JUMPDEST DUP2 SLOAD DUP2 MSTORE SWAP1 PUSH1 0x1 ADD SWAP1 PUSH1 0x20 ADD DUP1 DUP4 GT PUSH2 0x293 JUMPI DUP3 SWAP1 SUB PUSH1 0x1F AND DUP3 ADD SWAP2 JUMPDEST POP POP POP POP POP DUP2 JUMP JUMPDEST PUSH0 DUP1 SLOAD PUSH2 0x2C4 SWAP1 PUSH2 0x750 JUMP JUMPDEST DUP1 PUSH1 0x1F ADD PUSH1 0x20 DUP1 SWAP2 DIV MUL PUSH1 0x20 ADD PUSH1 0x40 MLOAD SWAP1 DUP2 ADD PUSH1 0x40 MSTORE DUP1 SWAP3 SWAP2 SWAP1 DUP2 DUP2 MSTORE PUSH1 0x20 ADD DUP3 DUP1 SLOAD PUSH2 0x2F0 SWAP1 PUSH2 0x750 JUMP JUMPDEST DUP1 ISZERO PUSH2 0x33B JUMPI DUP1 PUSH1 0x1F LT PUSH2 0x312 JUMPI PUSH2 0x100 DUP1 DUP4 SLOAD DIV MUL DUP4 MSTORE SWAP2 PUSH1 0x20 ADD SWAP2 PUSH2 0x33B JUMP JUMPDEST DUP3 ADD SWAP2 SWAP1 PUSH0 MSTORE PUSH1 0x20 PUSH0 KECCAK256 SWAP1 JUMPDEST DUP2 SLOAD DUP2 MSTORE SWAP1 PUSH1 0x1 ADD SWAP1 PUSH1 0x20 ADD DUP1 DUP4 GT PUSH2 0x31E JUMPI DUP3 SWAP1 SUB PUSH1 0x1F AND DUP3 ADD SWAP2 JUMPDEST POP POP POP POP POP DUP2 JUMP JUMPDEST PUSH1 0x2 DUP1 SLOAD PUSH2 0x350 SWAP1 PUSH2 0x750 JUMP JUMPDEST DUP1 PUSH1 0x1F ADD PUSH1 0x20 DUP1 SWAP2 DIV MUL PUSH1 0x20 ADD PUSH1 0x40 MLOAD SWAP1 DUP2 ADD PUSH1 0x40 MSTORE DUP1 SWAP3 SWAP2 SWAP1 DUP2 DUP2 MSTORE PUSH1 0x20 ADD DUP3 DUP1 SLOAD PUSH2 0x37C SWAP1 PUSH2 0x750 JUMP JUMPDEST DUP1 ISZERO PUSH2 0x3C7 JUMPI DUP1 PUSH1 0x1F LT PUSH2 0x39E JUMPI PUSH2 0x100 DUP1 DUP4 SLOAD DIV MUL DUP4 MSTORE SWAP2 PUSH1 0x20 ADD SWAP2 PUSH2 0x3C7 JUMP JUMPDEST DUP3 ADD SWAP2 SWAP1 PUSH0 MSTORE PUSH1 0x20 PUSH0 KECCAK256 SWAP1 JUMPDEST DUP2 SLOAD DUP2 MSTORE SWAP1 PUSH1 0x1 ADD SWAP1 PUSH1 0x20 ADD DUP1 DUP4 GT PUSH2 0x3AA JUMPI DUP3 SWAP1 SUB PUSH1 0x1F AND DUP3 ADD SWAP2 JUMPDEST POP POP POP POP POP DUP2 JUMP JUMPDEST PUSH0 PUSH32 0x2D64715730A5ADB8734B2B84045C82CBEBA1C79B838EF4B59C5959D0ECF9E269 SWAP1 POP DUP2 DUP2 SSTORE POP POP JUMP JUMPDEST PUSH0 DUP3 DUP3 MSTORE PUSH1 0x20 DUP3 ADD SWAP1 POP SWAP3 SWAP2 POP POP JUMP JUMPDEST PUSH32 0x4552524F525F494D504C454D454E544154494F4E5F4E4F545F464F554E440000 PUSH0 DUP3 ADD MSTORE POP JUMP JUMPDEST PUSH0 PUSH2 0x43E PUSH1 0x1E DUP4 PUSH2 0x3FA JUMP JUMPDEST SWAP2 POP PUSH2 0x449 DUP3 PUSH2 0x40A JUMP JUMPDEST PUSH1 0x20 DUP3 ADD SWAP1 POP SWAP2 SWAP1 POP JUMP JUMPDEST PUSH0 PUSH1 0x20 DUP3 ADD SWAP1 POP DUP2 DUP2 SUB PUSH0 DUP4 ADD MSTORE PUSH2 0x46B DUP2 PUSH2 0x432 JUMP JUMPDEST SWAP1 POP SWAP2 SWAP1 POP JUMP JUMPDEST PUSH0 PUSH1 0x40 MLOAD SWAP1 POP SWAP1 JUMP JUMPDEST PUSH0 DUP1 REVERT JUMPDEST PUSH0 DUP1 REVERT JUMPDEST PUSH0 DUP1 REVERT JUMPDEST PUSH0 DUP1 REVERT JUMPDEST PUSH0 PUSH1 0x1F NOT PUSH1 0x1F DUP4 ADD AND SWAP1 POP SWAP2 SWAP1 POP JUMP JUMPDEST PUSH32 0x4E487B7100000000000000000000000000000000000000000000000000000000 PUSH0 MSTORE PUSH1 0x41 PUSH1 0x4 MSTORE PUSH1 0x24 PUSH0 REVERT JUMPDEST PUSH2 0x4D1 DUP3 PUSH2 0x48B JUMP JUMPDEST DUP2 ADD DUP2 DUP2 LT PUSH8 0xFFFFFFFFFFFFFFFF DUP3 GT OR ISZERO PUSH2 0x4F0 JUMPI PUSH2 0x4EF PUSH2 0x49B JUMP JUMPDEST JUMPDEST DUP1 PUSH1 0x40 MSTORE POP POP POP JUMP JUMPDEST PUSH0 PUSH2 0x502 PUSH2 0x472 JUMP JUMPDEST SWAP1 POP PUSH2 0x50E DUP3 DUP3 PUSH2 0x4C8 JUMP JUMPDEST SWAP2 SWAP1 POP JUMP JUMPDEST PUSH0 PUSH8 0xFFFFFFFFFFFFFFFF DUP3 GT ISZERO PUSH2 0x52D JUMPI PUSH2 0x52C PUSH2 0x49B JUMP JUMPDEST JUMPDEST PUSH2 0x536 DUP3 PUSH2 0x48B JUMP JUMPDEST SWAP1 POP PUSH1 0x20 DUP2 ADD SWAP1 POP SWAP2 SWAP1 POP JUMP JUMPDEST DUP3 DUP2 DUP4 CALLDATACOPY PUSH0 DUP4 DUP4 ADD MSTORE POP POP POP JUMP JUMPDEST PUSH0 PUSH2 0x563 PUSH2 0x55E DUP5 PUSH2 0x513 JUMP JUMPDEST PUSH2 0x4F9 JUMP JUMPDEST SWAP1 POP DUP3 DUP2 MSTORE PUSH1 0x20 DUP2 ADD DUP5 DUP5 DUP5 ADD GT ISZERO PUSH2 0x57F JUMPI PUSH2 0x57E PUSH2 0x487 JUMP JUMPDEST JUMPDEST PUSH2 0x58A DUP5 DUP3 DUP6 PUSH2 0x543 JUMP JUMPDEST POP SWAP4 SWAP3 POP POP POP JUMP JUMPDEST PUSH0 DUP3 PUSH1 0x1F DUP4 ADD SLT PUSH2 0x5A6 JUMPI PUSH2 0x5A5 PUSH2 0x483 JUMP JUMPDEST JUMPDEST DUP2 CALLDATALOAD PUSH2 0x5B6 DUP5 DUP3 PUSH1 0x20 DUP7 ADD PUSH2 0x551 JUMP JUMPDEST SWAP2 POP POP SWAP3 SWAP2 POP POP JUMP JUMPDEST PUSH0 PUSH1 0x20 DUP3 DUP5 SUB SLT ISZERO PUSH2 0x5D4 JUMPI PUSH2 0x5D3 PUSH2 0x47B JUMP JUMPDEST JUMPDEST PUSH0 DUP3 ADD CALLDATALOAD PUSH8 0xFFFFFFFFFFFFFFFF DUP2 GT ISZERO PUSH2 0x5F1 JUMPI PUSH2 0x5F0 PUSH2 0x47F JUMP JUMPDEST JUMPDEST PUSH2 0x5FD DUP5 DUP3 DUP6 ADD PUSH2 0x592 JUMP JUMPDEST SWAP2 POP POP SWAP3 SWAP2 POP POP JUMP JUMPDEST PUSH0 DUP2 MLOAD SWAP1 POP SWAP2 SWAP1 POP JUMP JUMPDEST DUP3 DUP2 DUP4 MCOPY PUSH0 DUP4 DUP4 ADD MSTORE POP POP POP JUMP JUMPDEST PUSH0 PUSH2 0x628 DUP3 PUSH2 0x606 JUMP JUMPDEST PUSH2 0x632 DUP2 DUP6 PUSH2 0x3FA JUMP JUMPDEST SWAP4 POP PUSH2 0x642 DUP2 DUP6 PUSH1 0x20 DUP7 ADD PUSH2 0x610 JUMP JUMPDEST PUSH2 0x64B DUP2 PUSH2 0x48B JUMP JUMPDEST DUP5 ADD SWAP2 POP POP SWAP3 SWAP2 POP POP JUMP JUMPDEST PUSH0 PUSH1 0x20 DUP3 ADD SWAP1 POP DUP2 DUP2 SUB PUSH0 DUP4 ADD MSTORE PUSH2 0x66E DUP2 DUP5 PUSH2 0x61E JUMP JUMPDEST SWAP1 POP SWAP3 SWAP2 POP POP JUMP JUMPDEST PUSH0 PUSH20 0xFFFFFFFFFFFFFFFFFFFFFFFFFFFFFFFFFFFFFFFF DUP3 AND SWAP1 POP SWAP2 SWAP1 POP JUMP JUMPDEST PUSH0 PUSH2 0x69F DUP3 PUSH2 0x676 JUMP JUMPDEST SWAP1 POP SWAP2 SWAP1 POP JUMP JUMPDEST PUSH2 0x6AF DUP2 PUSH2 0x695 JUMP JUMPDEST DUP3 MSTORE POP POP JUMP JUMPDEST PUSH0 PUSH1 0x20 DUP3 ADD SWAP1 POP PUSH2 0x6C8 PUSH0 DUP4 ADD DUP5 PUSH2 0x6A6 JUMP JUMPDEST SWAP3 SWAP2 POP POP JUMP JUMPDEST PUSH2 0x6D7 DUP2 PUSH2 0x695 JUMP JUMPDEST DUP2 EQ PUSH2 0x6E1 JUMPI PUSH0 DUP1 REVERT JUMPDEST POP JUMP JUMPDEST PUSH0 DUP2 CALLDATALOAD SWAP1 POP PUSH2 0x6F2 DUP2 PUSH2 0x6CE JUMP JUMPDEST SWAP3 SWAP2 POP POP JUMP JUMPDEST PUSH0 PUSH1 0x20 DUP3 DUP5 SUB SLT ISZERO PUSH2 0x70D JUMPI PUSH2 0x70C PUSH2 0x47B JUMP JUMPDEST JUMPDEST PUSH0 PUSH2 0x71A DUP5 DUP3 DUP6 ADD PUSH2 0x6E4 JUMP JUMPDEST SWAP2 POP POP SWAP3 SWAP2 POP POP JUMP JUMPDEST PUSH32 0x4E487B7100000000000000000000000000000000000000000000000000000000 PUSH0 MSTORE PUSH1 0x22 PUSH1 0x4 MSTORE PUSH1 0x24 PUSH0 REVERT JUMPDEST PUSH0 PUSH1 0x2 DUP3 DIV SWAP1 POP PUSH1 0x1 DUP3 AND DUP1 PUSH2 0x767 JUMPI PUSH1 0x7F DUP3 AND SWAP2 POP JUMPDEST PUSH1 0x20 DUP3 LT DUP2 SUB PUSH2 0x77A JUMPI PUSH2 0x779 PUSH2 0x723 JUMP JUMPDEST JUMPDEST POP SWAP2 SWAP1 POP JUMP JUMPDEST PUSH0 DUP2 SWAP1 POP DUP2 PUSH0 MSTORE PUSH1 0x20 PUSH0 KECCAK256 SWAP1 POP SWAP2 SWAP1 POP JUMP JUMPDEST PUSH0 PUSH1 0x20 PUSH1 0x1F DUP4 ADD DIV SWAP1 POP SWAP2 SWAP1 POP JUMP JUMPDEST PUSH0 DUP3 DUP3 SHL SWAP1 POP SWAP3 SWAP2 POP POP JUMP JUMPDEST PUSH0 PUSH1 0x8 DUP4 MUL PUSH2 0x7DC PUSH32 0xFFFFFFFFFFFFFFFFFFFFFFFFFFFFFFFFFFFFFFFFFFFFFFFFFFFFFFFFFFFFFFFF DUP3 PUSH2 0x7A1 JUMP JUMPDEST PUSH2 0x7E6 DUP7 DUP4 PUSH2 0x7A1 JUMP JUMPDEST SWAP6 POP DUP1 NOT DUP5 AND SWAP4 POP DUP1 DUP7 AND DUP5 OR SWAP3 POP POP POP SWAP4 SWAP3 POP POP POP JUMP JUMPDEST PUSH0 DUP2 SWAP1 POP SWAP2 SWAP1 POP JUMP JUMPDEST PUSH0 DUP2 SWAP1 POP SWAP2 SWAP1 POP JUMP JUMPDEST PUSH0 PUSH2 0x82A PUSH2 0x825 PUSH2 0x820 DUP5 PUSH2 0x7FE JUMP JUMPDEST PUSH2 0x807 JUMP JUMPDEST PUSH2 0x7FE JUMP JUMPDEST SWAP1 POP SWAP2 SWAP1 POP JUMP JUMPDEST PUSH0 DUP2 SWAP1 POP SWAP2 SWAP1 POP JUMP JUMPDEST PUSH2 0x843 DUP4 PUSH2 0x810 JUMP JUMPDEST PUSH2 0x857 PUSH2 0x84F DUP3 PUSH2 0x831 JUMP JUMPDEST DUP5 DUP5 SLOAD PUSH2 0x7AD JUMP JUMPDEST DUP3 SSTORE POP POP POP POP JUMP JUMPDEST PUSH0 SWAP1 JUMP JUMPDEST PUSH2 0x86B PUSH2 0x85F JUMP JUMPDEST PUSH2 0x876 DUP2 DUP5 DUP5 PUSH2 0x83A JUMP JUMPDEST POP POP POP JUMP JUMPDEST JUMPDEST DUP2 DUP2 LT ISZERO PUSH2 0x899 JUMPI PUSH2 0x88E PUSH0 DUP3 PUSH2 0x863 JUMP JUMPDEST PUSH1 0x1 DUP2 ADD SWAP1 POP PUSH2 0x87C JUMP JUMPDEST POP POP JUMP JUMPDEST PUSH1 0x1F DUP3 GT ISZERO PUSH2 0x8DE JUMPI PUSH2 0x8AF DUP2 PUSH2 0x780 JUMP JUMPDEST PUSH2 0x8B8 DUP5 PUSH2 0x792 JUMP JUMPDEST DUP2 ADD PUSH1 0x20 DUP6 LT ISZERO PUSH2 0x8C7 JUMPI DUP2 SWAP1 POP JUMPDEST PUSH2 0x8DB PUSH2 0x8D3 DUP6 PUSH2 0x792 JUMP JUMPDEST DUP4 ADD DUP3 PUSH2 0x87B JUMP JUMPDEST POP POP JUMPDEST POP POP POP JUMP JUMPDEST PUSH0 DUP3 DUP3 SHR SWAP1 POP SWAP3 SWAP2 POP POP JUMP JUMPDEST PUSH0 PUSH2 0x8FE PUSH0 NOT DUP5 PUSH1 0x8 MUL PUSH2 0x8E3 JUMP JUMPDEST NOT DUP1 DUP4 AND SWAP2 POP POP SWAP3 SWAP2 POP POP JUMP JUMPDEST PUSH0 PUSH2 0x916 DUP4 DUP4 PUSH2 0x8EF JUMP JUMPDEST SWAP2 POP DUP3 PUSH1 0x2 MUL DUP3 OR SWAP1 POP SWAP3 SWAP2 POP POP JUMP JUMPDEST PUSH2 0x92F DUP3 PUSH2 0x606 JUMP JUMPDEST PUSH8 0xFFFFFFFFFFFFFFFF DUP2 GT ISZERO PUSH2 0x948 JUMPI PUSH2 0x947 PUSH2 0x49B JUMP JUMPDEST JUMPDEST PUSH2 0x952 DUP3 SLOAD PUSH2 0x750 JUMP JUMPDEST PUSH2 0x95D DUP3 DUP3 DUP6 PUSH2 0x89D JUMP JUMPDEST PUSH0 PUSH1 0x20 SWAP1 POP PUSH1 0x1F DUP4 GT PUSH1 0x1 DUP2 EQ PUSH2 0x98E JUMPI PUSH0 DUP5 ISZERO PUSH2 0x97C JUMPI DUP3 DUP8 ADD MLOAD SWAP1 POP JUMPDEST PUSH2 0x986 DUP6 DUP3 PUSH2 0x90B JUMP JUMPDEST DUP7 SSTORE POP PUSH2 0x9ED JUMP JUMPDEST PUSH1 0x1F NOT DUP5 AND PUSH2 0x99C DUP7 PUSH2 0x780 JUMP JUMPDEST PUSH0 JUMPDEST DUP3 DUP2 LT ISZERO PUSH2 0x9C3 JUMPI DUP5 DUP10 ADD MLOAD DUP3 SSTORE PUSH1 0x1 DUP3 ADD SWAP2 POP PUSH1 0x20 DUP6 ADD SWAP5 POP PUSH1 0x20 DUP2 ADD SWAP1 POP PUSH2 0x99E JUMP JUMPDEST DUP7 DUP4 LT ISZERO PUSH2 0x9E0 JUMPI DUP5 DUP10 ADD MLOAD PUSH2 0x9DC PUSH1 0x1F DUP10 AND DUP3 PUSH2 0x8EF JUMP JUMPDEST DUP4 SSTORE POP JUMPDEST PUSH1 0x1 PUSH1 0x2 DUP9 MUL ADD DUP9 SSTORE POP POP POP JUMPDEST POP POP POP POP POP POP JUMP INVALID LOG2 PUSH5 0x6970667358 0x22 SLT KECCAK256 DUP14 0x1E 0xBF 0xEC 0xEB CALLDATALOAD 0xAB STATICCALL GASLIMIT 0xA9 BLOBBASEFEE 0xDE SWAP15 0xE5 SDIV CREATE2 0x26 CALLCODE PUSH32 0x562660188A749C6DB3DD806A8964736F6C634300081900330000000000000000 "
				},
				"gasEstimates": {
					"creation": {
						"codeDepositCost": "520600",
						"executionCost": "infinite",
						"totalCost": "infinite"
					},
					"external": {
						"": "infinite",
						"getImplementation()": "2537",
						"setImplementation(address)": "22655",
						"setStringAValue1(string)": "infinite",
						"stringAvalue1()": "infinite",
						"stringAvalue2()": "infinite",
						"stringAvalue3()": "infinite"
					}
				},
				"methodIdentifiers": {
					"getImplementation()": "aaf10f42",
					"setImplementation(address)": "d784d426",
					"setStringAValue1(string)": "1f429731",
					"stringAvalue1()": "52960cab",
					"stringAvalue2()": "2db88051",
					"stringAvalue3()": "b85a2a04"
				}
			},
			"storageLayout": {
				"storage": [
					{
						"astId": 9,
						"contract": "contracts/StorageContractA.sol:StorageContractA",
						"label": "stringAvalue1",
						"offset": 0,
						"slot": "0",
						"type": "t_string_storage"
					},
					{
						"astId": 12,
						"contract": "contracts/StorageContractA.sol:StorageContractA",
						"label": "stringAvalue2",
						"offset": 0,
						"slot": "1",
						"type": "t_string_storage"
					},
					{
						"astId": 15,
						"contract": "contracts/StorageContractA.sol:StorageContractA",
						"label": "stringAvalue3",
						"offset": 0,
						"slot": "2",
						"type": "t_string_storage"
					}
				],
				"types": {
					"t_string_storage": {
						"encoding": "bytes",
						"label": "string",
						"numberOfBytes": "32"
					}
				}
			},
			"userdoc": {
				"kind": "user",
				"methods": {},
				"version": 1
			}
		}
	}
}