{
	"contracts/StorageContractMethods.sol": {
		"StorageContractMethod": {
			"abi": [
				{
					"inputs": [],
					"name": "getStorageContractA",
					"outputs": [
						{
							"internalType": "string",
							"name": "",
							"type": "string"
						}
					],
					"stateMutability": "view",
					"type": "function"
				},
				{
					"inputs": [],
					"name": "getStorageContractB",
					"outputs": [
						{
							"internalType": "string",
							"name": "",
							"type": "string"
						}
					],
					"stateMutability": "view",
					"type": "function"
				},
				{
					"inputs": [
						{
							"internalType": "string",
							"name": "value",
							"type": "string"
						}
					],
					"name": "setStorageContractA",
					"outputs": [],
					"stateMutability": "nonpayable",
					"type": "function"
				},
				{
					"inputs": [
						{
							"internalType": "address payable",
							"name": "_storageContractAAddress",
							"type": "address"
						}
					],
					"name": "setStorageContractAInstance",
					"outputs": [],
					"stateMutability": "nonpayable",
					"type": "function"
				},
				{
					"inputs": [],
					"name": "storageContractAInstance",
					"outputs": [
						{
							"internalType": "contract StorageContractA",
							"name": "",
							"type": "address"
						}
					],
					"stateMutability": "view",
					"type": "function"
				}
			],
			"devdoc": {
				"kind": "dev",
				"methods": {},
				"version": 1
			},
			"evm": {
				"assembly": "    /* \"contracts/StorageContractMethods.sol\":98:1228  contract StorageContractMethod { ... */\n  mstore(0x40, 0x80)\n  callvalue\n  dup1\n  iszero\n  tag_1\n  jumpi\n  0x00\n  dup1\n  revert\ntag_1:\n  pop\n  dataSize(sub_0)\n  dup1\n  dataOffset(sub_0)\n  0x00\n  codecopy\n  0x00\n  return\nstop\n\nsub_0: assembly {\n        /* \"contracts/StorageContractMethods.sol\":98:1228  contract StorageContractMethod { ... */\n      mstore(0x40, 0x80)\n      callvalue\n      dup1\n      iszero\n      tag_1\n      jumpi\n      0x00\n      dup1\n      revert\n    tag_1:\n      pop\n      jumpi(tag_2, lt(calldatasize, 0x04))\n      shr(0xe0, calldataload(0x00))\n      dup1\n      0x609a2cd4\n      eq\n      tag_3\n      jumpi\n      dup1\n      0x7274e31f\n      eq\n      tag_4\n      jumpi\n      dup1\n      0x9092c439\n      eq\n      tag_5\n      jumpi\n      dup1\n      0x9ba36ac1\n      eq\n      tag_6\n      jumpi\n      dup1\n      0xbbabcbfa\n      eq\n      tag_7\n      jumpi\n    tag_2:\n      0x00\n      dup1\n      revert\n        /* \"contracts/StorageContractMethods.sol\":136:184  StorageContractA public storageContractAInstance */\n    tag_3:\n      tag_8\n      tag_9\n      jump\t// in\n    tag_8:\n      mload(0x40)\n      tag_10\n      swap2\n      swap1\n      tag_11\n      jump\t// in\n    tag_10:\n      mload(0x40)\n      dup1\n      swap2\n      sub\n      swap1\n      return\n        /* \"contracts/StorageContractMethods.sol\":328:740  function getStorageContractB() public view returns (string memory) {... */\n    tag_4:\n      tag_12\n      tag_13\n      jump\t// in\n    tag_12:\n      mload(0x40)\n      tag_14\n      swap2\n      swap1\n      tag_15\n      jump\t// in\n    tag_14:\n      mload(0x40)\n      dup1\n      swap2\n      sub\n      swap1\n      return\n        /* \"contracts/StorageContractMethods.sol\":191:321  function getStorageContractA() public view returns(string memory) {... */\n    tag_5:\n      tag_16\n      tag_17\n      jump\t// in\n    tag_16:\n      mload(0x40)\n      tag_18\n      swap2\n      swap1\n      tag_15\n      jump\t// in\n    tag_18:\n      mload(0x40)\n      dup1\n      swap2\n      sub\n      swap1\n      return\n        /* \"contracts/StorageContractMethods.sol\":746:868  function setStorageContractA(string memory value) public {... */\n    tag_6:\n      tag_19\n      0x04\n      dup1\n      calldatasize\n      sub\n      dup2\n      add\n      swap1\n      tag_20\n      swap2\n      swap1\n      tag_21\n      jump\t// in\n    tag_20:\n      tag_22\n      jump\t// in\n    tag_19:\n      stop\n        /* \"contracts/StorageContractMethods.sol\":939:1112  function setStorageContractAInstance(address payable  _storageContractAAddress) public {... */\n    tag_7:\n      tag_23\n      0x04\n      dup1\n      calldatasize\n      sub\n      dup2\n      add\n      swap1\n      tag_24\n      swap2\n      swap1\n      tag_25\n      jump\t// in\n    tag_24:\n      tag_26\n      jump\t// in\n    tag_23:\n      stop\n        /* \"contracts/StorageContractMethods.sol\":136:184  StorageContractA public storageContractAInstance */\n    tag_9:\n      0x00\n      dup1\n      sload\n      swap1\n      0x0100\n      exp\n      swap1\n      div\n      0xffffffffffffffffffffffffffffffffffffffff\n      and\n      dup2\n      jump\t// out\n        /* \"contracts/StorageContractMethods.sol\":328:740  function getStorageContractB() public view returns (string memory) {... */\n    tag_13:\n        /* \"contracts/StorageContractMethods.sol\":380:393  string memory */\n      0x60\n        /* \"contracts/StorageContractMethods.sol\":405:430  bytes memory getValueData */\n      0x00\n        /* \"contracts/StorageContractMethods.sol\":433:475  abi.encodeWithSignature(\"stringBvalue1()\") */\n      add(0x24, mload(0x40))\n      mload(0x40)\n      0x20\n      dup2\n      dup4\n      sub\n      sub\n      dup2\n      mstore\n      swap1\n      0x40\n      mstore\n      and(not(0xffffffffffffffffffffffffffffffffffffffffffffffffffffffff), 0x69e038a000000000000000000000000000000000000000000000000000000000)\n      0x20\n      dup3\n      add\n      dup1\n      mload\n      0xffffffffffffffffffffffffffffffffffffffffffffffffffffffff\n      dup4\n      dup2\n      dup4\n      and\n      or\n      dup4\n      mstore\n      pop\n      pop\n      pop\n      pop\n        /* \"contracts/StorageContractMethods.sol\":405:475  bytes memory getValueData = abi.encodeWithSignature(\"stringBvalue1()\") */\n      swap1\n      pop\n        /* \"contracts/StorageContractMethods.sol\":486:498  bool success */\n      0x00\n        /* \"contracts/StorageContractMethods.sol\":500:523  bytes memory returnData */\n      dup1\n        /* \"contracts/StorageContractMethods.sol\":535:559  storageContractAInstance */\n      0x00\n      dup1\n      sload\n      swap1\n      0x0100\n      exp\n      swap1\n      div\n      0xffffffffffffffffffffffffffffffffffffffff\n      and\n        /* \"contracts/StorageContractMethods.sol\":527:571  address(storageContractAInstance).staticcall */\n      0xffffffffffffffffffffffffffffffffffffffff\n      and\n        /* \"contracts/StorageContractMethods.sol\":572:584  getValueData */\n      dup4\n        /* \"contracts/StorageContractMethods.sol\":527:585  address(storageContractAInstance).staticcall(getValueData) */\n      mload(0x40)\n      tag_28\n      swap2\n      swap1\n      tag_29\n      jump\t// in\n    tag_28:\n      0x00\n      mload(0x40)\n      dup1\n      dup4\n      sub\n      dup2\n      dup6\n      gas\n      staticcall\n      swap2\n      pop\n      pop\n      returndatasize\n      dup1\n      0x00\n      dup2\n      eq\n      tag_32\n      jumpi\n      mload(0x40)\n      swap2\n      pop\n      and(add(returndatasize, 0x3f), not(0x1f))\n      dup3\n      add\n      0x40\n      mstore\n      returndatasize\n      dup3\n      mstore\n      returndatasize\n      0x00\n      0x20\n      dup5\n      add\n      returndatacopy\n      jump(tag_31)\n    tag_32:\n      0x60\n      swap2\n      pop\n    tag_31:\n      pop\n        /* \"contracts/StorageContractMethods.sol\":485:585  (bool success, bytes memory returnData) = address(storageContractAInstance).staticcall(getValueData) */\n      swap2\n      pop\n      swap2\n      pop\n        /* \"contracts/StorageContractMethods.sol\":603:610  success */\n      dup2\n        /* \"contracts/StorageContractMethods.sol\":595:647  require(success, \"Call to get stringBvalue1 failed\") */\n      tag_33\n      jumpi\n      mload(0x40)\n      0x08c379a000000000000000000000000000000000000000000000000000000000\n      dup2\n      mstore\n      0x04\n      add\n      tag_34\n      swap1\n      tag_35\n      jump\t// in\n    tag_34:\n      mload(0x40)\n      dup1\n      swap2\n      sub\n      swap1\n      revert\n    tag_33:\n        /* \"contracts/StorageContractMethods.sol\":657:676  string memory value */\n      0x00\n        /* \"contracts/StorageContractMethods.sol\":690:700  returnData */\n      dup2\n        /* \"contracts/StorageContractMethods.sol\":679:711  abi.decode(returnData, (string)) */\n      dup1\n      0x20\n      add\n      swap1\n      mload\n      dup2\n      add\n      swap1\n      tag_36\n      swap2\n      swap1\n      tag_37\n      jump\t// in\n    tag_36:\n        /* \"contracts/StorageContractMethods.sol\":657:711  string memory value = abi.decode(returnData, (string)) */\n      swap1\n      pop\n        /* \"contracts/StorageContractMethods.sol\":728:733  value */\n      dup1\n        /* \"contracts/StorageContractMethods.sol\":721:733  return value */\n      swap5\n      pop\n      pop\n      pop\n      pop\n      pop\n        /* \"contracts/StorageContractMethods.sol\":328:740  function getStorageContractB() public view returns (string memory) {... */\n      swap1\n      jump\t// out\n        /* \"contracts/StorageContractMethods.sol\":191:321  function getStorageContractA() public view returns(string memory) {... */\n    tag_17:\n        /* \"contracts/StorageContractMethods.sol\":242:255  string memory */\n      0x60\n        /* \"contracts/StorageContractMethods.sol\":274:298  storageContractAInstance */\n      0x00\n      dup1\n      sload\n      swap1\n      0x0100\n      exp\n      swap1\n      div\n      0xffffffffffffffffffffffffffffffffffffffff\n      and\n        /* \"contracts/StorageContractMethods.sol\":274:312  storageContractAInstance.stringAvalue1 */\n      0xffffffffffffffffffffffffffffffffffffffff\n      and\n      0x52960cab\n        /* \"contracts/StorageContractMethods.sol\":274:314  storageContractAInstance.stringAvalue1() */\n      mload(0x40)\n      dup2\n      0xffffffff\n      and\n      0xe0\n      shl\n      dup2\n      mstore\n      0x04\n      add\n      0x00\n      mload(0x40)\n      dup1\n      dup4\n      sub\n      dup2\n      dup7\n      gas\n      staticcall\n      iszero\n      dup1\n      iszero\n      tag_40\n      jumpi\n      returndatasize\n      0x00\n      dup1\n      returndatacopy\n      revert(0x00, returndatasize)\n    tag_40:\n      pop\n      pop\n      pop\n      pop\n      mload(0x40)\n      returndatasize\n      0x00\n      dup3\n      returndatacopy\n      returndatasize\n      not(0x1f)\n      0x1f\n      dup3\n      add\n      and\n      dup3\n      add\n      dup1\n      0x40\n      mstore\n      pop\n      dup2\n      add\n      swap1\n      tag_41\n      swap2\n      swap1\n      tag_37\n      jump\t// in\n    tag_41:\n        /* \"contracts/StorageContractMethods.sol\":267:314  return storageContractAInstance.stringAvalue1() */\n      swap1\n      pop\n        /* \"contracts/StorageContractMethods.sol\":191:321  function getStorageContractA() public view returns(string memory) {... */\n      swap1\n      jump\t// out\n        /* \"contracts/StorageContractMethods.sol\":746:868  function setStorageContractA(string memory value) public {... */\n    tag_22:\n        /* \"contracts/StorageContractMethods.sol\":813:837  storageContractAInstance */\n      0x00\n      dup1\n      sload\n      swap1\n      0x0100\n      exp\n      swap1\n      div\n      0xffffffffffffffffffffffffffffffffffffffff\n      and\n        /* \"contracts/StorageContractMethods.sol\":813:854  storageContractAInstance.setStringAValue1 */\n      0xffffffffffffffffffffffffffffffffffffffff\n      and\n      0x1f429731\n        /* \"contracts/StorageContractMethods.sol\":855:860  value */\n      dup3\n        /* \"contracts/StorageContractMethods.sol\":813:861  storageContractAInstance.setStringAValue1(value) */\n      mload(0x40)\n      dup3\n      0xffffffff\n      and\n      0xe0\n      shl\n      dup2\n      mstore\n      0x04\n      add\n      tag_43\n      swap2\n      swap1\n      tag_15\n      jump\t// in\n    tag_43:\n      0x00\n      mload(0x40)\n      dup1\n      dup4\n      sub\n      dup2\n      0x00\n      dup8\n      dup1\n      extcodesize\n      iszero\n      dup1\n      iszero\n      tag_44\n      jumpi\n      0x00\n      dup1\n      revert\n    tag_44:\n      pop\n      gas\n      call\n      iszero\n      dup1\n      iszero\n      tag_46\n      jumpi\n      returndatasize\n      0x00\n      dup1\n      returndatacopy\n      revert(0x00, returndatasize)\n    tag_46:\n      pop\n      pop\n      pop\n      pop\n        /* \"contracts/StorageContractMethods.sol\":746:868  function setStorageContractA(string memory value) public {... */\n      pop\n      jump\t// out\n        /* \"contracts/StorageContractMethods.sol\":939:1112  function setStorageContractAInstance(address payable  _storageContractAAddress) public {... */\n    tag_26:\n        /* \"contracts/StorageContractMethods.sol\":1080:1104  _storageContractAAddress */\n      dup1\n        /* \"contracts/StorageContractMethods.sol\":1036:1060  storageContractAInstance */\n      0x00\n      dup1\n        /* \"contracts/StorageContractMethods.sol\":1036:1105  storageContractAInstance = StorageContractA(_storageContractAAddress) */\n      0x0100\n      exp\n      dup2\n      sload\n      dup2\n      0xffffffffffffffffffffffffffffffffffffffff\n      mul\n      not\n      and\n      swap1\n      dup4\n      0xffffffffffffffffffffffffffffffffffffffff\n      and\n      mul\n      or\n      swap1\n      sstore\n      pop\n        /* \"contracts/StorageContractMethods.sol\":939:1112  function setStorageContractAInstance(address payable  _storageContractAAddress) public {... */\n      pop\n      jump\t// out\n        /* \"#utility.yul\":7:133   */\n    tag_48:\n        /* \"#utility.yul\":44:51   */\n      0x00\n        /* \"#utility.yul\":84:126   */\n      0xffffffffffffffffffffffffffffffffffffffff\n        /* \"#utility.yul\":77:82   */\n      dup3\n        /* \"#utility.yul\":73:127   */\n      and\n        /* \"#utility.yul\":62:127   */\n      swap1\n      pop\n        /* \"#utility.yul\":7:133   */\n      swap2\n      swap1\n      pop\n      jump\t// out\n        /* \"#utility.yul\":139:199   */\n    tag_49:\n        /* \"#utility.yul\":167:170   */\n      0x00\n        /* \"#utility.yul\":188:193   */\n      dup2\n        /* \"#utility.yul\":181:193   */\n      swap1\n      pop\n        /* \"#utility.yul\":139:199   */\n      swap2\n      swap1\n      pop\n      jump\t// out\n        /* \"#utility.yul\":205:347   */\n    tag_50:\n        /* \"#utility.yul\":255:264   */\n      0x00\n        /* \"#utility.yul\":288:341   */\n      tag_85\n        /* \"#utility.yul\":306:340   */\n      tag_86\n        /* \"#utility.yul\":315:339   */\n      tag_87\n        /* \"#utility.yul\":333:338   */\n      dup5\n        /* \"#utility.yul\":315:339   */\n      tag_48\n      jump\t// in\n    tag_87:\n        /* \"#utility.yul\":306:340   */\n      tag_49\n      jump\t// in\n    tag_86:\n        /* \"#utility.yul\":288:341   */\n      tag_48\n      jump\t// in\n    tag_85:\n        /* \"#utility.yul\":275:341   */\n      swap1\n      pop\n        /* \"#utility.yul\":205:347   */\n      swap2\n      swap1\n      pop\n      jump\t// out\n        /* \"#utility.yul\":353:487   */\n    tag_51:\n        /* \"#utility.yul\":411:420   */\n      0x00\n        /* \"#utility.yul\":444:481   */\n      tag_89\n        /* \"#utility.yul\":475:480   */\n      dup3\n        /* \"#utility.yul\":444:481   */\n      tag_50\n      jump\t// in\n    tag_89:\n        /* \"#utility.yul\":431:481   */\n      swap1\n      pop\n        /* \"#utility.yul\":353:487   */\n      swap2\n      swap1\n      pop\n      jump\t// out\n        /* \"#utility.yul\":493:658   */\n    tag_52:\n        /* \"#utility.yul\":574:583   */\n      0x00\n        /* \"#utility.yul\":607:652   */\n      tag_91\n        /* \"#utility.yul\":646:651   */\n      dup3\n        /* \"#utility.yul\":607:652   */\n      tag_51\n      jump\t// in\n    tag_91:\n        /* \"#utility.yul\":594:652   */\n      swap1\n      pop\n        /* \"#utility.yul\":493:658   */\n      swap2\n      swap1\n      pop\n      jump\t// out\n        /* \"#utility.yul\":664:857   */\n    tag_53:\n        /* \"#utility.yul\":782:850   */\n      tag_93\n        /* \"#utility.yul\":844:849   */\n      dup2\n        /* \"#utility.yul\":782:850   */\n      tag_52\n      jump\t// in\n    tag_93:\n        /* \"#utility.yul\":777:780   */\n      dup3\n        /* \"#utility.yul\":770:851   */\n      mstore\n        /* \"#utility.yul\":664:857   */\n      pop\n      pop\n      jump\t// out\n        /* \"#utility.yul\":863:1147   */\n    tag_11:\n        /* \"#utility.yul\":987:991   */\n      0x00\n        /* \"#utility.yul\":1025:1027   */\n      0x20\n        /* \"#utility.yul\":1014:1023   */\n      dup3\n        /* \"#utility.yul\":1010:1028   */\n      add\n        /* \"#utility.yul\":1002:1028   */\n      swap1\n      pop\n        /* \"#utility.yul\":1038:1140   */\n      tag_95\n        /* \"#utility.yul\":1137:1138   */\n      0x00\n        /* \"#utility.yul\":1126:1135   */\n      dup4\n        /* \"#utility.yul\":1122:1139   */\n      add\n        /* \"#utility.yul\":1113:1119   */\n      dup5\n        /* \"#utility.yul\":1038:1140   */\n      tag_53\n      jump\t// in\n    tag_95:\n        /* \"#utility.yul\":863:1147   */\n      swap3\n      swap2\n      pop\n      pop\n      jump\t// out\n        /* \"#utility.yul\":1153:1252   */\n    tag_54:\n        /* \"#utility.yul\":1205:1211   */\n      0x00\n        /* \"#utility.yul\":1239:1244   */\n      dup2\n        /* \"#utility.yul\":1233:1245   */\n      mload\n        /* \"#utility.yul\":1223:1245   */\n      swap1\n      pop\n        /* \"#utility.yul\":1153:1252   */\n      swap2\n      swap1\n      pop\n      jump\t// out\n        /* \"#utility.yul\":1258:1427   */\n    tag_55:\n        /* \"#utility.yul\":1342:1353   */\n      0x00\n        /* \"#utility.yul\":1376:1382   */\n      dup3\n        /* \"#utility.yul\":1371:1374   */\n      dup3\n        /* \"#utility.yul\":1364:1383   */\n      mstore\n        /* \"#utility.yul\":1416:1420   */\n      0x20\n        /* \"#utility.yul\":1411:1414   */\n      dup3\n        /* \"#utility.yul\":1407:1421   */\n      add\n        /* \"#utility.yul\":1392:1421   */\n      swap1\n      pop\n        /* \"#utility.yul\":1258:1427   */\n      swap3\n      swap2\n      pop\n      pop\n      jump\t// out\n        /* \"#utility.yul\":1433:1572   */\n    tag_56:\n        /* \"#utility.yul\":1522:1528   */\n      dup3\n        /* \"#utility.yul\":1517:1520   */\n      dup2\n        /* \"#utility.yul\":1512:1515   */\n      dup4\n        /* \"#utility.yul\":1506:1529   */\n      mcopy\n        /* \"#utility.yul\":1563:1564   */\n      0x00\n        /* \"#utility.yul\":1554:1560   */\n      dup4\n        /* \"#utility.yul\":1549:1552   */\n      dup4\n        /* \"#utility.yul\":1545:1561   */\n      add\n        /* \"#utility.yul\":1538:1565   */\n      mstore\n        /* \"#utility.yul\":1433:1572   */\n      pop\n      pop\n      pop\n      jump\t// out\n        /* \"#utility.yul\":1578:1680   */\n    tag_57:\n        /* \"#utility.yul\":1619:1625   */\n      0x00\n        /* \"#utility.yul\":1670:1672   */\n      0x1f\n        /* \"#utility.yul\":1666:1673   */\n      not\n        /* \"#utility.yul\":1661:1663   */\n      0x1f\n        /* \"#utility.yul\":1654:1659   */\n      dup4\n        /* \"#utility.yul\":1650:1664   */\n      add\n        /* \"#utility.yul\":1646:1674   */\n      and\n        /* \"#utility.yul\":1636:1674   */\n      swap1\n      pop\n        /* \"#utility.yul\":1578:1680   */\n      swap2\n      swap1\n      pop\n      jump\t// out\n        /* \"#utility.yul\":1686:2063   */\n    tag_58:\n        /* \"#utility.yul\":1774:1777   */\n      0x00\n        /* \"#utility.yul\":1802:1841   */\n      tag_101\n        /* \"#utility.yul\":1835:1840   */\n      dup3\n        /* \"#utility.yul\":1802:1841   */\n      tag_54\n      jump\t// in\n    tag_101:\n        /* \"#utility.yul\":1857:1928   */\n      tag_102\n        /* \"#utility.yul\":1921:1927   */\n      dup2\n        /* \"#utility.yul\":1916:1919   */\n      dup6\n        /* \"#utility.yul\":1857:1928   */\n      tag_55\n      jump\t// in\n    tag_102:\n        /* \"#utility.yul\":1850:1928   */\n      swap4\n      pop\n        /* \"#utility.yul\":1937:2002   */\n      tag_103\n        /* \"#utility.yul\":1995:2001   */\n      dup2\n        /* \"#utility.yul\":1990:1993   */\n      dup6\n        /* \"#utility.yul\":1983:1987   */\n      0x20\n        /* \"#utility.yul\":1976:1981   */\n      dup7\n        /* \"#utility.yul\":1972:1988   */\n      add\n        /* \"#utility.yul\":1937:2002   */\n      tag_56\n      jump\t// in\n    tag_103:\n        /* \"#utility.yul\":2027:2056   */\n      tag_104\n        /* \"#utility.yul\":2049:2055   */\n      dup2\n        /* \"#utility.yul\":2027:2056   */\n      tag_57\n      jump\t// in\n    tag_104:\n        /* \"#utility.yul\":2022:2025   */\n      dup5\n        /* \"#utility.yul\":2018:2057   */\n      add\n        /* \"#utility.yul\":2011:2057   */\n      swap2\n      pop\n        /* \"#utility.yul\":1778:2063   */\n      pop\n        /* \"#utility.yul\":1686:2063   */\n      swap3\n      swap2\n      pop\n      pop\n      jump\t// out\n        /* \"#utility.yul\":2069:2382   */\n    tag_15:\n        /* \"#utility.yul\":2182:2186   */\n      0x00\n        /* \"#utility.yul\":2220:2222   */\n      0x20\n        /* \"#utility.yul\":2209:2218   */\n      dup3\n        /* \"#utility.yul\":2205:2223   */\n      add\n        /* \"#utility.yul\":2197:2223   */\n      swap1\n      pop\n        /* \"#utility.yul\":2269:2278   */\n      dup2\n        /* \"#utility.yul\":2263:2267   */\n      dup2\n        /* \"#utility.yul\":2259:2279   */\n      sub\n        /* \"#utility.yul\":2255:2256   */\n      0x00\n        /* \"#utility.yul\":2244:2253   */\n      dup4\n        /* \"#utility.yul\":2240:2257   */\n      add\n        /* \"#utility.yul\":2233:2280   */\n      mstore\n        /* \"#utility.yul\":2297:2375   */\n      tag_106\n        /* \"#utility.yul\":2370:2374   */\n      dup2\n        /* \"#utility.yul\":2361:2367   */\n      dup5\n        /* \"#utility.yul\":2297:2375   */\n      tag_58\n      jump\t// in\n    tag_106:\n        /* \"#utility.yul\":2289:2375   */\n      swap1\n      pop\n        /* \"#utility.yul\":2069:2382   */\n      swap3\n      swap2\n      pop\n      pop\n      jump\t// out\n        /* \"#utility.yul\":2388:2463   */\n    tag_59:\n        /* \"#utility.yul\":2421:2427   */\n      0x00\n        /* \"#utility.yul\":2454:2456   */\n      0x40\n        /* \"#utility.yul\":2448:2457   */\n      mload\n        /* \"#utility.yul\":2438:2457   */\n      swap1\n      pop\n        /* \"#utility.yul\":2388:2463   */\n      swap1\n      jump\t// out\n        /* \"#utility.yul\":2469:2586   */\n    tag_60:\n        /* \"#utility.yul\":2578:2579   */\n      0x00\n        /* \"#utility.yul\":2575:2576   */\n      dup1\n        /* \"#utility.yul\":2568:2580   */\n      revert\n        /* \"#utility.yul\":2592:2709   */\n    tag_61:\n        /* \"#utility.yul\":2701:2702   */\n      0x00\n        /* \"#utility.yul\":2698:2699   */\n      dup1\n        /* \"#utility.yul\":2691:2703   */\n      revert\n        /* \"#utility.yul\":2715:2832   */\n    tag_62:\n        /* \"#utility.yul\":2824:2825   */\n      0x00\n        /* \"#utility.yul\":2821:2822   */\n      dup1\n        /* \"#utility.yul\":2814:2826   */\n      revert\n        /* \"#utility.yul\":2838:2955   */\n    tag_63:\n        /* \"#utility.yul\":2947:2948   */\n      0x00\n        /* \"#utility.yul\":2944:2945   */\n      dup1\n        /* \"#utility.yul\":2937:2949   */\n      revert\n        /* \"#utility.yul\":2961:3141   */\n    tag_64:\n        /* \"#utility.yul\":3009:3086   */\n      0x4e487b7100000000000000000000000000000000000000000000000000000000\n        /* \"#utility.yul\":3006:3007   */\n      0x00\n        /* \"#utility.yul\":2999:3087   */\n      mstore\n        /* \"#utility.yul\":3106:3110   */\n      0x41\n        /* \"#utility.yul\":3103:3104   */\n      0x04\n        /* \"#utility.yul\":3096:3111   */\n      mstore\n        /* \"#utility.yul\":3130:3134   */\n      0x24\n        /* \"#utility.yul\":3127:3128   */\n      0x00\n        /* \"#utility.yul\":3120:3135   */\n      revert\n        /* \"#utility.yul\":3147:3428   */\n    tag_65:\n        /* \"#utility.yul\":3230:3257   */\n      tag_114\n        /* \"#utility.yul\":3252:3256   */\n      dup3\n        /* \"#utility.yul\":3230:3257   */\n      tag_57\n      jump\t// in\n    tag_114:\n        /* \"#utility.yul\":3222:3228   */\n      dup2\n        /* \"#utility.yul\":3218:3258   */\n      add\n        /* \"#utility.yul\":3360:3366   */\n      dup2\n        /* \"#utility.yul\":3348:3358   */\n      dup2\n        /* \"#utility.yul\":3345:3367   */\n      lt\n        /* \"#utility.yul\":3324:3342   */\n      0xffffffffffffffff\n        /* \"#utility.yul\":3312:3322   */\n      dup3\n        /* \"#utility.yul\":3309:3343   */\n      gt\n        /* \"#utility.yul\":3306:3368   */\n      or\n        /* \"#utility.yul\":3303:3391   */\n      iszero\n      tag_115\n      jumpi\n        /* \"#utility.yul\":3371:3389   */\n      tag_116\n      tag_64\n      jump\t// in\n    tag_116:\n        /* \"#utility.yul\":3303:3391   */\n    tag_115:\n        /* \"#utility.yul\":3411:3421   */\n      dup1\n        /* \"#utility.yul\":3407:3409   */\n      0x40\n        /* \"#utility.yul\":3400:3422   */\n      mstore\n        /* \"#utility.yul\":3190:3428   */\n      pop\n        /* \"#utility.yul\":3147:3428   */\n      pop\n      pop\n      jump\t// out\n        /* \"#utility.yul\":3434:3563   */\n    tag_66:\n        /* \"#utility.yul\":3468:3474   */\n      0x00\n        /* \"#utility.yul\":3495:3515   */\n      tag_118\n      tag_59\n      jump\t// in\n    tag_118:\n        /* \"#utility.yul\":3485:3515   */\n      swap1\n      pop\n        /* \"#utility.yul\":3524:3557   */\n      tag_119\n        /* \"#utility.yul\":3552:3556   */\n      dup3\n        /* \"#utility.yul\":3544:3550   */\n      dup3\n        /* \"#utility.yul\":3524:3557   */\n      tag_65\n      jump\t// in\n    tag_119:\n        /* \"#utility.yul\":3434:3563   */\n      swap2\n      swap1\n      pop\n      jump\t// out\n        /* \"#utility.yul\":3569:3877   */\n    tag_67:\n        /* \"#utility.yul\":3631:3635   */\n      0x00\n        /* \"#utility.yul\":3721:3739   */\n      0xffffffffffffffff\n        /* \"#utility.yul\":3713:3719   */\n      dup3\n        /* \"#utility.yul\":3710:3740   */\n      gt\n        /* \"#utility.yul\":3707:3763   */\n      iszero\n      tag_121\n      jumpi\n        /* \"#utility.yul\":3743:3761   */\n      tag_122\n      tag_64\n      jump\t// in\n    tag_122:\n        /* \"#utility.yul\":3707:3763   */\n    tag_121:\n        /* \"#utility.yul\":3781:3810   */\n      tag_123\n        /* \"#utility.yul\":3803:3809   */\n      dup3\n        /* \"#utility.yul\":3781:3810   */\n      tag_57\n      jump\t// in\n    tag_123:\n        /* \"#utility.yul\":3773:3810   */\n      swap1\n      pop\n        /* \"#utility.yul\":3865:3869   */\n      0x20\n        /* \"#utility.yul\":3859:3863   */\n      dup2\n        /* \"#utility.yul\":3855:3870   */\n      add\n        /* \"#utility.yul\":3847:3870   */\n      swap1\n      pop\n        /* \"#utility.yul\":3569:3877   */\n      swap2\n      swap1\n      pop\n      jump\t// out\n        /* \"#utility.yul\":3883:4031   */\n    tag_68:\n        /* \"#utility.yul\":3981:3987   */\n      dup3\n        /* \"#utility.yul\":3976:3979   */\n      dup2\n        /* \"#utility.yul\":3971:3974   */\n      dup4\n        /* \"#utility.yul\":3958:3988   */\n      calldatacopy\n        /* \"#utility.yul\":4022:4023   */\n      0x00\n        /* \"#utility.yul\":4013:4019   */\n      dup4\n        /* \"#utility.yul\":4008:4011   */\n      dup4\n        /* \"#utility.yul\":4004:4020   */\n      add\n        /* \"#utility.yul\":3997:4024   */\n      mstore\n        /* \"#utility.yul\":3883:4031   */\n      pop\n      pop\n      pop\n      jump\t// out\n        /* \"#utility.yul\":4037:4462   */\n    tag_69:\n        /* \"#utility.yul\":4115:4120   */\n      0x00\n        /* \"#utility.yul\":4140:4206   */\n      tag_126\n        /* \"#utility.yul\":4156:4205   */\n      tag_127\n        /* \"#utility.yul\":4198:4204   */\n      dup5\n        /* \"#utility.yul\":4156:4205   */\n      tag_67\n      jump\t// in\n    tag_127:\n        /* \"#utility.yul\":4140:4206   */\n      tag_66\n      jump\t// in\n    tag_126:\n        /* \"#utility.yul\":4131:4206   */\n      swap1\n      pop\n        /* \"#utility.yul\":4229:4235   */\n      dup3\n        /* \"#utility.yul\":4222:4227   */\n      dup2\n        /* \"#utility.yul\":4215:4236   */\n      mstore\n        /* \"#utility.yul\":4267:4271   */\n      0x20\n        /* \"#utility.yul\":4260:4265   */\n      dup2\n        /* \"#utility.yul\":4256:4272   */\n      add\n        /* \"#utility.yul\":4305:4308   */\n      dup5\n        /* \"#utility.yul\":4296:4302   */\n      dup5\n        /* \"#utility.yul\":4291:4294   */\n      dup5\n        /* \"#utility.yul\":4287:4303   */\n      add\n        /* \"#utility.yul\":4284:4309   */\n      gt\n        /* \"#utility.yul\":4281:4393   */\n      iszero\n      tag_128\n      jumpi\n        /* \"#utility.yul\":4312:4391   */\n      tag_129\n      tag_63\n      jump\t// in\n    tag_129:\n        /* \"#utility.yul\":4281:4393   */\n    tag_128:\n        /* \"#utility.yul\":4402:4456   */\n      tag_130\n        /* \"#utility.yul\":4449:4455   */\n      dup5\n        /* \"#utility.yul\":4444:4447   */\n      dup3\n        /* \"#utility.yul\":4439:4442   */\n      dup6\n        /* \"#utility.yul\":4402:4456   */\n      tag_68\n      jump\t// in\n    tag_130:\n        /* \"#utility.yul\":4121:4462   */\n      pop\n        /* \"#utility.yul\":4037:4462   */\n      swap4\n      swap3\n      pop\n      pop\n      pop\n      jump\t// out\n        /* \"#utility.yul\":4482:4822   */\n    tag_70:\n        /* \"#utility.yul\":4538:4543   */\n      0x00\n        /* \"#utility.yul\":4587:4590   */\n      dup3\n        /* \"#utility.yul\":4580:4584   */\n      0x1f\n        /* \"#utility.yul\":4572:4578   */\n      dup4\n        /* \"#utility.yul\":4568:4585   */\n      add\n        /* \"#utility.yul\":4564:4591   */\n      slt\n        /* \"#utility.yul\":4554:4676   */\n      tag_132\n      jumpi\n        /* \"#utility.yul\":4595:4674   */\n      tag_133\n      tag_62\n      jump\t// in\n    tag_133:\n        /* \"#utility.yul\":4554:4676   */\n    tag_132:\n        /* \"#utility.yul\":4712:4718   */\n      dup2\n        /* \"#utility.yul\":4699:4719   */\n      calldataload\n        /* \"#utility.yul\":4737:4816   */\n      tag_134\n        /* \"#utility.yul\":4812:4815   */\n      dup5\n        /* \"#utility.yul\":4804:4810   */\n      dup3\n        /* \"#utility.yul\":4797:4801   */\n      0x20\n        /* \"#utility.yul\":4789:4795   */\n      dup7\n        /* \"#utility.yul\":4785:4802   */\n      add\n        /* \"#utility.yul\":4737:4816   */\n      tag_69\n      jump\t// in\n    tag_134:\n        /* \"#utility.yul\":4728:4816   */\n      swap2\n      pop\n        /* \"#utility.yul\":4544:4822   */\n      pop\n        /* \"#utility.yul\":4482:4822   */\n      swap3\n      swap2\n      pop\n      pop\n      jump\t// out\n        /* \"#utility.yul\":4828:5337   */\n    tag_21:\n        /* \"#utility.yul\":4897:4903   */\n      0x00\n        /* \"#utility.yul\":4946:4948   */\n      0x20\n        /* \"#utility.yul\":4934:4943   */\n      dup3\n        /* \"#utility.yul\":4925:4932   */\n      dup5\n        /* \"#utility.yul\":4921:4944   */\n      sub\n        /* \"#utility.yul\":4917:4949   */\n      slt\n        /* \"#utility.yul\":4914:5033   */\n      iszero\n      tag_136\n      jumpi\n        /* \"#utility.yul\":4952:5031   */\n      tag_137\n      tag_60\n      jump\t// in\n    tag_137:\n        /* \"#utility.yul\":4914:5033   */\n    tag_136:\n        /* \"#utility.yul\":5100:5101   */\n      0x00\n        /* \"#utility.yul\":5089:5098   */\n      dup3\n        /* \"#utility.yul\":5085:5102   */\n      add\n        /* \"#utility.yul\":5072:5103   */\n      calldataload\n        /* \"#utility.yul\":5130:5148   */\n      0xffffffffffffffff\n        /* \"#utility.yul\":5122:5128   */\n      dup2\n        /* \"#utility.yul\":5119:5149   */\n      gt\n        /* \"#utility.yul\":5116:5233   */\n      iszero\n      tag_138\n      jumpi\n        /* \"#utility.yul\":5152:5231   */\n      tag_139\n      tag_61\n      jump\t// in\n    tag_139:\n        /* \"#utility.yul\":5116:5233   */\n    tag_138:\n        /* \"#utility.yul\":5257:5320   */\n      tag_140\n        /* \"#utility.yul\":5312:5319   */\n      dup5\n        /* \"#utility.yul\":5303:5309   */\n      dup3\n        /* \"#utility.yul\":5292:5301   */\n      dup6\n        /* \"#utility.yul\":5288:5310   */\n      add\n        /* \"#utility.yul\":5257:5320   */\n      tag_70\n      jump\t// in\n    tag_140:\n        /* \"#utility.yul\":5247:5320   */\n      swap2\n      pop\n        /* \"#utility.yul\":5043:5330   */\n      pop\n        /* \"#utility.yul\":4828:5337   */\n      swap3\n      swap2\n      pop\n      pop\n      jump\t// out\n        /* \"#utility.yul\":5343:5447   */\n    tag_71:\n        /* \"#utility.yul\":5388:5395   */\n      0x00\n        /* \"#utility.yul\":5417:5441   */\n      tag_142\n        /* \"#utility.yul\":5435:5440   */\n      dup3\n        /* \"#utility.yul\":5417:5441   */\n      tag_48\n      jump\t// in\n    tag_142:\n        /* \"#utility.yul\":5406:5441   */\n      swap1\n      pop\n        /* \"#utility.yul\":5343:5447   */\n      swap2\n      swap1\n      pop\n      jump\t// out\n        /* \"#utility.yul\":5453:5591   */\n    tag_72:\n        /* \"#utility.yul\":5534:5566   */\n      tag_144\n        /* \"#utility.yul\":5560:5565   */\n      dup2\n        /* \"#utility.yul\":5534:5566   */\n      tag_71\n      jump\t// in\n    tag_144:\n        /* \"#utility.yul\":5527:5532   */\n      dup2\n        /* \"#utility.yul\":5524:5567   */\n      eq\n        /* \"#utility.yul\":5514:5585   */\n      tag_145\n      jumpi\n        /* \"#utility.yul\":5581:5582   */\n      0x00\n        /* \"#utility.yul\":5578:5579   */\n      dup1\n        /* \"#utility.yul\":5571:5583   */\n      revert\n        /* \"#utility.yul\":5514:5585   */\n    tag_145:\n        /* \"#utility.yul\":5453:5591   */\n      pop\n      jump\t// out\n        /* \"#utility.yul\":5597:5752   */\n    tag_73:\n        /* \"#utility.yul\":5651:5656   */\n      0x00\n        /* \"#utility.yul\":5689:5695   */\n      dup2\n        /* \"#utility.yul\":5676:5696   */\n      calldataload\n        /* \"#utility.yul\":5667:5696   */\n      swap1\n      pop\n        /* \"#utility.yul\":5705:5746   */\n      tag_147\n        /* \"#utility.yul\":5740:5745   */\n      dup2\n        /* \"#utility.yul\":5705:5746   */\n      tag_72\n      jump\t// in\n    tag_147:\n        /* \"#utility.yul\":5597:5752   */\n      swap3\n      swap2\n      pop\n      pop\n      jump\t// out\n        /* \"#utility.yul\":5758:6103   */\n    tag_25:\n        /* \"#utility.yul\":5825:5831   */\n      0x00\n        /* \"#utility.yul\":5874:5876   */\n      0x20\n        /* \"#utility.yul\":5862:5871   */\n      dup3\n        /* \"#utility.yul\":5853:5860   */\n      dup5\n        /* \"#utility.yul\":5849:5872   */\n      sub\n        /* \"#utility.yul\":5845:5877   */\n      slt\n        /* \"#utility.yul\":5842:5961   */\n      iszero\n      tag_149\n      jumpi\n        /* \"#utility.yul\":5880:5959   */\n      tag_150\n      tag_60\n      jump\t// in\n    tag_150:\n        /* \"#utility.yul\":5842:5961   */\n    tag_149:\n        /* \"#utility.yul\":6000:6001   */\n      0x00\n        /* \"#utility.yul\":6025:6086   */\n      tag_151\n        /* \"#utility.yul\":6078:6085   */\n      dup5\n        /* \"#utility.yul\":6069:6075   */\n      dup3\n        /* \"#utility.yul\":6058:6067   */\n      dup6\n        /* \"#utility.yul\":6054:6076   */\n      add\n        /* \"#utility.yul\":6025:6086   */\n      tag_73\n      jump\t// in\n    tag_151:\n        /* \"#utility.yul\":6015:6086   */\n      swap2\n      pop\n        /* \"#utility.yul\":5971:6096   */\n      pop\n        /* \"#utility.yul\":5758:6103   */\n      swap3\n      swap2\n      pop\n      pop\n      jump\t// out\n        /* \"#utility.yul\":6109:6207   */\n    tag_74:\n        /* \"#utility.yul\":6160:6166   */\n      0x00\n        /* \"#utility.yul\":6194:6199   */\n      dup2\n        /* \"#utility.yul\":6188:6200   */\n      mload\n        /* \"#utility.yul\":6178:6200   */\n      swap1\n      pop\n        /* \"#utility.yul\":6109:6207   */\n      swap2\n      swap1\n      pop\n      jump\t// out\n        /* \"#utility.yul\":6213:6360   */\n    tag_75:\n        /* \"#utility.yul\":6314:6325   */\n      0x00\n        /* \"#utility.yul\":6351:6354   */\n      dup2\n        /* \"#utility.yul\":6336:6354   */\n      swap1\n      pop\n        /* \"#utility.yul\":6213:6360   */\n      swap3\n      swap2\n      pop\n      pop\n      jump\t// out\n        /* \"#utility.yul\":6366:6752   */\n    tag_76:\n        /* \"#utility.yul\":6470:6473   */\n      0x00\n        /* \"#utility.yul\":6498:6536   */\n      tag_155\n        /* \"#utility.yul\":6530:6535   */\n      dup3\n        /* \"#utility.yul\":6498:6536   */\n      tag_74\n      jump\t// in\n    tag_155:\n        /* \"#utility.yul\":6552:6640   */\n      tag_156\n        /* \"#utility.yul\":6633:6639   */\n      dup2\n        /* \"#utility.yul\":6628:6631   */\n      dup6\n        /* \"#utility.yul\":6552:6640   */\n      tag_75\n      jump\t// in\n    tag_156:\n        /* \"#utility.yul\":6545:6640   */\n      swap4\n      pop\n        /* \"#utility.yul\":6649:6714   */\n      tag_157\n        /* \"#utility.yul\":6707:6713   */\n      dup2\n        /* \"#utility.yul\":6702:6705   */\n      dup6\n        /* \"#utility.yul\":6695:6699   */\n      0x20\n        /* \"#utility.yul\":6688:6693   */\n      dup7\n        /* \"#utility.yul\":6684:6700   */\n      add\n        /* \"#utility.yul\":6649:6714   */\n      tag_56\n      jump\t// in\n    tag_157:\n        /* \"#utility.yul\":6739:6745   */\n      dup1\n        /* \"#utility.yul\":6734:6737   */\n      dup5\n        /* \"#utility.yul\":6730:6746   */\n      add\n        /* \"#utility.yul\":6723:6746   */\n      swap2\n      pop\n        /* \"#utility.yul\":6474:6752   */\n      pop\n        /* \"#utility.yul\":6366:6752   */\n      swap3\n      swap2\n      pop\n      pop\n      jump\t// out\n        /* \"#utility.yul\":6758:7029   */\n    tag_29:\n        /* \"#utility.yul\":6888:6891   */\n      0x00\n        /* \"#utility.yul\":6910:7003   */\n      tag_159\n        /* \"#utility.yul\":6999:7002   */\n      dup3\n        /* \"#utility.yul\":6990:6996   */\n      dup5\n        /* \"#utility.yul\":6910:7003   */\n      tag_76\n      jump\t// in\n    tag_159:\n        /* \"#utility.yul\":6903:7003   */\n      swap2\n      pop\n        /* \"#utility.yul\":7020:7023   */\n      dup2\n        /* \"#utility.yul\":7013:7023   */\n      swap1\n      pop\n        /* \"#utility.yul\":6758:7029   */\n      swap3\n      swap2\n      pop\n      pop\n      jump\t// out\n        /* \"#utility.yul\":7035:7217   */\n    tag_77:\n        /* \"#utility.yul\":7175:7209   */\n      0x43616c6c20746f2067657420737472696e674276616c756531206661696c6564\n        /* \"#utility.yul\":7171:7172   */\n      0x00\n        /* \"#utility.yul\":7163:7169   */\n      dup3\n        /* \"#utility.yul\":7159:7173   */\n      add\n        /* \"#utility.yul\":7152:7210   */\n      mstore\n        /* \"#utility.yul\":7035:7217   */\n      pop\n      jump\t// out\n        /* \"#utility.yul\":7223:7589   */\n    tag_78:\n        /* \"#utility.yul\":7365:7368   */\n      0x00\n        /* \"#utility.yul\":7386:7453   */\n      tag_162\n        /* \"#utility.yul\":7450:7452   */\n      0x20\n        /* \"#utility.yul\":7445:7448   */\n      dup4\n        /* \"#utility.yul\":7386:7453   */\n      tag_55\n      jump\t// in\n    tag_162:\n        /* \"#utility.yul\":7379:7453   */\n      swap2\n      pop\n        /* \"#utility.yul\":7462:7555   */\n      tag_163\n        /* \"#utility.yul\":7551:7554   */\n      dup3\n        /* \"#utility.yul\":7462:7555   */\n      tag_77\n      jump\t// in\n    tag_163:\n        /* \"#utility.yul\":7580:7582   */\n      0x20\n        /* \"#utility.yul\":7575:7578   */\n      dup3\n        /* \"#utility.yul\":7571:7583   */\n      add\n        /* \"#utility.yul\":7564:7583   */\n      swap1\n      pop\n        /* \"#utility.yul\":7223:7589   */\n      swap2\n      swap1\n      pop\n      jump\t// out\n        /* \"#utility.yul\":7595:8014   */\n    tag_35:\n        /* \"#utility.yul\":7761:7765   */\n      0x00\n        /* \"#utility.yul\":7799:7801   */\n      0x20\n        /* \"#utility.yul\":7788:7797   */\n      dup3\n        /* \"#utility.yul\":7784:7802   */\n      add\n        /* \"#utility.yul\":7776:7802   */\n      swap1\n      pop\n        /* \"#utility.yul\":7848:7857   */\n      dup2\n        /* \"#utility.yul\":7842:7846   */\n      dup2\n        /* \"#utility.yul\":7838:7858   */\n      sub\n        /* \"#utility.yul\":7834:7835   */\n      0x00\n        /* \"#utility.yul\":7823:7832   */\n      dup4\n        /* \"#utility.yul\":7819:7836   */\n      add\n        /* \"#utility.yul\":7812:7859   */\n      mstore\n        /* \"#utility.yul\":7876:8007   */\n      tag_165\n        /* \"#utility.yul\":8002:8006   */\n      dup2\n        /* \"#utility.yul\":7876:8007   */\n      tag_78\n      jump\t// in\n    tag_165:\n        /* \"#utility.yul\":7868:8007   */\n      swap1\n      pop\n        /* \"#utility.yul\":7595:8014   */\n      swap2\n      swap1\n      pop\n      jump\t// out\n        /* \"#utility.yul\":8020:8454   */\n    tag_79:\n        /* \"#utility.yul\":8109:8114   */\n      0x00\n        /* \"#utility.yul\":8134:8200   */\n      tag_167\n        /* \"#utility.yul\":8150:8199   */\n      tag_168\n        /* \"#utility.yul\":8192:8198   */\n      dup5\n        /* \"#utility.yul\":8150:8199   */\n      tag_67\n      jump\t// in\n    tag_168:\n        /* \"#utility.yul\":8134:8200   */\n      tag_66\n      jump\t// in\n    tag_167:\n        /* \"#utility.yul\":8125:8200   */\n      swap1\n      pop\n        /* \"#utility.yul\":8223:8229   */\n      dup3\n        /* \"#utility.yul\":8216:8221   */\n      dup2\n        /* \"#utility.yul\":8209:8230   */\n      mstore\n        /* \"#utility.yul\":8261:8265   */\n      0x20\n        /* \"#utility.yul\":8254:8259   */\n      dup2\n        /* \"#utility.yul\":8250:8266   */\n      add\n        /* \"#utility.yul\":8299:8302   */\n      dup5\n        /* \"#utility.yul\":8290:8296   */\n      dup5\n        /* \"#utility.yul\":8285:8288   */\n      dup5\n        /* \"#utility.yul\":8281:8297   */\n      add\n        /* \"#utility.yul\":8278:8303   */\n      gt\n        /* \"#utility.yul\":8275:8387   */\n      iszero\n      tag_169\n      jumpi\n        /* \"#utility.yul\":8306:8385   */\n      tag_170\n      tag_63\n      jump\t// in\n    tag_170:\n        /* \"#utility.yul\":8275:8387   */\n    tag_169:\n        /* \"#utility.yul\":8396:8448   */\n      tag_171\n        /* \"#utility.yul\":8441:8447   */\n      dup5\n        /* \"#utility.yul\":8436:8439   */\n      dup3\n        /* \"#utility.yul\":8431:8434   */\n      dup6\n        /* \"#utility.yul\":8396:8448   */\n      tag_56\n      jump\t// in\n    tag_171:\n        /* \"#utility.yul\":8115:8454   */\n      pop\n        /* \"#utility.yul\":8020:8454   */\n      swap4\n      swap3\n      pop\n      pop\n      pop\n      jump\t// out\n        /* \"#utility.yul\":8474:8829   */\n    tag_80:\n        /* \"#utility.yul\":8541:8546   */\n      0x00\n        /* \"#utility.yul\":8590:8593   */\n      dup3\n        /* \"#utility.yul\":8583:8587   */\n      0x1f\n        /* \"#utility.yul\":8575:8581   */\n      dup4\n        /* \"#utility.yul\":8571:8588   */\n      add\n        /* \"#utility.yul\":8567:8594   */\n      slt\n        /* \"#utility.yul\":8557:8679   */\n      tag_173\n      jumpi\n        /* \"#utility.yul\":8598:8677   */\n      tag_174\n      tag_62\n      jump\t// in\n    tag_174:\n        /* \"#utility.yul\":8557:8679   */\n    tag_173:\n        /* \"#utility.yul\":8708:8714   */\n      dup2\n        /* \"#utility.yul\":8702:8715   */\n      mload\n        /* \"#utility.yul\":8733:8823   */\n      tag_175\n        /* \"#utility.yul\":8819:8822   */\n      dup5\n        /* \"#utility.yul\":8811:8817   */\n      dup3\n        /* \"#utility.yul\":8804:8808   */\n      0x20\n        /* \"#utility.yul\":8796:8802   */\n      dup7\n        /* \"#utility.yul\":8792:8809   */\n      add\n        /* \"#utility.yul\":8733:8823   */\n      tag_79\n      jump\t// in\n    tag_175:\n        /* \"#utility.yul\":8724:8823   */\n      swap2\n      pop\n        /* \"#utility.yul\":8547:8829   */\n      pop\n        /* \"#utility.yul\":8474:8829   */\n      swap3\n      swap2\n      pop\n      pop\n      jump\t// out\n        /* \"#utility.yul\":8835:9359   */\n    tag_37:\n        /* \"#utility.yul\":8915:8921   */\n      0x00\n        /* \"#utility.yul\":8964:8966   */\n      0x20\n        /* \"#utility.yul\":8952:8961   */\n      dup3\n        /* \"#utility.yul\":8943:8950   */\n      dup5\n        /* \"#utility.yul\":8939:8962   */\n      sub\n        /* \"#utility.yul\":8935:8967   */\n      slt\n        /* \"#utility.yul\":8932:9051   */\n      iszero\n      tag_177\n      jumpi\n        /* \"#utility.yul\":8970:9049   */\n      tag_178\n      tag_60\n      jump\t// in\n    tag_178:\n        /* \"#utility.yul\":8932:9051   */\n    tag_177:\n        /* \"#utility.yul\":9111:9112   */\n      0x00\n        /* \"#utility.yul\":9100:9109   */\n      dup3\n        /* \"#utility.yul\":9096:9113   */\n      add\n        /* \"#utility.yul\":9090:9114   */\n      mload\n        /* \"#utility.yul\":9141:9159   */\n      0xffffffffffffffff\n        /* \"#utility.yul\":9133:9139   */\n      dup2\n        /* \"#utility.yul\":9130:9160   */\n      gt\n        /* \"#utility.yul\":9127:9244   */\n      iszero\n      tag_179\n      jumpi\n        /* \"#utility.yul\":9163:9242   */\n      tag_180\n      tag_61\n      jump\t// in\n    tag_180:\n        /* \"#utility.yul\":9127:9244   */\n    tag_179:\n        /* \"#utility.yul\":9268:9342   */\n      tag_181\n        /* \"#utility.yul\":9334:9341   */\n      dup5\n        /* \"#utility.yul\":9325:9331   */\n      dup3\n        /* \"#utility.yul\":9314:9323   */\n      dup6\n        /* \"#utility.yul\":9310:9332   */\n      add\n        /* \"#utility.yul\":9268:9342   */\n      tag_80\n      jump\t// in\n    tag_181:\n        /* \"#utility.yul\":9258:9342   */\n      swap2\n      pop\n        /* \"#utility.yul\":9061:9352   */\n      pop\n        /* \"#utility.yul\":8835:9359   */\n      swap3\n      swap2\n      pop\n      pop\n      jump\t// out\n\n    auxdata: 0xa2646970667358221220db327562f371b6d72aab314036068af8d0ac5fe16daba841176f7e804f57d0a864736f6c63430008190033\n}\n",
				"bytecode": {
					"linkReferences": {},
					"object": "6080604052348015600e575f80fd5b506108998061001c5f395ff3fe608060405234801561000f575f80fd5b5060043610610055575f3560e01c8063609a2cd4146100595780637274e31f146100775780639092c439146100955780639ba36ac1146100b3578063bbabcbfa146100cf575b5f80fd5b6100616100eb565b60405161006e9190610459565b60405180910390f35b61007f61010e565b60405161008c91906104e2565b60405180910390f35b61009d61027f565b6040516100aa91906104e2565b60405180910390f35b6100cd60048036038101906100c8919061063f565b610315565b005b6100e960048036038101906100e491906106c1565b61039d565b005b5f8054906101000a900473ffffffffffffffffffffffffffffffffffffffff1681565b60605f6040516024016040516020818303038152906040527f69e038a0000000000000000000000000000000000000000000000000000000007bffffffffffffffffffffffffffffffffffffffffffffffffffffffff19166020820180517bffffffffffffffffffffffffffffffffffffffffffffffffffffffff838183161783525050505090505f805f8054906101000a900473ffffffffffffffffffffffffffffffffffffffff1673ffffffffffffffffffffffffffffffffffffffff16836040516101dc9190610730565b5f60405180830381855afa9150503d805f8114610214576040519150601f19603f3d011682016040523d82523d5f602084013e610219565b606091505b50915091508161025e576040517f08c379a000000000000000000000000000000000000000000000000000000000815260040161025590610790565b60405180910390fd5b5f81806020019051810190610273919061081c565b90508094505050505090565b60605f8054906101000a900473ffffffffffffffffffffffffffffffffffffffff1673ffffffffffffffffffffffffffffffffffffffff166352960cab6040518163ffffffff1660e01b81526004015f60405180830381865afa1580156102e8573d5f803e3d5ffd5b505050506040513d5f823e3d601f19601f82011682018060405250810190610310919061081c565b905090565b5f8054906101000a900473ffffffffffffffffffffffffffffffffffffffff1673ffffffffffffffffffffffffffffffffffffffff16631f429731826040518263ffffffff1660e01b815260040161036d91906104e2565b5f604051808303815f87803b158015610384575f80fd5b505af1158015610396573d5f803e3d5ffd5b5050505050565b805f806101000a81548173ffffffffffffffffffffffffffffffffffffffff021916908373ffffffffffffffffffffffffffffffffffffffff16021790555050565b5f73ffffffffffffffffffffffffffffffffffffffff82169050919050565b5f819050919050565b5f61042161041c610417846103df565b6103fe565b6103df565b9050919050565b5f61043282610407565b9050919050565b5f61044382610428565b9050919050565b61045381610439565b82525050565b5f60208201905061046c5f83018461044a565b92915050565b5f81519050919050565b5f82825260208201905092915050565b8281835e5f83830152505050565b5f601f19601f8301169050919050565b5f6104b482610472565b6104be818561047c565b93506104ce81856020860161048c565b6104d78161049a565b840191505092915050565b5f6020820190508181035f8301526104fa81846104aa565b905092915050565b5f604051905090565b5f80fd5b5f80fd5b5f80fd5b5f80fd5b7f4e487b71000000000000000000000000000000000000000000000000000000005f52604160045260245ffd5b6105518261049a565b810181811067ffffffffffffffff821117156105705761056f61051b565b5b80604052505050565b5f610582610502565b905061058e8282610548565b919050565b5f67ffffffffffffffff8211156105ad576105ac61051b565b5b6105b68261049a565b9050602081019050919050565b828183375f83830152505050565b5f6105e36105de84610593565b610579565b9050828152602081018484840111156105ff576105fe610517565b5b61060a8482856105c3565b509392505050565b5f82601f83011261062657610625610513565b5b81356106368482602086016105d1565b91505092915050565b5f602082840312156106545761065361050b565b5b5f82013567ffffffffffffffff8111156106715761067061050f565b5b61067d84828501610612565b91505092915050565b5f610690826103df565b9050919050565b6106a081610686565b81146106aa575f80fd5b50565b5f813590506106bb81610697565b92915050565b5f602082840312156106d6576106d561050b565b5b5f6106e3848285016106ad565b91505092915050565b5f81519050919050565b5f81905092915050565b5f61070a826106ec565b61071481856106f6565b935061072481856020860161048c565b80840191505092915050565b5f61073b8284610700565b915081905092915050565b7f43616c6c20746f2067657420737472696e674276616c756531206661696c65645f82015250565b5f61077a60208361047c565b915061078582610746565b602082019050919050565b5f6020820190508181035f8301526107a78161076e565b9050919050565b5f6107c06107bb84610593565b610579565b9050828152602081018484840111156107dc576107db610517565b5b6107e784828561048c565b509392505050565b5f82601f83011261080357610802610513565b5b81516108138482602086016107ae565b91505092915050565b5f602082840312156108315761083061050b565b5b5f82015167ffffffffffffffff81111561084e5761084d61050f565b5b61085a848285016107ef565b9150509291505056fea2646970667358221220db327562f371b6d72aab314036068af8d0ac5fe16daba841176f7e804f57d0a864736f6c63430008190033",
					"opcodes": "PUSH1 0x80 PUSH1 0x40 MSTORE CALLVALUE DUP1 ISZERO PUSH1 0xE JUMPI PUSH0 DUP1 REVERT JUMPDEST POP PUSH2 0x899 DUP1 PUSH2 0x1C PUSH0 CODECOPY PUSH0 RETURN INVALID PUSH1 0x80 PUSH1 0x40 MSTORE CALLVALUE DUP1 ISZERO PUSH2 0xF JUMPI PUSH0 DUP1 REVERT JUMPDEST POP PUSH1 0x4 CALLDATASIZE LT PUSH2 0x55 JUMPI PUSH0 CALLDATALOAD PUSH1 0xE0 SHR DUP1 PUSH4 0x609A2CD4 EQ PUSH2 0x59 JUMPI DUP1 PUSH4 0x7274E31F EQ PUSH2 0x77 JUMPI DUP1 PUSH4 0x9092C439 EQ PUSH2 0x95 JUMPI DUP1 PUSH4 0x9BA36AC1 EQ PUSH2 0xB3 JUMPI DUP1 PUSH4 0xBBABCBFA EQ PUSH2 0xCF JUMPI JUMPDEST PUSH0 DUP1 REVERT JUMPDEST PUSH2 0x61 PUSH2 0xEB JUMP JUMPDEST PUSH1 0x40 MLOAD PUSH2 0x6E SWAP2 SWAP1 PUSH2 0x459 JUMP JUMPDEST PUSH1 0x40 MLOAD DUP1 SWAP2 SUB SWAP1 RETURN JUMPDEST PUSH2 0x7F PUSH2 0x10E JUMP JUMPDEST PUSH1 0x40 MLOAD PUSH2 0x8C SWAP2 SWAP1 PUSH2 0x4E2 JUMP JUMPDEST PUSH1 0x40 MLOAD DUP1 SWAP2 SUB SWAP1 RETURN JUMPDEST PUSH2 0x9D PUSH2 0x27F JUMP JUMPDEST PUSH1 0x40 MLOAD PUSH2 0xAA SWAP2 SWAP1 PUSH2 0x4E2 JUMP JUMPDEST PUSH1 0x40 MLOAD DUP1 SWAP2 SUB SWAP1 RETURN JUMPDEST PUSH2 0xCD PUSH1 0x4 DUP1 CALLDATASIZE SUB DUP2 ADD SWAP1 PUSH2 0xC8 SWAP2 SWAP1 PUSH2 0x63F JUMP JUMPDEST PUSH2 0x315 JUMP JUMPDEST STOP JUMPDEST PUSH2 0xE9 PUSH1 0x4 DUP1 CALLDATASIZE SUB DUP2 ADD SWAP1 PUSH2 0xE4 SWAP2 SWAP1 PUSH2 0x6C1 JUMP JUMPDEST PUSH2 0x39D JUMP JUMPDEST STOP JUMPDEST PUSH0 DUP1 SLOAD SWAP1 PUSH2 0x100 EXP SWAP1 DIV PUSH20 0xFFFFFFFFFFFFFFFFFFFFFFFFFFFFFFFFFFFFFFFF AND DUP2 JUMP JUMPDEST PUSH1 0x60 PUSH0 PUSH1 0x40 MLOAD PUSH1 0x24 ADD PUSH1 0x40 MLOAD PUSH1 0x20 DUP2 DUP4 SUB SUB DUP2 MSTORE SWAP1 PUSH1 0x40 MSTORE PUSH32 0x69E038A000000000000000000000000000000000000000000000000000000000 PUSH28 0xFFFFFFFFFFFFFFFFFFFFFFFFFFFFFFFFFFFFFFFFFFFFFFFFFFFFFFFF NOT AND PUSH1 0x20 DUP3 ADD DUP1 MLOAD PUSH28 0xFFFFFFFFFFFFFFFFFFFFFFFFFFFFFFFFFFFFFFFFFFFFFFFFFFFFFFFF DUP4 DUP2 DUP4 AND OR DUP4 MSTORE POP POP POP POP SWAP1 POP PUSH0 DUP1 PUSH0 DUP1 SLOAD SWAP1 PUSH2 0x100 EXP SWAP1 DIV PUSH20 0xFFFFFFFFFFFFFFFFFFFFFFFFFFFFFFFFFFFFFFFF AND PUSH20 0xFFFFFFFFFFFFFFFFFFFFFFFFFFFFFFFFFFFFFFFF AND DUP4 PUSH1 0x40 MLOAD PUSH2 0x1DC SWAP2 SWAP1 PUSH2 0x730 JUMP JUMPDEST PUSH0 PUSH1 0x40 MLOAD DUP1 DUP4 SUB DUP2 DUP6 GAS STATICCALL SWAP2 POP POP RETURNDATASIZE DUP1 PUSH0 DUP2 EQ PUSH2 0x214 JUMPI PUSH1 0x40 MLOAD SWAP2 POP PUSH1 0x1F NOT PUSH1 0x3F RETURNDATASIZE ADD AND DUP3 ADD PUSH1 0x40 MSTORE RETURNDATASIZE DUP3 MSTORE RETURNDATASIZE PUSH0 PUSH1 0x20 DUP5 ADD RETURNDATACOPY PUSH2 0x219 JUMP JUMPDEST PUSH1 0x60 SWAP2 POP JUMPDEST POP SWAP2 POP SWAP2 POP DUP2 PUSH2 0x25E JUMPI PUSH1 0x40 MLOAD PUSH32 0x8C379A000000000000000000000000000000000000000000000000000000000 DUP2 MSTORE PUSH1 0x4 ADD PUSH2 0x255 SWAP1 PUSH2 0x790 JUMP JUMPDEST PUSH1 0x40 MLOAD DUP1 SWAP2 SUB SWAP1 REVERT JUMPDEST PUSH0 DUP2 DUP1 PUSH1 0x20 ADD SWAP1 MLOAD DUP2 ADD SWAP1 PUSH2 0x273 SWAP2 SWAP1 PUSH2 0x81C JUMP JUMPDEST SWAP1 POP DUP1 SWAP5 POP POP POP POP POP SWAP1 JUMP JUMPDEST PUSH1 0x60 PUSH0 DUP1 SLOAD SWAP1 PUSH2 0x100 EXP SWAP1 DIV PUSH20 0xFFFFFFFFFFFFFFFFFFFFFFFFFFFFFFFFFFFFFFFF AND PUSH20 0xFFFFFFFFFFFFFFFFFFFFFFFFFFFFFFFFFFFFFFFF AND PUSH4 0x52960CAB PUSH1 0x40 MLOAD DUP2 PUSH4 0xFFFFFFFF AND PUSH1 0xE0 SHL DUP2 MSTORE PUSH1 0x4 ADD PUSH0 PUSH1 0x40 MLOAD DUP1 DUP4 SUB DUP2 DUP7 GAS STATICCALL ISZERO DUP1 ISZERO PUSH2 0x2E8 JUMPI RETURNDATASIZE PUSH0 DUP1 RETURNDATACOPY RETURNDATASIZE PUSH0 REVERT JUMPDEST POP POP POP POP PUSH1 0x40 MLOAD RETURNDATASIZE PUSH0 DUP3 RETURNDATACOPY RETURNDATASIZE PUSH1 0x1F NOT PUSH1 0x1F DUP3 ADD AND DUP3 ADD DUP1 PUSH1 0x40 MSTORE POP DUP2 ADD SWAP1 PUSH2 0x310 SWAP2 SWAP1 PUSH2 0x81C JUMP JUMPDEST SWAP1 POP SWAP1 JUMP JUMPDEST PUSH0 DUP1 SLOAD SWAP1 PUSH2 0x100 EXP SWAP1 DIV PUSH20 0xFFFFFFFFFFFFFFFFFFFFFFFFFFFFFFFFFFFFFFFF AND PUSH20 0xFFFFFFFFFFFFFFFFFFFFFFFFFFFFFFFFFFFFFFFF AND PUSH4 0x1F429731 DUP3 PUSH1 0x40 MLOAD DUP3 PUSH4 0xFFFFFFFF AND PUSH1 0xE0 SHL DUP2 MSTORE PUSH1 0x4 ADD PUSH2 0x36D SWAP2 SWAP1 PUSH2 0x4E2 JUMP JUMPDEST PUSH0 PUSH1 0x40 MLOAD DUP1 DUP4 SUB DUP2 PUSH0 DUP8 DUP1 EXTCODESIZE ISZERO DUP1 ISZERO PUSH2 0x384 JUMPI PUSH0 DUP1 REVERT JUMPDEST POP GAS CALL ISZERO DUP1 ISZERO PUSH2 0x396 JUMPI RETURNDATASIZE PUSH0 DUP1 RETURNDATACOPY RETURNDATASIZE PUSH0 REVERT JUMPDEST POP POP POP POP POP JUMP JUMPDEST DUP1 PUSH0 DUP1 PUSH2 0x100 EXP DUP2 SLOAD DUP2 PUSH20 0xFFFFFFFFFFFFFFFFFFFFFFFFFFFFFFFFFFFFFFFF MUL NOT AND SWAP1 DUP4 PUSH20 0xFFFFFFFFFFFFFFFFFFFFFFFFFFFFFFFFFFFFFFFF AND MUL OR SWAP1 SSTORE POP POP JUMP JUMPDEST PUSH0 PUSH20 0xFFFFFFFFFFFFFFFFFFFFFFFFFFFFFFFFFFFFFFFF DUP3 AND SWAP1 POP SWAP2 SWAP1 POP JUMP JUMPDEST PUSH0 DUP2 SWAP1 POP SWAP2 SWAP1 POP JUMP JUMPDEST PUSH0 PUSH2 0x421 PUSH2 0x41C PUSH2 0x417 DUP5 PUSH2 0x3DF JUMP JUMPDEST PUSH2 0x3FE JUMP JUMPDEST PUSH2 0x3DF JUMP JUMPDEST SWAP1 POP SWAP2 SWAP1 POP JUMP JUMPDEST PUSH0 PUSH2 0x432 DUP3 PUSH2 0x407 JUMP JUMPDEST SWAP1 POP SWAP2 SWAP1 POP JUMP JUMPDEST PUSH0 PUSH2 0x443 DUP3 PUSH2 0x428 JUMP JUMPDEST SWAP1 POP SWAP2 SWAP1 POP JUMP JUMPDEST PUSH2 0x453 DUP2 PUSH2 0x439 JUMP JUMPDEST DUP3 MSTORE POP POP JUMP JUMPDEST PUSH0 PUSH1 0x20 DUP3 ADD SWAP1 POP PUSH2 0x46C PUSH0 DUP4 ADD DUP5 PUSH2 0x44A JUMP JUMPDEST SWAP3 SWAP2 POP POP JUMP JUMPDEST PUSH0 DUP2 MLOAD SWAP1 POP SWAP2 SWAP1 POP JUMP JUMPDEST PUSH0 DUP3 DUP3 MSTORE PUSH1 0x20 DUP3 ADD SWAP1 POP SWAP3 SWAP2 POP POP JUMP JUMPDEST DUP3 DUP2 DUP4 MCOPY PUSH0 DUP4 DUP4 ADD MSTORE POP POP POP JUMP JUMPDEST PUSH0 PUSH1 0x1F NOT PUSH1 0x1F DUP4 ADD AND SWAP1 POP SWAP2 SWAP1 POP JUMP JUMPDEST PUSH0 PUSH2 0x4B4 DUP3 PUSH2 0x472 JUMP JUMPDEST PUSH2 0x4BE DUP2 DUP6 PUSH2 0x47C JUMP JUMPDEST SWAP4 POP PUSH2 0x4CE DUP2 DUP6 PUSH1 0x20 DUP7 ADD PUSH2 0x48C JUMP JUMPDEST PUSH2 0x4D7 DUP2 PUSH2 0x49A JUMP JUMPDEST DUP5 ADD SWAP2 POP POP SWAP3 SWAP2 POP POP JUMP JUMPDEST PUSH0 PUSH1 0x20 DUP3 ADD SWAP1 POP DUP2 DUP2 SUB PUSH0 DUP4 ADD MSTORE PUSH2 0x4FA DUP2 DUP5 PUSH2 0x4AA JUMP JUMPDEST SWAP1 POP SWAP3 SWAP2 POP POP JUMP JUMPDEST PUSH0 PUSH1 0x40 MLOAD SWAP1 POP SWAP1 JUMP JUMPDEST PUSH0 DUP1 REVERT JUMPDEST PUSH0 DUP1 REVERT JUMPDEST PUSH0 DUP1 REVERT JUMPDEST PUSH0 DUP1 REVERT JUMPDEST PUSH32 0x4E487B7100000000000000000000000000000000000000000000000000000000 PUSH0 MSTORE PUSH1 0x41 PUSH1 0x4 MSTORE PUSH1 0x24 PUSH0 REVERT JUMPDEST PUSH2 0x551 DUP3 PUSH2 0x49A JUMP JUMPDEST DUP2 ADD DUP2 DUP2 LT PUSH8 0xFFFFFFFFFFFFFFFF DUP3 GT OR ISZERO PUSH2 0x570 JUMPI PUSH2 0x56F PUSH2 0x51B JUMP JUMPDEST JUMPDEST DUP1 PUSH1 0x40 MSTORE POP POP POP JUMP JUMPDEST PUSH0 PUSH2 0x582 PUSH2 0x502 JUMP JUMPDEST SWAP1 POP PUSH2 0x58E DUP3 DUP3 PUSH2 0x548 JUMP JUMPDEST SWAP2 SWAP1 POP JUMP JUMPDEST PUSH0 PUSH8 0xFFFFFFFFFFFFFFFF DUP3 GT ISZERO PUSH2 0x5AD JUMPI PUSH2 0x5AC PUSH2 0x51B JUMP JUMPDEST JUMPDEST PUSH2 0x5B6 DUP3 PUSH2 0x49A JUMP JUMPDEST SWAP1 POP PUSH1 0x20 DUP2 ADD SWAP1 POP SWAP2 SWAP1 POP JUMP JUMPDEST DUP3 DUP2 DUP4 CALLDATACOPY PUSH0 DUP4 DUP4 ADD MSTORE POP POP POP JUMP JUMPDEST PUSH0 PUSH2 0x5E3 PUSH2 0x5DE DUP5 PUSH2 0x593 JUMP JUMPDEST PUSH2 0x579 JUMP JUMPDEST SWAP1 POP DUP3 DUP2 MSTORE PUSH1 0x20 DUP2 ADD DUP5 DUP5 DUP5 ADD GT ISZERO PUSH2 0x5FF JUMPI PUSH2 0x5FE PUSH2 0x517 JUMP JUMPDEST JUMPDEST PUSH2 0x60A DUP5 DUP3 DUP6 PUSH2 0x5C3 JUMP JUMPDEST POP SWAP4 SWAP3 POP POP POP JUMP JUMPDEST PUSH0 DUP3 PUSH1 0x1F DUP4 ADD SLT PUSH2 0x626 JUMPI PUSH2 0x625 PUSH2 0x513 JUMP JUMPDEST JUMPDEST DUP2 CALLDATALOAD PUSH2 0x636 DUP5 DUP3 PUSH1 0x20 DUP7 ADD PUSH2 0x5D1 JUMP JUMPDEST SWAP2 POP POP SWAP3 SWAP2 POP POP JUMP JUMPDEST PUSH0 PUSH1 0x20 DUP3 DUP5 SUB SLT ISZERO PUSH2 0x654 JUMPI PUSH2 0x653 PUSH2 0x50B JUMP JUMPDEST JUMPDEST PUSH0 DUP3 ADD CALLDATALOAD PUSH8 0xFFFFFFFFFFFFFFFF DUP2 GT ISZERO PUSH2 0x671 JUMPI PUSH2 0x670 PUSH2 0x50F JUMP JUMPDEST JUMPDEST PUSH2 0x67D DUP5 DUP3 DUP6 ADD PUSH2 0x612 JUMP JUMPDEST SWAP2 POP POP SWAP3 SWAP2 POP POP JUMP JUMPDEST PUSH0 PUSH2 0x690 DUP3 PUSH2 0x3DF JUMP JUMPDEST SWAP1 POP SWAP2 SWAP1 POP JUMP JUMPDEST PUSH2 0x6A0 DUP2 PUSH2 0x686 JUMP JUMPDEST DUP2 EQ PUSH2 0x6AA JUMPI PUSH0 DUP1 REVERT JUMPDEST POP JUMP JUMPDEST PUSH0 DUP2 CALLDATALOAD SWAP1 POP PUSH2 0x6BB DUP2 PUSH2 0x697 JUMP JUMPDEST SWAP3 SWAP2 POP POP JUMP JUMPDEST PUSH0 PUSH1 0x20 DUP3 DUP5 SUB SLT ISZERO PUSH2 0x6D6 JUMPI PUSH2 0x6D5 PUSH2 0x50B JUMP JUMPDEST JUMPDEST PUSH0 PUSH2 0x6E3 DUP5 DUP3 DUP6 ADD PUSH2 0x6AD JUMP JUMPDEST SWAP2 POP POP SWAP3 SWAP2 POP POP JUMP JUMPDEST PUSH0 DUP2 MLOAD SWAP1 POP SWAP2 SWAP1 POP JUMP JUMPDEST PUSH0 DUP2 SWAP1 POP SWAP3 SWAP2 POP POP JUMP JUMPDEST PUSH0 PUSH2 0x70A DUP3 PUSH2 0x6EC JUMP JUMPDEST PUSH2 0x714 DUP2 DUP6 PUSH2 0x6F6 JUMP JUMPDEST SWAP4 POP PUSH2 0x724 DUP2 DUP6 PUSH1 0x20 DUP7 ADD PUSH2 0x48C JUMP JUMPDEST DUP1 DUP5 ADD SWAP2 POP POP SWAP3 SWAP2 POP POP JUMP JUMPDEST PUSH0 PUSH2 0x73B DUP3 DUP5 PUSH2 0x700 JUMP JUMPDEST SWAP2 POP DUP2 SWAP1 POP SWAP3 SWAP2 POP POP JUMP JUMPDEST PUSH32 0x43616C6C20746F2067657420737472696E674276616C756531206661696C6564 PUSH0 DUP3 ADD MSTORE POP JUMP JUMPDEST PUSH0 PUSH2 0x77A PUSH1 0x20 DUP4 PUSH2 0x47C JUMP JUMPDEST SWAP2 POP PUSH2 0x785 DUP3 PUSH2 0x746 JUMP JUMPDEST PUSH1 0x20 DUP3 ADD SWAP1 POP SWAP2 SWAP1 POP JUMP JUMPDEST PUSH0 PUSH1 0x20 DUP3 ADD SWAP1 POP DUP2 DUP2 SUB PUSH0 DUP4 ADD MSTORE PUSH2 0x7A7 DUP2 PUSH2 0x76E JUMP JUMPDEST SWAP1 POP SWAP2 SWAP1 POP JUMP JUMPDEST PUSH0 PUSH2 0x7C0 PUSH2 0x7BB DUP5 PUSH2 0x593 JUMP JUMPDEST PUSH2 0x579 JUMP JUMPDEST SWAP1 POP DUP3 DUP2 MSTORE PUSH1 0x20 DUP2 ADD DUP5 DUP5 DUP5 ADD GT ISZERO PUSH2 0x7DC JUMPI PUSH2 0x7DB PUSH2 0x517 JUMP JUMPDEST JUMPDEST PUSH2 0x7E7 DUP5 DUP3 DUP6 PUSH2 0x48C JUMP JUMPDEST POP SWAP4 SWAP3 POP POP POP JUMP JUMPDEST PUSH0 DUP3 PUSH1 0x1F DUP4 ADD SLT PUSH2 0x803 JUMPI PUSH2 0x802 PUSH2 0x513 JUMP JUMPDEST JUMPDEST DUP2 MLOAD PUSH2 0x813 DUP5 DUP3 PUSH1 0x20 DUP7 ADD PUSH2 0x7AE JUMP JUMPDEST SWAP2 POP POP SWAP3 SWAP2 POP POP JUMP JUMPDEST PUSH0 PUSH1 0x20 DUP3 DUP5 SUB SLT ISZERO PUSH2 0x831 JUMPI PUSH2 0x830 PUSH2 0x50B JUMP JUMPDEST JUMPDEST PUSH0 DUP3 ADD MLOAD PUSH8 0xFFFFFFFFFFFFFFFF DUP2 GT ISZERO PUSH2 0x84E JUMPI PUSH2 0x84D PUSH2 0x50F JUMP JUMPDEST JUMPDEST PUSH2 0x85A DUP5 DUP3 DUP6 ADD PUSH2 0x7EF JUMP JUMPDEST SWAP2 POP POP SWAP3 SWAP2 POP POP JUMP INVALID LOG2 PUSH5 0x6970667358 0x22 SLT KECCAK256 0xDB ORIGIN PUSH22 0x62F371B6D72AAB314036068AF8D0AC5FE16DABA84117 PUSH16 0x7E804F57D0A864736F6C634300081900 CALLER "
				},
				"gasEstimates": {
					"creation": {
						"codeDepositCost": "440200",
						"executionCost": "472",
						"totalCost": "440672"
					},
					"external": {
						"getStorageContractA()": "infinite",
						"getStorageContractB()": "infinite",
						"setStorageContractA(string)": "infinite",
						"setStorageContractAInstance(address)": "24781",
						"storageContractAInstance()": "infinite"
					}
				},
				"methodIdentifiers": {
					"getStorageContractA()": "9092c439",
					"getStorageContractB()": "7274e31f",
					"setStorageContractA(string)": "9ba36ac1",
					"setStorageContractAInstance(address)": "bbabcbfa",
					"storageContractAInstance()": "609a2cd4"
				}
			},
			"storageLayout": {
				"storage": [
					{
						"astId": 74,
						"contract": "contracts/StorageContractMethods.sol:StorageContractMethod",
						"label": "storageContractAInstance",
						"offset": 0,
						"slot": "0",
						"type": "t_contract(StorageContractA)68"
					}
				],
				"types": {
					"t_contract(StorageContractA)68": {
						"encoding": "inplace",
						"label": "contract StorageContractA",
						"numberOfBytes": "20"
					}
				}
			},
			"userdoc": {
				"kind": "user",
				"methods": {},
				"version": 1
			}
		}
	}
}