{
	"data": {
		"bytecode": {
			"linkReferences": {},
			"object": "6080604052348015600e575f80fd5b506106b98061001c5f395ff3fe608060405234801561000f575f80fd5b5060043610610034575f3560e01c80635b56a38614610038578063c9d78b8314610068575b5f80fd5b610052600480360381019061004d91906103a1565b610098565b60405161005f919061043c565b60405180910390f35b610082600480360381019061007d91906103a1565b6101e7565b60405161008f919061043c565b60405180910390f35b60605f6040516024016040516020818303038152906040527f52960cab000000000000000000000000000000000000000000000000000000007bffffffffffffffffffffffffffffffffffffffffffffffffffffffff19166020820180517bffffffffffffffffffffffffffffffffffffffffffffffffffffffff838183161783525050505090505f808473ffffffffffffffffffffffffffffffffffffffff168360405161014791906104a0565b5f60405180830381855afa9150503d805f811461017f576040519150601f19603f3d011682016040523d82523d5f602084013e610184565b606091505b5091509150816101c9576040517f08c379a00000000000000000000000000000000000000000000000000000000081526004016101c090610500565b60405180910390fd5b808060200190518101906101dd919061063c565b9350505050919050565b60605f6040516024016040516020818303038152906040527f5cc392b8000000000000000000000000000000000000000000000000000000007bffffffffffffffffffffffffffffffffffffffffffffffffffffffff19166020820180517bffffffffffffffffffffffffffffffffffffffffffffffffffffffff838183161783525050505090505f808473ffffffffffffffffffffffffffffffffffffffff168360405161029691906104a0565b5f60405180830381855afa9150503d805f81146102ce576040519150601f19603f3d011682016040523d82523d5f602084013e6102d3565b606091505b509150915081610318576040517f08c379a000000000000000000000000000000000000000000000000000000000815260040161030f90610500565b60405180910390fd5b8080602001905181019061032c919061063c565b9350505050919050565b5f604051905090565b5f80fd5b5f80fd5b5f73ffffffffffffffffffffffffffffffffffffffff82169050919050565b5f61037082610347565b9050919050565b61038081610366565b811461038a575f80fd5b50565b5f8135905061039b81610377565b92915050565b5f602082840312156103b6576103b561033f565b5b5f6103c38482850161038d565b91505092915050565b5f81519050919050565b5f82825260208201905092915050565b8281835e5f83830152505050565b5f601f19601f8301169050919050565b5f61040e826103cc565b61041881856103d6565b93506104288185602086016103e6565b610431816103f4565b840191505092915050565b5f6020820190508181035f8301526104548184610404565b905092915050565b5f81519050919050565b5f81905092915050565b5f61047a8261045c565b6104848185610466565b93506104948185602086016103e6565b80840191505092915050565b5f6104ab8284610470565b915081905092915050565b7f43616c6c206661696c65640000000000000000000000000000000000000000005f82015250565b5f6104ea600b836103d6565b91506104f5826104b6565b602082019050919050565b5f6020820190508181035f830152610517816104de565b9050919050565b5f80fd5b5f80fd5b7f4e487b71000000000000000000000000000000000000000000000000000000005f52604160045260245ffd5b61055c826103f4565b810181811067ffffffffffffffff8211171561057b5761057a610526565b5b80604052505050565b5f61058d610336565b90506105998282610553565b919050565b5f67ffffffffffffffff8211156105b8576105b7610526565b5b6105c1826103f4565b9050602081019050919050565b5f6105e06105db8461059e565b610584565b9050828152602081018484840111156105fc576105fb610522565b5b6106078482856103e6565b509392505050565b5f82601f8301126106235761062261051e565b5b81516106338482602086016105ce565b91505092915050565b5f602082840312156106515761065061033f565b5b5f82015167ffffffffffffffff81111561066e5761066d610343565b5b61067a8482850161060f565b9150509291505056fea26469706673582212200252d93ed3c7e76a9bfe48d20a3ec265357dd0e9854bab6004cc73bb6e3d545364736f6c63430008190033",
			"opcodes": "PUSH1 0x80 PUSH1 0x40 MSTORE CALLVALUE DUP1 ISZERO PUSH1 0xE JUMPI PUSH0 DUP1 REVERT JUMPDEST POP PUSH2 0x6B9 DUP1 PUSH2 0x1C PUSH0 CODECOPY PUSH0 RETURN INVALID PUSH1 0x80 PUSH1 0x40 MSTORE CALLVALUE DUP1 ISZERO PUSH2 0xF JUMPI PUSH0 DUP1 REVERT JUMPDEST POP PUSH1 0x4 CALLDATASIZE LT PUSH2 0x34 JUMPI PUSH0 CALLDATALOAD PUSH1 0xE0 SHR DUP1 PUSH4 0x5B56A386 EQ PUSH2 0x38 JUMPI DUP1 PUSH4 0xC9D78B83 EQ PUSH2 0x68 JUMPI JUMPDEST PUSH0 DUP1 REVERT JUMPDEST PUSH2 0x52 PUSH1 0x4 DUP1 CALLDATASIZE SUB DUP2 ADD SWAP1 PUSH2 0x4D SWAP2 SWAP1 PUSH2 0x3A1 JUMP JUMPDEST PUSH2 0x98 JUMP JUMPDEST PUSH1 0x40 MLOAD PUSH2 0x5F SWAP2 SWAP1 PUSH2 0x43C JUMP JUMPDEST PUSH1 0x40 MLOAD DUP1 SWAP2 SUB SWAP1 RETURN JUMPDEST PUSH2 0x82 PUSH1 0x4 DUP1 CALLDATASIZE SUB DUP2 ADD SWAP1 PUSH2 0x7D SWAP2 SWAP1 PUSH2 0x3A1 JUMP JUMPDEST PUSH2 0x1E7 JUMP JUMPDEST PUSH1 0x40 MLOAD PUSH2 0x8F SWAP2 SWAP1 PUSH2 0x43C JUMP JUMPDEST PUSH1 0x40 MLOAD DUP1 SWAP2 SUB SWAP1 RETURN JUMPDEST PUSH1 0x60 PUSH0 PUSH1 0x40 MLOAD PUSH1 0x24 ADD PUSH1 0x40 MLOAD PUSH1 0x20 DUP2 DUP4 SUB SUB DUP2 MSTORE SWAP1 PUSH1 0x40 MSTORE PUSH32 0x52960CAB00000000000000000000000000000000000000000000000000000000 PUSH28 0xFFFFFFFFFFFFFFFFFFFFFFFFFFFFFFFFFFFFFFFFFFFFFFFFFFFFFFFF NOT AND PUSH1 0x20 DUP3 ADD DUP1 MLOAD PUSH28 0xFFFFFFFFFFFFFFFFFFFFFFFFFFFFFFFFFFFFFFFFFFFFFFFFFFFFFFFF DUP4 DUP2 DUP4 AND OR DUP4 MSTORE POP POP POP POP SWAP1 POP PUSH0 DUP1 DUP5 PUSH20 0xFFFFFFFFFFFFFFFFFFFFFFFFFFFFFFFFFFFFFFFF AND DUP4 PUSH1 0x40 MLOAD PUSH2 0x147 SWAP2 SWAP1 PUSH2 0x4A0 JUMP JUMPDEST PUSH0 PUSH1 0x40 MLOAD DUP1 DUP4 SUB DUP2 DUP6 GAS STATICCALL SWAP2 POP POP RETURNDATASIZE DUP1 PUSH0 DUP2 EQ PUSH2 0x17F JUMPI PUSH1 0x40 MLOAD SWAP2 POP PUSH1 0x1F NOT PUSH1 0x3F RETURNDATASIZE ADD AND DUP3 ADD PUSH1 0x40 MSTORE RETURNDATASIZE DUP3 MSTORE RETURNDATASIZE PUSH0 PUSH1 0x20 DUP5 ADD RETURNDATACOPY PUSH2 0x184 JUMP JUMPDEST PUSH1 0x60 SWAP2 POP JUMPDEST POP SWAP2 POP SWAP2 POP DUP2 PUSH2 0x1C9 JUMPI PUSH1 0x40 MLOAD PUSH32 0x8C379A000000000000000000000000000000000000000000000000000000000 DUP2 MSTORE PUSH1 0x4 ADD PUSH2 0x1C0 SWAP1 PUSH2 0x500 JUMP JUMPDEST PUSH1 0x40 MLOAD DUP1 SWAP2 SUB SWAP1 REVERT JUMPDEST DUP1 DUP1 PUSH1 0x20 ADD SWAP1 MLOAD DUP2 ADD SWAP1 PUSH2 0x1DD SWAP2 SWAP1 PUSH2 0x63C JUMP JUMPDEST SWAP4 POP POP POP POP SWAP2 SWAP1 POP JUMP JUMPDEST PUSH1 0x60 PUSH0 PUSH1 0x40 MLOAD PUSH1 0x24 ADD PUSH1 0x40 MLOAD PUSH1 0x20 DUP2 DUP4 SUB SUB DUP2 MSTORE SWAP1 PUSH1 0x40 MSTORE PUSH32 0x5CC392B800000000000000000000000000000000000000000000000000000000 PUSH28 0xFFFFFFFFFFFFFFFFFFFFFFFFFFFFFFFFFFFFFFFFFFFFFFFFFFFFFFFF NOT AND PUSH1 0x20 DUP3 ADD DUP1 MLOAD PUSH28 0xFFFFFFFFFFFFFFFFFFFFFFFFFFFFFFFFFFFFFFFFFFFFFFFFFFFFFFFF DUP4 DUP2 DUP4 AND OR DUP4 MSTORE POP POP POP POP SWAP1 POP PUSH0 DUP1 DUP5 PUSH20 0xFFFFFFFFFFFFFFFFFFFFFFFFFFFFFFFFFFFFFFFF AND DUP4 PUSH1 0x40 MLOAD PUSH2 0x296 SWAP2 SWAP1 PUSH2 0x4A0 JUMP JUMPDEST PUSH0 PUSH1 0x40 MLOAD DUP1 DUP4 SUB DUP2 DUP6 GAS STATICCALL SWAP2 POP POP RETURNDATASIZE DUP1 PUSH0 DUP2 EQ PUSH2 0x2CE JUMPI PUSH1 0x40 MLOAD SWAP2 POP PUSH1 0x1F NOT PUSH1 0x3F RETURNDATASIZE ADD AND DUP3 ADD PUSH1 0x40 MSTORE RETURNDATASIZE DUP3 MSTORE RETURNDATASIZE PUSH0 PUSH1 0x20 DUP5 ADD RETURNDATACOPY PUSH2 0x2D3 JUMP JUMPDEST PUSH1 0x60 SWAP2 POP JUMPDEST POP SWAP2 POP SWAP2 POP DUP2 PUSH2 0x318 JUMPI PUSH1 0x40 MLOAD PUSH32 0x8C379A000000000000000000000000000000000000000000000000000000000 DUP2 MSTORE PUSH1 0x4 ADD PUSH2 0x30F SWAP1 PUSH2 0x500 JUMP JUMPDEST PUSH1 0x40 MLOAD DUP1 SWAP2 SUB SWAP1 REVERT JUMPDEST DUP1 DUP1 PUSH1 0x20 ADD SWAP1 MLOAD DUP2 ADD SWAP1 PUSH2 0x32C SWAP2 SWAP1 PUSH2 0x63C JUMP JUMPDEST SWAP4 POP POP POP POP SWAP2 SWAP1 POP JUMP JUMPDEST PUSH0 PUSH1 0x40 MLOAD SWAP1 POP SWAP1 JUMP JUMPDEST PUSH0 DUP1 REVERT JUMPDEST PUSH0 DUP1 REVERT JUMPDEST PUSH0 PUSH20 0xFFFFFFFFFFFFFFFFFFFFFFFFFFFFFFFFFFFFFFFF DUP3 AND SWAP1 POP SWAP2 SWAP1 POP JUMP JUMPDEST PUSH0 PUSH2 0x370 DUP3 PUSH2 0x347 JUMP JUMPDEST SWAP1 POP SWAP2 SWAP1 POP JUMP JUMPDEST PUSH2 0x380 DUP2 PUSH2 0x366 JUMP JUMPDEST DUP2 EQ PUSH2 0x38A JUMPI PUSH0 DUP1 REVERT JUMPDEST POP JUMP JUMPDEST PUSH0 DUP2 CALLDATALOAD SWAP1 POP PUSH2 0x39B DUP2 PUSH2 0x377 JUMP JUMPDEST SWAP3 SWAP2 POP POP JUMP JUMPDEST PUSH0 PUSH1 0x20 DUP3 DUP5 SUB SLT ISZERO PUSH2 0x3B6 JUMPI PUSH2 0x3B5 PUSH2 0x33F JUMP JUMPDEST JUMPDEST PUSH0 PUSH2 0x3C3 DUP5 DUP3 DUP6 ADD PUSH2 0x38D JUMP JUMPDEST SWAP2 POP POP SWAP3 SWAP2 POP POP JUMP JUMPDEST PUSH0 DUP2 MLOAD SWAP1 POP SWAP2 SWAP1 POP JUMP JUMPDEST PUSH0 DUP3 DUP3 MSTORE PUSH1 0x20 DUP3 ADD SWAP1 POP SWAP3 SWAP2 POP POP JUMP JUMPDEST DUP3 DUP2 DUP4 MCOPY PUSH0 DUP4 DUP4 ADD MSTORE POP POP POP JUMP JUMPDEST PUSH0 PUSH1 0x1F NOT PUSH1 0x1F DUP4 ADD AND SWAP1 POP SWAP2 SWAP1 POP JUMP JUMPDEST PUSH0 PUSH2 0x40E DUP3 PUSH2 0x3CC JUMP JUMPDEST PUSH2 0x418 DUP2 DUP6 PUSH2 0x3D6 JUMP JUMPDEST SWAP4 POP PUSH2 0x428 DUP2 DUP6 PUSH1 0x20 DUP7 ADD PUSH2 0x3E6 JUMP JUMPDEST PUSH2 0x431 DUP2 PUSH2 0x3F4 JUMP JUMPDEST DUP5 ADD SWAP2 POP POP SWAP3 SWAP2 POP POP JUMP JUMPDEST PUSH0 PUSH1 0x20 DUP3 ADD SWAP1 POP DUP2 DUP2 SUB PUSH0 DUP4 ADD MSTORE PUSH2 0x454 DUP2 DUP5 PUSH2 0x404 JUMP JUMPDEST SWAP1 POP SWAP3 SWAP2 POP POP JUMP JUMPDEST PUSH0 DUP2 MLOAD SWAP1 POP SWAP2 SWAP1 POP JUMP JUMPDEST PUSH0 DUP2 SWAP1 POP SWAP3 SWAP2 POP POP JUMP JUMPDEST PUSH0 PUSH2 0x47A DUP3 PUSH2 0x45C JUMP JUMPDEST PUSH2 0x484 DUP2 DUP6 PUSH2 0x466 JUMP JUMPDEST SWAP4 POP PUSH2 0x494 DUP2 DUP6 PUSH1 0x20 DUP7 ADD PUSH2 0x3E6 JUMP JUMPDEST DUP1 DUP5 ADD SWAP2 POP POP SWAP3 SWAP2 POP POP JUMP JUMPDEST PUSH0 PUSH2 0x4AB DUP3 DUP5 PUSH2 0x470 JUMP JUMPDEST SWAP2 POP DUP2 SWAP1 POP SWAP3 SWAP2 POP POP JUMP JUMPDEST PUSH32 0x43616C6C206661696C6564000000000000000000000000000000000000000000 PUSH0 DUP3 ADD MSTORE POP JUMP JUMPDEST PUSH0 PUSH2 0x4EA PUSH1 0xB DUP4 PUSH2 0x3D6 JUMP JUMPDEST SWAP2 POP PUSH2 0x4F5 DUP3 PUSH2 0x4B6 JUMP JUMPDEST PUSH1 0x20 DUP3 ADD SWAP1 POP SWAP2 SWAP1 POP JUMP JUMPDEST PUSH0 PUSH1 0x20 DUP3 ADD SWAP1 POP DUP2 DUP2 SUB PUSH0 DUP4 ADD MSTORE PUSH2 0x517 DUP2 PUSH2 0x4DE JUMP JUMPDEST SWAP1 POP SWAP2 SWAP1 POP JUMP JUMPDEST PUSH0 DUP1 REVERT JUMPDEST PUSH0 DUP1 REVERT JUMPDEST PUSH32 0x4E487B7100000000000000000000000000000000000000000000000000000000 PUSH0 MSTORE PUSH1 0x41 PUSH1 0x4 MSTORE PUSH1 0x24 PUSH0 REVERT JUMPDEST PUSH2 0x55C DUP3 PUSH2 0x3F4 JUMP JUMPDEST DUP2 ADD DUP2 DUP2 LT PUSH8 0xFFFFFFFFFFFFFFFF DUP3 GT OR ISZERO PUSH2 0x57B JUMPI PUSH2 0x57A PUSH2 0x526 JUMP JUMPDEST JUMPDEST DUP1 PUSH1 0x40 MSTORE POP POP POP JUMP JUMPDEST PUSH0 PUSH2 0x58D PUSH2 0x336 JUMP JUMPDEST SWAP1 POP PUSH2 0x599 DUP3 DUP3 PUSH2 0x553 JUMP JUMPDEST SWAP2 SWAP1 POP JUMP JUMPDEST PUSH0 PUSH8 0xFFFFFFFFFFFFFFFF DUP3 GT ISZERO PUSH2 0x5B8 JUMPI PUSH2 0x5B7 PUSH2 0x526 JUMP JUMPDEST JUMPDEST PUSH2 0x5C1 DUP3 PUSH2 0x3F4 JUMP JUMPDEST SWAP1 POP PUSH1 0x20 DUP2 ADD SWAP1 POP SWAP2 SWAP1 POP JUMP JUMPDEST PUSH0 PUSH2 0x5E0 PUSH2 0x5DB DUP5 PUSH2 0x59E JUMP JUMPDEST PUSH2 0x584 JUMP JUMPDEST SWAP1 POP DUP3 DUP2 MSTORE PUSH1 0x20 DUP2 ADD DUP5 DUP5 DUP5 ADD GT ISZERO PUSH2 0x5FC JUMPI PUSH2 0x5FB PUSH2 0x522 JUMP JUMPDEST JUMPDEST PUSH2 0x607 DUP5 DUP3 DUP6 PUSH2 0x3E6 JUMP JUMPDEST POP SWAP4 SWAP3 POP POP POP JUMP JUMPDEST PUSH0 DUP3 PUSH1 0x1F DUP4 ADD SLT PUSH2 0x623 JUMPI PUSH2 0x622 PUSH2 0x51E JUMP JUMPDEST JUMPDEST DUP2 MLOAD PUSH2 0x633 DUP5 DUP3 PUSH1 0x20 DUP7 ADD PUSH2 0x5CE JUMP JUMPDEST SWAP2 POP POP SWAP3 SWAP2 POP POP JUMP JUMPDEST PUSH0 PUSH1 0x20 DUP3 DUP5 SUB SLT ISZERO PUSH2 0x651 JUMPI PUSH2 0x650 PUSH2 0x33F JUMP JUMPDEST JUMPDEST PUSH0 DUP3 ADD MLOAD PUSH8 0xFFFFFFFFFFFFFFFF DUP2 GT ISZERO PUSH2 0x66E JUMPI PUSH2 0x66D PUSH2 0x343 JUMP JUMPDEST JUMPDEST PUSH2 0x67A DUP5 DUP3 DUP6 ADD PUSH2 0x60F JUMP JUMPDEST SWAP2 POP POP SWAP3 SWAP2 POP POP JUMP INVALID LOG2 PUSH5 0x6970667358 0x22 SLT KECCAK256 MUL MSTORE 0xD9 RETURNDATACOPY 0xD3 0xC7 0xE7 PUSH11 0x9BFE48D20A3EC265357DD0 0xE9 DUP6 0x4B 0xAB PUSH1 0x4 0xCC PUSH20 0xBB6E3D545364736F6C6343000819003300000000 "
		},
		"gasEstimates": {
			"creation": {
				"codeDepositCost": "344200",
				"executionCost": "378",
				"totalCost": "344578"
			},
			"external": {
				"getStringAValue(address)": "infinite",
				"getUnknowVariable(address)": "infinite"
			}
		},
		"methodIdentifiers": {
			"getStringAValue(address)": "5b56a386",
			"getUnknowVariable(address)": "c9d78b83"
		}
	},
	"abi": [
		{
			"inputs": [
				{
					"internalType": "address",
					"name": "stotageContractAddress",
					"type": "address"
				}
			],
			"name": "getStringAValue",
			"outputs": [
				{
					"internalType": "string",
					"name": "",
					"type": "string"
				}
			],
			"stateMutability": "view",
			"type": "function"
		},
		{
			"inputs": [
				{
					"internalType": "address",
					"name": "stotageContractAddress",
					"type": "address"
				}
			],
			"name": "getUnknowVariable",
			"outputs": [
				{
					"internalType": "string",
					"name": "",
					"type": "string"
				}
			],
			"stateMutability": "view",
			"type": "function"
		}
	]
}